:100000000C94E9000C9460020C9406010C94060117
:100010000C9406010C9406010C9406010C94060144
:100020000C9406010C9406010C9406010C94060134
:100030000C9406010C9406010C9406010C94060124
:100040000C9406010C9406010C9406010C94060114
:100050000C9406010C9406010C9406010C94060104
:100060000C9406010C9406016E616E00696E6600C8
:1000700000407A10F35A00A0724E18090010A5D45F
:10008000E80000E87648170000E40B54020000CABC
:100090009A3B000000E1F505000080969800000002
:1000A00040420F000000A086010000001027000061
:1000B0000000E803000000006400000000000A00E7
:1000C000000000000100000000002C76D888DC67EA
:1000D0004F0823DFC1DFAE59E1B1B796E5E3E45342
:1000E000C63AE651997696E8E6C28426EB898C9B5F
:1000F00062ED407C6FFCEFBC9C9F40F2BAA56FA5FF
:10010000F490055A2AF75C936B6CF9676DC11BFC80
:10011000E0E40D47FEF520E6B500D0ED902E03009B
:10012000943577050080841E080000204E0A0000E8
:1001300000C80C333333330F986E12831141EF8DA7
:100140002114893BE65516CFFEE6DB18D1844B38E7
:100150001BF77C1D901DA4BBE424203284725E2218
:100160008100C9F124ECA1E53D270902120001013B
:1001700000C0050904000000000000001201100189
:10018000FF000008713114000501010200011A038B
:1001900043006C007500730074006500720020005D
:1001A0004300540052004C00220338003000380055
:1001B0003600200043006F006E00730075006C0075
:1001C000740061006E0063007900040309040100FB
:1001D000FF8E11241FBECFEFD8E0DEBFCDBF11E0F0
:1001E000A0E0B1E0E0EDFCE102C005900D92AA3480
:1001F000B107D9F721E0AAE4B1E001C01D92A0390E
:10020000B207E1F70E94DF080C94660E0C94000020
:10021000CF93DF9360916501635067FD14C0209117
:1002200062018CE090E0821B9109EC01C759DE4F1E
:10023000809161018D3209F452C08091600187FD87
:1002400099C0109265018091010184FF3BC0C0916B
:100250000001CF3FB9F1C93008F46FC088EF8C0FAF
:10026000809300019091540188E88927809354017C
:10027000C8E08091600187FDA7C0209163013091A3
:10028000640186FF6EC0A5E5B1E0F9018C2F949161
:100290009D9331968150D9F78FEF8C0F90E00196A6
:1002A000280F391F30936401209363016C2F85E57B
:1002B00091E00E945C0284E08C0F8C3009F04DC00C
:1002C0008093010194E189B18C7031F49150D9F798
:1002D0001092660110925F01DF91CF91089568300E
:1002E00009F0AFCF83EC809354018AE5809301013C
:1002F000109260018881982F907609F046C02A817B
:1003000010925D01998191114CC08F7119F481E0B7
:1003100080935D0110925E012DE531E082E0309323
:100320006401209363019F81911104C09E819817FD
:1003300008F4892F8093000184CF109200019091DE
:10034000540188E8892780935401C11192CF60E05D
:1003500085E591E00E945C0284E09FEF90930001AC
:10036000AFCFD901E5E5F1E08C2F9D9191938150BC
:10037000E1F792CFCE010E94AF048F3F09F18823AD
:1003800009F45FCF109200015CCFCE010E94A70359
:100390008F3F49F6988197FD2DC090E890936001BA
:1003A000C9CF953009F1963039F1983089F19930FB
:1003B00099F181E09A3009F080E02DE531E0AFCF8E
:1003C0008EE1809301013DCF6C2F85E591E00E9485
:1003D0000C04C82F893008F469CF8FEF8093000197
:1003E0008EE1809301016ECF209366012DE531E00F
:1003F00080E095CF8E81D1CF8B818130D9F0823052
:1004000089F08330F9F080E090E4909360018BCF25
:1004100028E631E081E083CF209368012DE531E0CB
:1004200080E07DCF8AE691E0909364018093630140
:1004300082E1EACF8CE791E09093640180936301BD
:1004400082E1E2CF211108C08AEC91E0909364012F
:100450008093630184E0D8CF213051F0223099F6A7
:100460008EE891E090936401809363018AE1CCCFA0
:1004700088EA91E0909364018093630182E2C4CFA3
:10048000E9E6F0E0808183608083E89A0895A82FF0
:10049000B92F80E090E041E050EA609530E009C07B
:1004A0002D9182279795879510F084279527305EA8
:1004B000C8F36F5FA8F30895EADF8D939D930895C5
:1004C000CF93CFB7CF93C3954B9BE9F74B9B09C015
:1004D0004B9B07C04B9B05C04B9B03C04B9B01C074
:1004E000A1C0DF93C0916201DD27C759DE4F4B9B4E
:1004F00002C0DF91EBCF2F930F931F9309B12FEF22
:1005000003FB20F94F933F9319B14FEF012703FBF2
:1005100021F93BE031C04E7F012F19B1216028C085
:10052000102F4D7F2260000009B129C04B7F24604D
:10053000012F000019B12BC019B1477F28602AC0D4
:100540004F7E09B120612CC04F7D19B120622FC0B0
:100550004F7B09B1206432C0422709B149934FEF64
:100560000000102713FB20F919B11C70C9F1297F75
:1005700091F2012703FB21F909B1237F89F2315060
:1005800058F1102713FB22F919B1277E79F20127C0
:1005900003FB23F92F7C81F209B1102713FB24F907
:1005A0002F7971F200C019B1012703FB25F92F73D0
:1005B00059F200C009B1102713FB26F9223040F28E
:1005C00000C019B1012703FB27F9243028F64F7723
:1005D000206819B10000F9CF11E01CBB002717C03B
:1005E0003B503195C31BD04011E01CBB0881033C3C
:1005F000E9F00B34D9F020915F011981110F12132A
:10060000EDCF093641F10D3211F0013E39F700937B
:1006100067013F914F911F910F912F91DF91CCB3C3
:10062000C0FD51CFCF91CFBFCF91189520916701D9
:10063000222379F310916501112311F5343012F161
:100640003093650120936101109162013BE0311B01
:100650003093620117C00091650101308CF40AE506
:100660003091010134FD10C000930101C4E5D1E0D7
:100670000FC02795A8F45150A9F4220F0000F9CF1C
:100680004AE503C042ED01C0432FC4E1D0E032E0AF
:100690001AB11C605B9A1AB90BB120E41CE05F939D
:1006A000012756E00BB9279520F4515021F4220F71
:1006B000F9CF012756E000003B5A0BB9D0F227953D
:1006C00028F4515029F4220F0000F9CF012756E0F9
:1006D00027950BB920F4515021F4220FF9CF0127AF
:1006E00056E0299133230BB921F6037F109166015F
:1006F000110FC651D0400BB911F010935F0111E0FA
:100700001CBB08601AB1137F402F437F5F9100C06C
:1007100000C00BB91AB94BB97CCF80918C018130E4
:1007200059F060E082E090E00E94580E60918E01E6
:1007300080E190E00C94580E61E082E090E00E942D
:10074000580E60918E0180E190E00C94580EFC01EF
:100750008BE491E0909364018093630191819230E6
:1007600011F170F4992389F1913039F544E050E0AA
:100770006EEC71E08BE491E00E94900D84E00895AE
:100780009330E9F09830C8F484819581809729F1FD
:100790002681378182E080934F0181E0232B09F489
:1007A00080E08195089582819381009711F481E022
:1007B00090E0909304018093030180E0089580917C
:1007C0004F0180934B0181E00895828180934B011A
:1007D000838180934C0182E0089580918A0188236F
:1007E00049F0828180FD06C082E080934F0126811E
:1007F0003781D3CF81E080934F018093020126811E
:100800003781309353012093520180E290E090931E
:10081000510180935001C1CF1F93CF93DF93FC010F
:10082000C62F80914F01813061F0462F50E060E08B
:1008300070E0CF010E94A40D8C2FDF91CF911F910A
:10084000089560915201709153012C2F30E062178E
:10085000730708F4C62F20915001309151012032C6
:10086000310551F7CC2341F390914A01AFEFAC0F22
:10087000B0E09D012F5F3F4F2E0F3F1F1FEFD1E0D4
:1008800053E042E00AC0408390914A019F5F9093F9
:100890004A013196E217F30739F19923A1F3913018
:1008A000E9F09230E9F0933061F1943071F19530D4
:1008B00071F1963081F19730B1F19830C1F19930F2
:1008C00071F19A30C1F19B30D1F19C30E1F19D3052
:1008D000F1F19E3009F43FC01083D6CF5083D4CFBE
:1008E000909180019083D0CFCB0101978A1B9B0B05
:1008F00090935301809352018C2FDF91CF911F91E0
:100900000895809181018083BFCFD083BDCF809136
:1009100082018083B9CF809183018083B5CF80919C
:1009200086018083B1CF809184018083ADCF809197
:1009300085018083A9CF809187018083A5CF809195
:1009400088018083A1CF8091890180839DCF809190
:100950008A01808399CF80918B01808395CFCF933B
:10096000FC01C62F80914F01813051F0462F50E09D
:1009700060E070E0CF010E94A40D8C2FCF9108950C
:100980004091520150915301862F90E0481759072A
:1009900008F051C0842F2091500130915101203234
:1009A000310561F790910201913009F468C0CC23C0
:1009B00029F390914A01C1506C2F70E09B012F5F89
:1009C0003F4F2E0F3F1FB1E0923020F19230A9F13E
:1009D000933009F444C09430E9F0953009F44BC0E9
:1009E000963009F453C0973009F458C0983009F490
:1009F00059C0993009F44EC09A3009F457C09B3061
:100A000009F458C09C3009F459C09D3019F4A081F4
:100A1000A0938A0131969F5F90934A01E217F307F2
:100A200099F641505109461B570B5093530140937F
:100A30005201CF910895862FAECFA081A11104C09D
:100A4000B08390914A01A1E0A093800131969F5F0D
:100A500090934A01E217F30709F0B6CFE2CFA081E5
:100A6000A093810131969F5F90934A01E217F307AB
:100A700009F0AACFD6CFA081A0938201CBCF9081DD
:100A800090934A01CFEFC80F319691CFA081A093E8
:100A90008301C0CFA081A0938601BCCFA081A09389
:100AA0008401B8CFA081A0938501B4CFA081A09389
:100AB0008701B0CFA081A0938801ACCFA081A09383
:100AC0008901A8CFA0E1B0E0E8E6F5E00C94810C44
:100AD0007C011B016A01FC0117821682838181FF60
:100AE00044C39E012F5F3F4F3901F7019381F1010C
:100AF00093FD859193FF81911F01882309F431C3F0
:100B0000853239F493FD859193FF81911F018532E0
:100B100039F4B70190E00E94B60D56016501E5CFAA
:100B200010E0512C912CFFE1F915D8F08B3279F0BF
:100B300038F4803279F08332A1F4F92DF0612EC0BF
:100B40008D3261F0803369F4292D21602DC0392D5B
:100B50003260932E892D8460982E2AC0E92DE8609A
:100B600015C097FC2DC020ED280F2A3088F496FE82
:100B700006C03AE0139F200D1124122F19C08AE0FD
:100B8000589E200D1124522EE92DE0629E2E10C099
:100B90008E3231F496FCE5C2F92DF0649F2E08C028
:100BA0008C3621F4292D2068922E02C0883641F41B
:100BB000F10193FD859193FF81911F018111B3CFC5
:100BC0009BEB980F933020F4992D9061805E07C0C5
:100BD0009BE9980F933008F066C1992D9F7E96FF90
:100BE00016E09F73992E853619F49064992E08C0EB
:100BF000863621F4392F3068932E02C0111111501E
:100C000097FE07C01C3350F444244394410E27E060
:100C10000BC0183038F027E017E005C027E09CE350
:100C2000492E02C0212F412C560184E0A80EB11C90
:100C3000F6016081718182819381042DA3010E945C
:100C4000B80C6C01F981FC87F0FF02C0F3FF06C00D
:100C500091FC06C092FE06C000E205C00DE203C092
:100C60000BE201C000E08C858C7019F001115AC2B2
:100C70009BC297FE10C04C0CFC85F4FF04C08A8117
:100C8000813309F44A94141474F528E0241578F596
:100C900088E0482E2CC096FC2AC0812F90E08C154D
:100CA0009D059CF03CEFC3163FEFD30674F0892DF1
:100CB0008068982E0AC0E2E0F0E0EC0FFD1FE10F23
:100CC000F11D8081803319F411501111F4CF97FE7A
:100CD0000EC044244394410E812F90E0C816D906DB
:100CE0002CF41C1904C04424439401C010E097FE66
:100CF00006C01C141D0434F4C601019605C085E02D
:100D000090E002C081E090E001110196112331F0E2
:100D1000212F30E02F5F3F4F820F931F252D30E0B2
:100D20008217930714F4581A01C0512C892D897029
:100D300049F4552039F0B70180E290E00E94B60DE9
:100D40005A94F7CF002329F0B701802F90E00E943A
:100D5000B60D93FC09C0552039F0B70180E390E04F
:100D60000E94B60D5A94F7CF97FE4CC04601D7FEAD
:100D700002C0812C912CC60188199909F301E80F52
:100D8000F91FFE87ED87960124193109388B2F87CB
:100D9000012F10E01195019511093FEF831693067D
:100DA00029F4B7018EE290E00E94B60DC814D90470
:100DB0004CF08F8598898815990524F4ED85FE857A
:100DC000818101C080E3F1E08F1A91082D853E8575
:100DD0002F5F3F4F3E872D87801691062CF0B7017D
:100DE00090E00E94B60DD9CFC814D90441F49A817D
:100DF000963320F4953319F43C8534FF81E3B70131
:100E000090E04EC08A81813319F09C859F7E9C873B
:100E1000B70190E00E94B60D111105C094FC18C0F6
:100E200085E690E017C0B7018EE290E00E94B60D13
:100E30001E5F82E001E0080FF301E80FF11D8081E1
:100E4000B70190E00E94B60D802F0113F3CFE6CFDB
:100E500085E490E0B7010E94B60DD7FC06C0C1142E
:100E6000D10441F4EC85E4FF05C0D194C194D108CC
:100E70008DE201C08BE2B70190E00E94B60D80E3E5
:100E80002AE0C216D1042CF08F5FFAE0CF1AD10805
:100E9000F7CFB70190E00E94B60DB701C601C0962A
:100EA0000E94B60D54C1833631F0833779F0833513
:100EB00009F056C020C0560132E0A30EB11CF60165
:100EC0008081898301E010E0630112C05601F2E0E5
:100ED000AF0EB11CF601C080D18096FE03C0612F19
:100EE00070E002C06FEF7FEFC6010E94AB0D8C0176
:100EF000F92DFF7714C0560122E0A20EB11CF601B5
:100F0000C080D18096FE03C0612F70E002C06FEFF9
:100F10007FEFC6010E94990D8C01F92DF0689F2E7C
:100F2000F3FD1AC0852D90E008171907A8F4B70142
:100F300080E290E00E94B60D5A94F4CFF60197FC3F
:100F4000859197FE81916F01B70190E00E94B60DE7
:100F500051105A94015011090115110579F7F7C084
:100F6000843611F0893661F5560197FE09C024E0F8
:100F7000A20EB11CF60160817181828193810AC049
:100F8000F2E0AF0EB11CF60160817181072E000CFA
:100F9000880B990BF92DFF769F2E97FF09C090952E
:100FA0008095709561957F4F8F4F9F4FF0689F2E72
:100FB0002AE030E0A3010E94F20DC82EC6183FC0FF
:100FC000092D853721F40F7E2AE030E01DC0097F0E
:100FD0008F3691F018F4883559F0C3C0803719F076
:100FE000883711F0BEC0006104FF09C0046007C06B
:100FF00094FE08C0066006C028E030E005C020E18D
:1010000030E002C020E132E0560107FF09C084E071
:10101000A80EB11CF601608171818281938108C0A4
:10102000F2E0AF0EB11CF6016081718180E090E0CA
:10103000A3010E94F20DC82EC6180F77902E96FEBF
:101040000BC0092D0E7FC11650F494FE0AC092FC0D
:1010500008C0092D0E7E05C0DC2C092D03C0DC2C38
:1010600001C0D12E04FF0DC0FE01EC0DF11D8081E9
:10107000803311F4097E09C002FF06C0D394D394D3
:1010800004C0802F867809F0D39403FD11C000FFBF
:1010900006C01C2DD51480F4150D1D190DC0D514D6
:1010A00058F4B70180E290E00E94B60DD394F7CFD8
:1010B000D51410F45D1801C0512C04FF10C0B70105
:1010C00080E390E00E94B60D02FF17C001FD03C04F
:1010D00088E790E002C088E590E0B7010CC0802F5F
:1010E000867859F001FF02C08BE201C080E207FD63
:1010F0008DE2B70190E00E94B60DC11638F4B70139
:1011000080E390E00E94B60D1150F7CFCA94F3012E
:10111000EC0DF11D8081B70190E00E94B60DC11069
:10112000F5CF15C0F4E0F51560F584E0581A93FE8C
:101130001FC0011127C02C8523FF2AC008E610E03C
:10114000392D3071932EF8018491811124C05520DE
:1011500009F4E4CCB70180E290E00E94B60D5A9405
:10116000F6CFF7018681978126C08FEF9FEF23C0CE
:10117000B70180E290E00E94B60D5A945110F8CF6A
:10118000D8CF512CB701802F90E00E94B60DD3CF5D
:101190000CE610E0D5CF91108052B70190E00E948C
:1011A000B60D0F5F1F4FCFCF23E0251510F483E05E
:1011B000BDCF512CC0CF6096E2E10C949D0C99E21A
:1011C00088E10FB6F894A895809360000FBE9093C5
:1011D000600084B18F6384B987B18F6387B98AB1A6
:1011E000806F8AB92C985F9881E090E00E94500E41
:1011F0008093800182E090E00E94500E813009F4DB
:10120000DDC210928C015C9880E190E00E94500E4B
:1012100080938E0180E390E00E94500E80938D01B8
:1012200080E590E00E94500E80938F01C5E0D1E0F0
:10123000ADE1B1E051E1C52E51E0D52E4CE851E0D1
:1012400080E090E021E030E083309105C8F56091C6
:101250008D0160FF24C0F60100811181F801F0804A
:10126000B901F601028002C0660F771F0A94E2F707
:101270006F29F8016083FA01628160FF10C00D914F
:101280001C911197F801F080B90112960C901297F9
:1012900002C0660F771F0A94E2F76F29608360919E
:1012A0008F0160FF0DC008811981F801F080B9013C
:1012B0000A8002C0660F771F0A94E2F76F296083E5
:1012C000019624961496F4E0CF0ED11C4F5F5F4F29
:1012D0008830910509F0B8CF8BB1837F8BB98AB183
:1012E0008C608AB980E49CE90197F1F78AB1837F29
:1012F0008AB90E9440027894C3E08C2ECFEFD1E0EF
:1013000010E4E12E07E8F02E88EC982E92E0D92E1A
:1013100028E1A22E38E0B32E00E41CE94AE0C42EF6
:10132000A8950E94080180918A018823C9F383301F
:1013300009F44AC0843009F4A7C0823109F4D7C047
:10134000833109F4FBC08A3009F415C18B3009F4EC
:1013500025C1853009F44FC1863009F452C1803F60
:1013600009F479C0843F09F484C0833F09F44FC174
:10137000853F09F4D8C0863F09F479C1873009F464
:1013800051C1813F09F47AC18C3009F460C18D30BC
:1013900009F465C18E3009F4B3C18F3009F491C1ED
:1013A000843109F4D0C1803109F4C7C1823F09F406
:1013B000E5C1853109F420C2813109F403C21092DC
:1013C0008A0180928B01ACCFE09189018FEF8E0F63
:1013D0008330E0F5F0E0EE0FFF1FEE0FFF1FE35F3D
:1013E000FE4FA081B1814C9181E090E09C01028090
:1013F00002C0220F331F0A94E2F7242B2C93E091B2
:101400008901AE2FA695A695A695B0E0A457BE4F2C
:1014100012962C9130E04E2F477002C035952795DB
:101420004A95E2F720FF12C0F0E0EE0FFF1FEE0F2B
:10143000FF1FE75EFE4FA081B1812C91028002C0A8
:10144000880F991F0A94E2F7822B8C9310928A01DD
:1014500010928B0165CF6091800181E090E00E9445
:10146000580E0E948D0360918D0180E390E00E94F0
:10147000580E60918F0180E590E00E94580E109206
:101480008A0110928B014CCFE09189018FEF8E0F72
:101490008330E0F6F0E0EE0FFF1FEE0FFF1FE35F7B
:1014A000FE4FA081B1813C9181E090E0AC010280CF
:1014B00002C0440F551F0A94E2F7242F20952323DE
:1014C0002C93E0918901F0E0EE0FFF1FEE0FFF1F5C
:1014D000E75EFE4FA081B1812C91028002C0880F8F
:1014E000991F0A94E2F7809582238C93AFCFE09105
:1014F00089018FEF8E0F833008F0A8CFF0E0EE0F58
:10150000FF1FEE0FFF1FEF5FFE4FA081B1812C91F7
:1015100081E090E0028002C0880F991F0A94E2F7F0
:10152000822B8C9393CF60918D0180E390E00E9499
:10153000580E10928A0110928B01F2CEE09189012F
:101540008FEF8E0F833008F081CFF0E0EE0FFF1F9A
:10155000EE0FFF1FEF5FFE4FA081B1812C9181E064
:1015600090E0028002C0880F991F0A94E2F78095EC
:1015700082238C936BCF209189018FEF820F833070
:1015800008F064CF81E090E001C0880F2A95EAF767
:1015900090918E01892B80938E0158CF20918901E3
:1015A0008FEF820F833008F051CFA22FB0E081E09F
:1015B00090E0AC0102C0440F551F2A95E2F7342F8A
:1015C000309520918E01232320938E01AA0FBB1FFB
:1015D000AA0FBB1FA35EBE4FED91FC911197208116
:1015E00012960C9002C0880F991F0A94E2F780951A
:1015F000822380832BCF5F9A10928A0110928B01F5
:101600008FCE5F9810928A0110928B0189CE6091E3
:10161000800181E090E00E94580E10928A011092A1
:101620008B017ECE909189019A3018F4C092890185
:101630009AE02C9A992339F080E0F8013197F1F77C
:101640008F5F8913FACF2C9810928A0169CE5C9A29
:10165000D0938C0110928A0110928B0161CE5C981C
:1016600010928C0110928A0110928B0159CE0E9427
:101670008D0310928A0110928B0152CE64E181E0B9
:1016800090E00E94580E61E082E090E00E94580EC7
:1016900061E082E090E00E94580E6FEF80E190E000
:1016A0000E94580E60E080E390E00E94580E6FEFB9
:1016B00080E590E00E94580E10928A0110928B01F2
:1016C0002FCEE09189018FEF8E0F833078F5F0E017
:1016D000EE0FFF1FEE0FFF1FE75EFE4FA081B181EF
:1016E0008C9190E0028002C0959587950A94E2F76C
:1016F00081708093890110928A0110928B0110CE23
:101700000FB6F894A895A09260000FBEB09260004A
:101710005FEB64ED81E0515060408040E1F700C034
:10172000000010928A0110928B01FACDC0938901BA
:1017300010928A01D0928B01F3CD80918901813082
:10174000D9F15E9883CEE09189018FEF8E0F8330BF
:1017500080F5F0E0EE0FFF1FEE0FFF1FEF5FFE4F73
:10176000A081B1818C9190E0028002C0959587950F
:101770000A94E2F781708093890168CED0938B013F
:1017800080918901811142C0D0938901D093880151
:10179000C0938701C0938601C0938501C0938401E3
:1017A000C0938301C093820110928B0110928A0131
:1017B000B7CDC09389014ACE5E9A48CE80938C0102
:1017C0005C9A22CDE0918901E43008F450C0109277
:1017D0008A01C0938201C0938301C0938401C093A6
:1017E0008501C0938601C0938701C0938801C0938F
:1017F0008901D0938B0194CD80918901882309F4CC
:1018000058C08093800110928B01D0CF813009F4B1
:1018100075C0823009F450C0833041F6E0927C00FC
:10182000F0927A0090927C0080917A00806480939C
:101830007A0080917A0086FDFCCF80917A008064E6
:1018400080937A0080917A0086FDFCCFD092890146
:10185000809178008093880180917900809387013E
:1018600010928B01E0927C00F0927A009FCFF0E022
:10187000EE0FFF1FEE0FFF1FEE0FFF1FE75DFE4F86
:1018800087818093890186818093880185818093F7
:101890008701848180938601838180938501828181
:1018A0008093840181818093830180818093820170
:1018B000CDCDD0938B017ACF80918801813009F012
:1018C00075CFE0927C00F0927A0080917C00887F56
:1018D000866080937C0080917A00806480937A0097
:1018E00080917A0086FDFCCFD093890180917800A9
:1018F00080938801809179008093870110928B01F9
:1019000055CF2F923F924F925F926F927F928F921C
:101910009F92AF92BF92CF92DF92EF92FF920F937E
:101920001F93CF93DF93CDB7DEB7CA1BDB0B0FB688
:10193000F894DEBF0FBECDBF09942A883988488845
:101940005F846E847D848C849B84AA84B984C884DB
:10195000DF80EE80FD800C811B81AA81B981CE0FD2
:10196000D11D0FB6F894DEBF0FBECDBFED010895B7
:10197000283008F027E03327DA01990F311D87FD61
:10198000916000966105710539F432602E5F3D93D8
:1019900030E32A95E1F708959F3F30F080387105D4
:1019A000610509F03C5F3C5F3D93913008F0806831
:1019B000911DDF93CF931F930F93FF92EF92192FF7
:1019C000987F9695E92F96959695E90FFF27E65310
:1019D000FF4F99273327EE24FF24A701E701059045
:1019E0000894079428F4360FE71EF81E491F511D6E
:1019F000660F771F881F991F0694A1F7059007941B
:101A000028F4E70EF81E491F561FC11D770F881FC7
:101A1000991F661F0694A1F70590079428F4F80E05
:101A2000491F561FC71FD11D880F991F661F771F9B
:101A30000694A1F70590079420F4490F561FC71F7D
:101A4000D81F990F661F771F881F0694A9F78491E6
:101A50001095177041F0D695C79557954795F7940F
:101A6000E7941A95C1F7E0E7F0E0689415901591B6
:101A700035916591959105907FE27395E118F10A92
:101A8000430B560BC90BD009C0F7E10CF11E431FE5
:101A9000561FC91FD01D7EF4703311F48A95E6CF0E
:101AA000E894015030F0080F0AF40027021708F4F8
:101AB000202F2395022F7A3328F079E37D932A95FE
:101AC000E9F710C07D932A9589F606949795679556
:101AD000379517951794E118F10A430B560BC90B6C
:101AE000D00998F023957E9173957A3308F070E3CE
:101AF0007C932013B8F77E9170617D9330F08395CD
:101B000071E37D9370E32A95E1F71124EF90FF9044
:101B10000F911F91CF91DF91992787FD909508959F
:101B2000FB01DC0102C005900D9241505040D8F7F6
:101B30000895FC010590615070400110D8F7809520
:101B400090958E0F9F1F0895DC0101C06D93415049
:101B50005040E0F70895FC01615070400190011081
:101B6000D8F7809590958E0F9F1F08950F931F9320
:101B7000CF93DF93FB01238121FD03C08FEF9FEF04
:101B80002CC022FF16C0468157812481358142171F
:101B9000530744F4A081B1819D012F5F3F4F3183F2
:101BA00020838C93268137812F5F3F4F3783268395
:101BB00014C08B01EC01FB010084F185E02D099537
:101BC000892BE1F6D80116968D919C911797019675
:101BD00017969C938E931697CE01DF91CF911F910C
:101BE0000F910895FA01AA27283051F1203181F18F
:101BF000E8946F936E7F6E5F7F4F8F4F9F4FAF4F15
:101C0000B1E03ED0B4E03CD0670F781F891F9A1F27
:101C1000A11D680F791F8A1F911DA11D6A0F711DDB
:101C2000811D911DA11D20D009F468943F912AE0E7
:101C3000269F11243019305D3193DEF6CF010895CF
:101C4000462F4770405D4193B3E00FD0C9F7F6CF00
:101C5000462F4F70405D4A3318F0495D31FD4052C8
:101C6000419302D0A9F7EACFB4E0A695979587955E
:101C700077956795BA95C9F700976105710508953D
:101C80009B01AC010A2E06945795479537952795E9
:101C9000BA95C9F7620F731F841F951FA01D089581
:101CA000F999FECF92BD81BDF89A992780B5089524
:101CB000262FF999FECF1FBA92BD81BD20BD0FB668
:101CC000F894FA9AF99A0FBE01960895F894FFCF06
:101CD000FF5A010A00280003002800020028000122
:101CE000002800050028000400280000002500014D
:101CF00000250002002500050001FFFFFFFFFFFF98
:101D0000FF04FFFFFFFFFFFFFF03FFFFFFFFFFFFDA
:0A1D1000FF02FFFFFFFFFFFFFF00CF
:00000001FF
