:100000000C94E9000C9460020C9406010C94060117
:100010000C9406010C9406010C9406010C94060144
:100020000C9406010C9406010C9406010C94060134
:100030000C9406010C9406010C9406010C94060124
:100040000C9406010C9406010C9406010C94060114
:100050000C9406010C9406010C9406010C94060104
:100060000C9406010C9406016E616E00696E6600C8
:1000700000407A10F35A00A0724E18090010A5D45F
:10008000E80000E87648170000E40B54020000CABC
:100090009A3B000000E1F505000080969800000002
:1000A00040420F000000A086010000001027000061
:1000B0000000E803000000006400000000000A00E7
:1000C000000000000100000000002C76D888DC67EA
:1000D0004F0823DFC1DFAE59E1B1B796E5E3E45342
:1000E000C63AE651997696E8E6C28426EB898C9B5F
:1000F00062ED407C6FFCEFBC9C9F40F2BAA56FA5FF
:10010000F490055A2AF75C936B6CF9676DC11BFC80
:10011000E0E40D47FEF520E6B500D0ED902E03009B
:10012000943577050080841E080000204E0A0000E8
:1001300000C80C333333330F986E12831141EF8DA7
:100140002114893BE65516CFFEE6DB18D1844B38E7
:100150001BF77C1D901DA4BBE424203284725E2218
:100160008100C9F124ECA1E53D270902120001013B
:1001700000C0050904000000000000001201100189
:10018000FF000008713113000501010200011A038C
:1001900043006C007500730074006500720020005D
:1001A0004300540052004C00220338003000380055
:1001B0003600200043006F006E00730075006C0075
:1001C000740061006E0063007900040309040100FB
:1001D000FF8E11241FBECFEFD8E0DEBFCDBF11E0F0
:1001E000A0E0B1E0E8E7FCE102C005900D92AE3579
:1001F000B107D9F721E0AEE5B1E001C01D92A43A04
:10020000B207E1F70E94F1080C943A0E0C9400003A
:10021000CF93DF9360917901635067FD14C0209103
:1002200076018CE090E0821B9109EC01C358DE4F0F
:10023000809175018D3209F452C08091740187FD5F
:1002400099C0109279018091010184FF3BC0C09157
:100250000001CF3FB9F1C93008F46FC088EF8C0FAF
:10026000809300019091680188E889278093680154
:10027000C8E08091740187FDA7C02091770130917B
:10028000780186FF6EC0A9E6B1E0F9018C2F949148
:100290009D9331968150D9F78FEF8C0F90E00196A6
:1002A000280F391F30937801209377016C2F89E64E
:1002B00091E00E945C0284E08C0F8C3009F04DC00C
:1002C0008093010194E189B18C7031F49150D9F798
:1002D00010927A0110927301DF91CF9108956830E6
:1002E00009F0AFCF83EC809368018AE58093010128
:1002F000109274018881982F907609F046C02A8167
:1003000010927101998191114CC08F7119F481E0A3
:10031000809371011092720121E731E082E0309305
:100320007801209377019F81911104C09E819817D5
:1003300008F4892F8093000184CF109200019091DE
:10034000680188E8892780936801C11192CF60E035
:1003500089E691E00E945C0284E09FEF90930001A7
:10036000AFCFD901E9E6F1E08C2F9D9191938150B7
:10037000E1F792CFCE010E94C1048F3F09F188239B
:1003800009F45FCF109200015CCFCE010E94B90347
:100390008F3F49F6988197FD2DC090E890937401A6
:1003A000C9CF953009F1963039F1983089F19930FB
:1003B00099F181E09A3009F080E021E731E0AFCF98
:1003C0008EE1809301013DCF6C2F89E691E00E9480
:1003D0001E04C82F893008F469CF8FEF8093000185
:1003E0008EE1809301016ECF20937A0121E731E005
:1003F00080E095CF8E81D1CF8B818130D9F0823052
:1004000089F08330F9F080E090E4909374018BCF11
:100410002CE731E081E083CF20937C0121E731E0BC
:1004200080E07DCF8AE691E0909378018093770118
:1004300082E1EACF8CE791E0909378018093770195
:1004400082E1E2CF211108C08AEC91E0909378011B
:100450008093770184E0D8CF213051F0223099F693
:100460008EE891E090937801809377018AE1CCCF78
:1004700088EA91E0909378018093770182E2C4CF7B
:10048000E9E6F0E0808183608083E89A0895A82FF0
:10049000B92F80E090E041E050EA609530E009C07B
:1004A0002D9182279795879510F084279527305EA8
:1004B000C8F36F5FA8F30895EADF8D939D930895C5
:1004C000CF93CFB7CF93C3954B9BE9F74B9B09C015
:1004D0004B9B07C04B9B05C04B9B03C04B9B01C074
:1004E000A1C0DF93C0917601DD27C358DE4F4B9B3F
:1004F00002C0DF91EBCF2F930F931F9309B12FEF22
:1005000003FB20F94F933F9319B14FEF012703FBF2
:1005100021F93BE031C04E7F012F19B1216028C085
:10052000102F4D7F2260000009B129C04B7F24604D
:10053000012F000019B12BC019B1477F28602AC0D4
:100540004F7E09B120612CC04F7D19B120622FC0B0
:100550004F7B09B1206432C0422709B149934FEF64
:100560000000102713FB20F919B11C70C9F1297F75
:1005700091F2012703FB21F909B1237F89F2315060
:1005800058F1102713FB22F919B1277E79F20127C0
:1005900003FB23F92F7C81F209B1102713FB24F907
:1005A0002F7971F200C019B1012703FB25F92F73D0
:1005B00059F200C009B1102713FB26F9223040F28E
:1005C00000C019B1012703FB27F9243028F64F7723
:1005D000206819B10000F9CF11E01CBB002717C03B
:1005E0003B503195C31BD04011E01CBB0881033C3C
:1005F000E9F00B34D9F0209173011981110F121316
:10060000EDCF093641F10D3211F0013E39F700937B
:100610007B013F914F911F910F912F91DF91CCB3AF
:10062000C0FD51CFCF91CFBFCF91189520917B01C5
:10063000222379F310917901112311F5343012F14D
:100640003093790120937501109176013BE0311BC5
:100650003093760117C00091790101308CF40AE5DE
:100660003091010134FD10C000930101C8E6D1E0D2
:100670000FC02795A8F45150A9F4220F0000F9CF1C
:100680004AE503C042ED01C0432FC4E1D0E032E0AF
:100690001AB11C605B9A1AB90BB120E41CE05F939D
:1006A000012756E00BB9279520F4515021F4220F71
:1006B000F9CF012756E000003B5A0BB9D0F227953D
:1006C00028F4515029F4220F0000F9CF012756E0F9
:1006D00027950BB920F4515021F4220FF9CF0127AF
:1006E00056E0299133230BB921F6037F10917A014B
:1006F000110FC651D0400BB911F01093730111E0E6
:100700001CBB08601AB1137F402F437F5F9100C06C
:1007100000C00BB91AB94BB97CCF8091A0018130D0
:10072000A1F060E082E090E00E942C0E8091A10197
:100730008130A1F060E083E090E00E942C0E609197
:10074000A30180E190E00C942C0E61E082E090E047
:100750000E942C0E8091A101813061F761E083E05D
:1007600090E00E942C0E6091A30180E190E00C9437
:100770002C0EFC018FE591E0909378018093770136
:100780009181923011F170F4992389F1913039F50A
:1007900044E050E06EEC71E08FE591E00E94640D62
:1007A00084E008959330E9F09830C8F4848195810D
:1007B000809729F12681378182E08093630181E06F
:1007C000232B09F480E0819508958281938100971D
:1007D00011F481E090E0909304018093030180E0A4
:1007E00008958091630180935F0181E00895828183
:1007F00080935F0183818093600182E008958091FE
:100800009E01882349F0828180FD06C082E08093AA
:10081000630126813781D3CF81E080936301809388
:10082000020126813781309367012093660180E2BF
:1008300090E09093650180936401C1CF1F93CF93A3
:10084000DF93FC01C62F80916301813061F0462F58
:1008500050E060E070E0CF010E94780D8C2FDF91B6
:10086000CF911F91089560916601709167012C2FBF
:1008700030E06217730708F4C62F209164013091AD
:1008800065012032310551F7CC2341F390915E018F
:10089000AFEFAC0FB0E09D012F5F3F4F2E0F3F1F1A
:1008A0001FEFD3E055E042E00AC0408390915E0123
:1008B0009F5F90935E013196E217F30739F1992318
:1008C000A1F39130E9F09230E9F0933061F1943086
:1008D00071F1953071F1963081F19730B1F1983026
:1008E000C1F1993071F19A30C1F19B30D1F19C3056
:1008F000E1F19D30F1F19E3009F43FC01083D6CF75
:100900005083D4CF909194019083D0CFCB010197A5
:100910008A1B9B0B90936701809366018C2FDF915C
:10092000CF911F910895809195018083BFCFD0838F
:10093000BDCF809196018083B9CF8091970180834C
:10094000B5CF80919A018083B1CF80919801808347
:10095000ADCF809199018083A9CF80919B01808345
:10096000A5CF80919C018083A1CF80919D01808340
:100970009DCF80919E01808399CF80919F0180833C
:1009800095CFCF93FC01C62F80916301813051F048
:10099000462F50E060E070E0CF010E94780D8C2F70
:1009A000CF9108954091660150916701862F90E0A4
:1009B0004817590708F051C0842F209164013091E5
:1009C00065012032310561F790910201913009F4FF
:1009D00068C0CC2329F390915E01C1506C2F70E068
:1009E0009B012F5F3F4F2E0F3F1FB1E0923020F150
:1009F0009230A9F1933009F444C09430E9F0953075
:100A000009F44BC0963009F453C0973009F458C02C
:100A1000983009F459C0993009F44EC09A3009F45D
:100A200057C09B3009F458C09C3009F459C09D3020
:100A300019F4A081A0939E0131969F5F90935E016F
:100A4000E217F30799F641505109461B570B509393
:100A5000670140936601CF910895862FAECFA081A4
:100A6000A11104C0B08390915E01A1E0A093940114
:100A700031969F5F90935E01E217F30709F0B6CFBE
:100A8000E2CFA081A093950131969F5F90935E0184
:100A9000E217F30709F0AACFD6CFA081A093960161
:100AA000CBCF908190935E01CFEFC80F319691CF5D
:100AB000A081A0939701C0CFA081A0939A01BCCF41
:100AC000A081A0939801B8CFA081A0939901B4CF41
:100AD000A081A0939B01B0CFA081A0939C01ACCF3B
:100AE000A081A0939D01A8CFA0E1B0E0EAE7F5E0E6
:100AF0000C94550C7C011B016A01FC0117821682C3
:100B0000838181FF44C39E012F5F3F4F3901F7016D
:100B10009381F10193FD859193FF81911F018823BA
:100B200009F431C3853239F493FD859193FF8191A6
:100B30001F01853239F4B70190E00E948A0D5601F9
:100B40006501E5CF10E0512C912CFFE1F915D8F0AB
:100B50008B3279F038F4803279F08332A1F4F92DB8
:100B6000F0612EC08D3261F0803369F4292D21604F
:100B70002DC0392D3260932E892D8460982E2AC085
:100B8000E92DE86015C097FC2DC020ED280F2A3014
:100B900088F496FE06C03AE0139F200D1124122F10
:100BA00019C08AE0589E200D1124522EE92DE062D2
:100BB0009E2E10C08E3231F496FCE5C2F92DF06401
:100BC0009F2E08C08C3621F4292D2068922E02C059
:100BD000883641F4F10193FD859193FF81911F01C6
:100BE0008111B3CF9BEB980F933020F4992D906136
:100BF000805E07C09BE9980F933008F066C1992D7D
:100C00009F7E96FF16E09F73992E853619F49064A7
:100C1000992E08C0863621F4392F3068932E02C0F1
:100C20001111115097FE07C01C3350F44424439413
:100C3000410E27E00BC0183038F027E017E005C060
:100C400027E09CE3492E02C0212F412C560184E06D
:100C5000A80EB11CF6016081718182819381042DFF
:100C6000A3010E948C0C6C01F981FC87F0FF02C08B
:100C7000F3FF06C091FC06C092FE06C000E205C06C
:100C80000DE203C00BE201C000E08C858C7019F00E
:100C900001115AC29BC297FE10C04C0CFC85F4FF98
:100CA00004C08A81813309F44A94141474F528E04D
:100CB000241578F588E0482E2CC096FC2AC0812F98
:100CC00090E08C159D059CF03CEFC3163FEFD306DA
:100CD00074F0892D8068982E0AC0E2E0F0E0EC0FF5
:100CE000FD1FE10FF11D8081803319F411501111A6
:100CF000F4CF97FE0EC044244394410E812F90E020
:100D0000C816D9062CF41C1904C04424439401C00D
:100D100010E097FE06C01C141D0434F4C6010196B1
:100D200005C085E090E002C081E090E001110196ED
:100D3000112331F0212F30E02F5F3F4F820F931F9F
:100D4000252D30E08217930714F4581A01C0512C56
:100D5000892D897049F4552039F0B70180E290E07F
:100D60000E948A0D5A94F7CF002329F0B701802FF3
:100D700090E00E948A0D93FC09C0552039F0B7011C
:100D800080E390E00E948A0D5A94F7CF97FE4CC002
:100D90004601D7FE02C0812C912CC6018819990901
:100DA000F301E80FF91FFE87ED8796012419310939
:100DB000388B2F87012F10E01195019511093FEF16
:100DC0008316930629F4B7018EE290E00E948A0D03
:100DD000C814D9044CF08F8598898815990524F496
:100DE000ED85FE85818101C080E3F1E08F1A9108D5
:100DF0002D853E852F5F3F4F3E872D8780169106BC
:100E00002CF0B70190E00E948A0DD9CFC814D90404
:100E100041F49A81963320F4953319F43C8534FFDC
:100E200081E3B70190E04EC08A81813319F09C853F
:100E30009F7E9C87B70190E00E948A0D111105C02A
:100E400094FC18C085E690E017C0B7018EE290E0F0
:100E50000E948A0D1E5F82E001E0080FF301E80F97
:100E6000F11D8081B70190E00E948A0D802F01134F
:100E7000F3CFE6CF85E490E0B7010E948A0DD7FC5E
:100E800006C0C114D10441F4EC85E4FF05C0D1943F
:100E9000C194D1088DE201C08BE2B70190E00E94BD
:100EA0008A0D80E32AE0C216D1042CF08F5FFAE0AD
:100EB000CF1AD108F7CFB70190E00E948A0DB70191
:100EC000C601C0960E948A0D54C1833631F0833723
:100ED00079F0833509F056C020C0560132E0A30EE8
:100EE000B11CF6018081898301E010E0630112C02A
:100EF0005601F2E0AF0EB11CF601C080D18096FE23
:100F000003C0612F70E002C06FEF7FEFC6010E9447
:100F10007F0D8C01F92DFF7714C0560122E0A20E3F
:100F2000B11CF601C080D18096FE03C0612F70E035
:100F300002C06FEF7FEFC6010E946D0D8C01F92D8D
:100F4000F0689F2EF3FD1AC0852D90E00817190751
:100F5000A8F4B70180E290E00E948A0D5A94F4CF81
:100F6000F60197FC859197FE81916F01B70190E0A2
:100F70000E948A0D51105A94015011090115110552
:100F800079F7F7C0843611F0893661F5560197FE7E
:100F900009C024E0A20EB11CF6016081718182813A
:100FA00093810AC0F2E0AF0EB11CF601608171813D
:100FB000072E000C880B990BF92DFF769F2E97FFBB
:100FC00009C090958095709561957F4F8F4F9F4F89
:100FD000F0689F2E2AE030E0A3010E94C60DC82EC3
:100FE000C6183FC0092D853721F40F7E2AE030E076
:100FF0001DC0097F8F3691F018F4883559F0C3C0B1
:10100000803719F0883711F0BEC0006104FF09C0B5
:10101000046007C094FE08C0066006C028E030E007
:1010200005C020E130E002C020E132E0560107FFB8
:1010300009C084E0A80EB11CF60160817181828133
:10104000938108C0F2E0AF0EB11CF601608171819E
:1010500080E090E0A3010E94C60DC82EC6180F774D
:10106000902E96FE0BC0092D0E7FC11650F494FEF3
:101070000AC092FC08C0092D0E7E05C0DC2C092D8B
:1010800003C0DC2C01C0D12E04FF0DC0FE01EC0D0D
:10109000F11D8081803311F4097E09C002FF06C072
:1010A000D394D39404C0802F867809F0D39403FDA1
:1010B00011C000FF06C01C2DD51480F4150D1D199C
:1010C0000DC0D51458F4B70180E290E00E948A0D5B
:1010D000D394F7CFD51410F45D1801C0512C04FF40
:1010E00010C0B70180E390E00E948A0D02FF17C094
:1010F00001FD03C088E790E002C088E590E0B701F9
:101100000CC0802F867859F001FF02C08BE201C02D
:1011100080E207FD8DE2B70190E00E948A0DC116C2
:1011200038F4B70180E390E00E948A0D1150F7CFA8
:10113000CA94F301EC0DF11D8081B70190E00E948B
:101140008A0DC110F5CF15C0F4E0F51560F584E007
:10115000581A93FE1FC0011127C02C8523FF2AC0F7
:1011600008E610E0392D3071932EF8018491811139
:1011700024C0552009F4E4CCB70180E290E00E943D
:101180008A0D5A94F6CFF7018681978126C08FEF9A
:101190009FEF23C0B70180E290E00E948A0D5A942D
:1011A0005110F8CFD8CF512CB701802F90E00E947A
:1011B0008A0DD3CF0CE610E0D5CF91108052B70145
:1011C00090E00E948A0D0F5F1F4FCFCF23E02515BF
:1011D00010F483E0BDCF512CC0CF6096E2E10C94B7
:1011E000710C99E288E10FB6F894A895809360009D
:1011F0000FBE9093600084B18F6384B987B18F6311
:1012000087B98AB1806F8AB92C98299881E090E0DB
:101210000E94240E8093940182E090E00E94240EAC
:10122000813009F415C31092A001289883E090E062
:101230000E94240E813009F407C31092A101429844
:1012400080E190E00E94240E8093A30180E390E06F
:101250000E94240E8093A201A9E1B1E0E5E0F1E053
:1012600090EAE92E91E0F92E80E090E041E050E034
:101270008530910528F52091A20120FF21C06081D1
:101280007181EB0118819A01028002C0220F331F85
:101290000A94E2F7212B2883E7012B8120FF10C05D
:1012A0006D917C911197EB0118819A0112960C9027
:1012B000129702C0220F331F0A94E2F7212B2883D2
:1012C000019614963496DFEFED1AFD0A88309105E9
:1012D00079F68BB1837F8BB98AB18C608AB980E44F
:1012E0009CE90197F1F78AB1837F8AB90E94400295
:1012F000789473E0872ECFEFD1E0E0E4EE2EF7E8AC
:10130000FF2EA8EC9A2EB2E0DB2E18E1A12E08E009
:10131000B02E00E41CE98AE0C82EA8950E940801BE
:1013200080919E018823C9F3833009F444C084303E
:1013300009F49BC08A3009F4CFC08B3009F4E3C0B4
:10134000853009F411C1863009F414C1803F09F4D5
:1013500079C0843F09F471C0833F09F426C1853FF9
:1013600009F478C0863F09F42BC1873009F408C11D
:10137000813F09F43CC18C3009F429C18D3009F456
:101380002EC18E3009F471C18F3009F44EC1843101
:1013900009F48CC1803109F47EC1823F09F494C103
:1013A000853109F4C6C1813109F4A9C110929E01A9
:1013B00080929F01B2CFE0919D018FEF8E0F85301B
:1013C000E0F5F0E0EE0FFF1FEE0FFF1FEF5FFE4FA7
:1013D000A081B1814C9181E090E09C01028002C02B
:1013E000220F331F0A94E2F7242B2C93E0919D01E6
:1013F000AE2FA695A695A695B0E0A056BE4F139623
:101400002C9130E04E2F477002C0359527954A95B4
:10141000E2F720FF12C0F0E0EE0FFF1FEE0FFF1FFC
:10142000EB5EFE4FA081B1812C91028002C0880F3B
:10143000991F0A94E2F7822B8C9310929E011092CE
:101440009F016BCF6091940181E090E00E942C0E8F
:101450000E948D036091A20180E390E00E942C0E17
:1014600010929E0110929F0158CFE0919D018FEF45
:101470008E0F853010F7F0E0EE0FFF1FEE0FFF1F0D
:10148000EF5FFE4FA081B1813C9181E090E0AC0123
:10149000028002C0440F551F0A94E2F7242F2095C2
:1014A00023232C93E0919D01F0E0EE0FFF1FEE0F40
:1014B000FF1FEB5EFE4FA081B1812C91028002C024
:1014C000880F991F0A94E2F7809582238C931092DB
:1014D0009E0110929F0121CF20919D018FEF820FDD
:1014E000853008F0AACF81E090E001C0880F2A95EE
:1014F000EAF79091A301892B8093A30110929E019A
:1015000010929F010ACF20919D018FEF820F8530AD
:1015100008F093CFA22FB0E081E090E0AC0102C0D0
:10152000440F551F2A95E2F7342F30952091A301DF
:1015300023232093A301AA0FBB1FAA0FBB1FA75EE3
:10154000BE4FED91FC911197208112960C9002C034
:10155000880F991F0A94E2F7809582238083109266
:101560009E0110929F01D9CE299A10929E0110924D
:101570009F01D3CE299810929E0110929F01CDCE4B
:1015800090919D019A3018F4C0929D019AE02C9A96
:10159000992339F080E0F8013197F1F78F5F9813C4
:1015A000FACF2C9810929E01B8CE6091940181E000
:1015B00090E00E942C0E10929E0110929F01ADCEE1
:1015C0000E948D0310929E0110929F01A6CE289A30
:1015D000D093A00110929E0110929F019ECE289858
:1015E0001092A00110929E0110929F0196CE64E18C
:1015F00081E090E00E942C0E61E082E090E00E9489
:101600002C0E61E082E090E00E942C0E6FEF80E1F2
:1016100090E00E942C0E60E080E390E00E942C0E8F
:1016200010929E0110929F0178CEE0919D018FEF64
:101630008E0F853008F041C0F0E0EE0FFF1FEE0F77
:10164000FF1FEB5EFE4FA081B1818C9190E0028084
:1016500002C0959587950A94E2F7817080939D0169
:1016600010929E0110929F0158CE0FB6F894A89543
:10167000A09260000FBEB09260005FEB84ED91E03D
:10168000515080409040E1F700C0000010929E0150
:1016900010929F0142CE80919D01813009F483C058
:1016A0005D9810929E0110929F0137CEC0939D01CC
:1016B00010929E0110929F0130CEC0939D01109216
:1016C0009E01D0929F0129CED0939F0180919D01D0
:1016D000811139C0D0939D01D0939C01C0939B018F
:1016E000C0939A01C0939901C0939801C093970148
:1016F000C093960110929F0110929E010ECEE09130
:101700009D01E63008F4A8C010929E01C093960196
:10171000C0939701C0939801C0939901C0939A0117
:10172000C0939B01C0939C01C0939D01D0939F01E6
:10173000F4CD80919D01882309F4B4C08093940175
:1017400010929F01D9CF813009F459C0823089F1BC
:10175000833091F6E0927C00F0927A0090927C00C7
:1017600080917A00806480937A0080917A0086FD6F
:10177000FCCF80917A00806480937A0080917A0017
:1017800086FDFCCFD0929D018091780080939C01D2
:101790008091790080939B0110929F01E0927C00E0
:1017A000F0927A00A9CF5D9A10929E0110929F014B
:1017B000B4CD80919C01813039F1823009F09CCF09
:1017C000E0927C00F0927A0080917C0087608093A8
:1017D0007C0080917A00806480937A0080917A0006
:1017E00086FDFCCFD0939D018091780080939C0171
:1017F0008091790080939B0110929F017DCFD092C0
:101800009D0110929F0178CFE0927C00F0927A00C7
:1018100080917C00887F866080937C0080917A0034
:10182000806480937A0080917A0086FDFCCFD0930B
:101830009D018091780080939C0190917900909314
:101840009B0110929F01B9CF8093A1014298F8CCDF
:101850008093A001289AEACCF0E0EE0FFF1FEE0F74
:10186000FF1FEE0FFF1FE35DFE4F878180939D01F9
:10187000868180939C01858180939B0184818093E4
:101880009A0183818093990182818093980181815B
:101890008093970180818093960110929E0110920F
:1018A0009F013BCDD0939F0127CF2F923F924F9224
:1018B0005F926F927F928F929F92AF92BF92CF92E0
:1018C000DF92EF92FF920F931F93CF93DF93CDB7E9
:1018D000DEB7CA1BDB0B0FB6F894DEBF0FBECDBF61
:1018E00009942A88398848885F846E847D848C8432
:1018F0009B84AA84B984C884DF80EE80FD800C813B
:101900001B81AA81B981CE0FD11D0FB6F894DEBF1D
:101910000FBECDBFED010895283008F027E0332732
:10192000DA01990F311D87FD9160009661057105FF
:1019300039F432602E5F3D9330E32A95E1F7089544
:101940009F3F30F080387105610509F03C5F3C5FD6
:101950003D93913008F08068911DDF93CF931F93E2
:101960000F93FF92EF92192F987F9695E92F9695F6
:101970009695E90FFF27E653FF4F99273327EE246B
:10198000FF24A701E70105900894079428F4360F77
:10199000E71EF81E491F511D660F771F881F991FEC
:1019A0000694A1F70590079428F4E70EF81E491F46
:1019B000561FC11D770F881F991F661F0694A1F738
:1019C0000590079428F4F80E491F561FC71FD11D14
:1019D000880F991F661F771F0694A1F7059007943B
:1019E00020F4490F561FC71FD81F990F661F771F76
:1019F000881F0694A9F784911095177041F0D69529
:101A0000C79557954795F794E7941A95C1F7E0E77E
:101A1000F0E0689415901591359165919591059038
:101A20007FE27395E118F10A430B560BC90BD009FD
:101A3000C0F7E10CF11E431F561FC91FD01D7EF4D5
:101A4000703311F48A95E6CFE894015030F0080F16
:101A50000AF40027021708F4202F2395022F7A3367
:101A600028F079E37D932A95E9F710C07D932A95B4
:101A700089F6069497956795379517951794E11809
:101A8000F10A430B560BC90BD00998F023957E91B0
:101A900073957A3308F070E37C932013B8F77E9146
:101AA00070617D9330F0839571E37D9370E32A95A7
:101AB000E1F71124EF90FF900F911F91CF91DF91EB
:101AC000992787FD90950895FB01DC0102C00590E0
:101AD0000D9241505040D8F70895FC010590615097
:101AE00070400110D8F7809590958E0F9F1F089534
:101AF000DC0101C06D9341505040E0F70895FC01B6
:101B00006150704001900110D8F7809590958E0F2C
:101B10009F1F08950F931F93CF93DF93FB012381A2
:101B200021FD03C08FEF9FEF2CC022FF16C046811E
:101B30005781248135814217530744F4A081B18134
:101B40009D012F5F3F4F318320838C932681378106
:101B50002F5F3F4F3783268314C08B01EC01FB01BD
:101B60000084F185E02D0995892BE1F6D8011696C0
:101B70008D919C911797019617969C938E9316972B
:101B8000CE01DF91CF911F910F910895FA01AA27FD
:101B9000283051F1203181F1E8946F936E7F6E5FB0
:101BA0007F4F8F4F9F4FAF4FB1E03ED0B4E03CD05E
:101BB000670F781F891F9A1FA11D680F791F8A1F41
:101BC000911DA11D6A0F711D811D911DA11D20D0A8
:101BD00009F468943F912AE0269F11243019305D62
:101BE0003193DEF6CF010895462F4770405D419353
:101BF000B3E00FD0C9F7F6CF462F4F70405D4A33A0
:101C000018F0495D31FD4052419302D0A9F7EACF67
:101C1000B4E0A6959795879577956795BA95C9F796
:101C200000976105710508959B01AC010A2E069489
:101C30005795479537952795BA95C9F7620F731F42
:101C4000841F951FA01D0895F999FECF92BD81BDF7
:101C5000F89A992780B50895262FF999FECF1FBAD3
:101C600092BD81BD20BD0FB6F894FA9AF99A0FBEC5
:081C700001960895F894FFCFDE
:101C7800FF5A010A002B0007002B0006002B000466
:101C880000280005002800040025000200250005A2
:101C9800002800030028000000280001000401FFBC
:101CA800FFFFFFFFFF01FFFFFFFFFFFFFF02FFFF37
:101CB800FFFFFFFFFF03FFFFFFFFFFFFFF0402FF20
:0E1CC800FFFFFFFFFF0404FFFFFFFFFFFF0011
:00000001FF
