:100000000C94E9000C9460020C9406010C94060117
:100010000C9406010C9406010C9406010C94060144
:100020000C9406010C9406010C9406010C94060134
:100030000C9406010C9406010C9406010C94060124
:100040000C9406010C9406010C9406010C94060114
:100050000C9406010C9406010C9406010C94060104
:100060000C9406010C9406016E616E00696E6600C8
:1000700000407A10F35A00A0724E18090010A5D45F
:10008000E80000E87648170000E40B54020000CABC
:100090009A3B000000E1F505000080969800000002
:1000A00040420F000000A086010000001027000061
:1000B0000000E803000000006400000000000A00E7
:1000C000000000000100000000002C76D888DC67EA
:1000D0004F0823DFC1DFAE59E1B1B796E5E3E45342
:1000E000C63AE651997696E8E6C28426EB898C9B5F
:1000F00062ED407C6FFCEFBC9C9F40F2BAA56FA5FF
:10010000F490055A2AF75C936B6CF9676DC11BFC80
:10011000E0E40D47FEF520E6B500D0ED902E03009B
:10012000943577050080841E080000204E0A0000E8
:1001300000C80C333333330F986E12831141EF8DA7
:100140002114893BE65516CFFEE6DB18D1844B38E7
:100150001BF77C1D901DA4BBE424203284725E2218
:100160008100C9F124ECA1E53D270902120001013B
:1001700000C0050904000000000000001201100189
:10018000FF000008713111000501010200011A038E
:1001900043006C007500730074006500720020005D
:1001A0004300540052004C00220338003000380055
:1001B0003600200043006F006E00730075006C0075
:1001C000740061006E0063007900040309040100FB
:1001D000FF8E11241FBECFEFD8E0DEBFCDBF12E0EF
:1001E000A0E0B1E0EEE6F4E202C005900D92A0318D
:1001F000B107D9F722E0A0E1B2E001C01D92AC390D
:10020000B207E1F70E94E10C0C9435120C94000047
:10021000CF93DF9360912B02635067FD14C0209150
:1002200028028CE090E0821B9109EC01C15DDD4F5A
:10023000809127028D3209F452C08091260287FDF9
:1002400099C010922B028091010184FF3BC0C091A4
:100250000001CF3FB9F1C93008F46FC088EF8C0FAF
:100260008093000190911A0288E8892780931A02EE
:10027000C8E08091260287FDA7C020912902309115
:100280002A0286FF6EC0ABE1B2E0F9018C2F949197
:100290009D9331968150D9F78FEF8C0F90E00196A6
:1002A000280F391F30932A02209329026C2F8BE1EB
:1002B00092E00E945C0284E08C0F8C3009F04DC00B
:1002C0008093010194E189B18C7031F49150D9F798
:1002D00010922C0210922502DF91CF910895683080
:1002E00009F0AFCF83EC80931A028AE58093010175
:1002F000109226028881982F907609F046C02A81B4
:1003000010922302998191114CC08F7119F481E0F0
:10031000809323021092240223E232E082E03093A1
:100320002A02209329029F81911104C09E8198176F
:1003300008F4892F8093000184CF109200019091DE
:100340001A0288E8892780931A02C11192CF60E0CF
:100350008BE192E00E945C0284E09FEF90930001A9
:10036000AFCFD901EBE1F2E08C2F9D9191938150B9
:10037000E1F792CFCE010E941C068F3F09F188233E
:1003800009F45FCF109200015CCFCE010E94FA0405
:100390008F3F49F6988197FD2DC090E890932602F3
:1003A000C9CF953009F1963039F1983089F19930FB
:1003B00099F181E09A3009F080E023E232E0AFCF9A
:1003C0008EE1809301013DCF6C2F8BE192E00E9482
:1003D0007405C82F893008F469CF8FEF809300012E
:1003E0008EE1809301016ECF20932C0223E232E054
:1003F00080E095CF8E81D1CF8B818130D9F0823052
:1004000089F08330F9F080E090E4909326028BCF5E
:100410002EE232E081E083CF20932E0223E232E00D
:1004200080E07DCF8AE691E090932A0280932902B2
:1004300082E1EACF8CE791E090932A02809329022F
:1004400082E1E2CF211108C08AEC91E090932A0268
:100450008093290284E0D8CF213051F0223099F6E0
:100460008EE891E090932A02809329028AE1CCCF12
:1004700088EA91E090932A028093290282E2C4CF15
:10048000E9E6F0E0808183608083E89A0895A82FF0
:10049000B92F80E090E041E050EA609530E009C07B
:1004A0002D9182279795879510F084279527305EA8
:1004B000C8F36F5FA8F30895EADF8D939D930895C5
:1004C000CF93CFB7CF93C3954B9BE9F74B9B09C015
:1004D0004B9B07C04B9B05C04B9B03C04B9B01C074
:1004E000A1C0DF93C0912802DD27C15DDD4F4B9B8A
:1004F00002C0DF91EBCF2F930F931F9309B12FEF22
:1005000003FB20F94F933F9319B14FEF012703FBF2
:1005100021F93BE031C04E7F012F19B1216028C085
:10052000102F4D7F2260000009B129C04B7F24604D
:10053000012F000019B12BC019B1477F28602AC0D4
:100540004F7E09B120612CC04F7D19B120622FC0B0
:100550004F7B09B1206432C0422709B149934FEF64
:100560000000102713FB20F919B11C70C9F1297F75
:1005700091F2012703FB21F909B1237F89F2315060
:1005800058F1102713FB22F919B1277E79F20127C0
:1005900003FB23F92F7C81F209B1102713FB24F907
:1005A0002F7971F200C019B1012703FB25F92F73D0
:1005B00059F200C009B1102713FB26F9223040F28E
:1005C00000C019B1012703FB27F9243028F64F7723
:1005D000206819B10000F9CF11E01CBB002717C03B
:1005E0003B503195C31BD04011E01CBB0881033C3C
:1005F000E9F00B34D9F0209125021981110F121363
:10060000EDCF093641F10D3211F0013E39F700937B
:100610002D023F914F911F910F912F91DF91CCB3FC
:10062000C0FD51CFCF91CFBFCF91189520912D0212
:10063000222379F310912B02112311F5343012F19A
:1006400030932B0220932702109128023BE0311BAC
:100650003093280217C000912B0201308CF40AE578
:100660003091010134FD10C000930101CAE1D2E0D4
:100670000FC02795A8F45150A9F4220F0000F9CF1C
:100680004AE503C042ED01C0432FC4E1D0E032E0AF
:100690001AB11C605B9A1AB90BB120E41CE05F939D
:1006A000012756E00BB9279520F4515021F4220F71
:1006B000F9CF012756E000003B5A0BB9D0F227953D
:1006C00028F4515029F4220F0000F9CF012756E0F9
:1006D00027950BB920F4515021F4220FF9CF0127AF
:1006E00056E0299133230BB921F6037F10912C0298
:1006F000110FC651D0400BB911F01093250211E033
:100700001CBB08601AB1137F402F437F5F9100C06C
:1007100000C00BB91AB94BB97CCF809103019091FD
:1007200004010197F1F73D98459A359BFECF8091E2
:100730000501909106010197F1F7809103019091D5
:1007400004010197F1F73D9A459880910501909138
:1007500006010197F1F708952A9A3C9A44988091EE
:100760000301909104010197F1F73D9A459880911A
:100770000501909106010197F1F708950F931F93DA
:10078000CF93DF93809153028130C1F060E082E02B
:1007900090E00E94271208E512E0C0E1D0E0F801E5
:1007A00061918F01CE010E9427122196C431D1059B
:1007B000B1F7DF91CF911F910F91089561E082E031
:1007C00090E00E942712E7CF3C98449A08953C9A03
:1007D000449880910301909104010197F1F73D98AD
:1007E000459A359BFECF80910501909106010197B6
:1007F000F1F70E94E4032A9808950F931F93CF9373
:10080000DF93082F10E0C7E0D0E006C03C9A449880
:100810000E948D03219778F098010C2E02C0359527
:1008200027950A94E2F720FFF1CF0E94E4030E948B
:100830008D03219788F70E94E40380910301909132
:1008400004010197F1F73D98459A359BFECF8091C1
:100850000501909106010197F1F786B1E09103013E
:10086000F09104013197F1F73D9A4598E091050127
:10087000F09106013197F1F78295817091E0892717
:10088000DF91CF911F910F9108951F93CF93DF9325
:10089000182FD62FC42F0E94AC03812F880F0E94DF
:1008A000FD038D2F0E94FD038C2F0E94FD03DF911D
:1008B000CF911F910C94E703CF93DF93D82F0E9421
:1008C000E40380910301909104010197F1F73D9AAF
:1008D000459880910501909106010197F1F728E074
:1008E000C0E080910301909104010197F1F73D98D8
:1008F000459A359BFECF80910501909106010197A5
:10090000F1F7CC0F3499C1608091030190910401FB
:100910000197F1F73D9A4598809105019091060164
:100920000197F1F72150E9F6D1110AC03C9A449899
:100930000E948D030E94E4038C2FDF91CF910895D4
:100940000E94E4030E948D030E94E4038C2FDF9138
:10095000CF910895CF93C82F0E94AC038C2F880F9E
:1009600081600E94FD0381E00E945C04C82F0E9408
:10097000E7038C2FCF910895CF93C82F0E94AC032B
:100980008C2F880F0E94FD03C82F0E94E7038C2F35
:10099000CF910895CF930E94AC0381EE0E94FD0396
:1009A00081E00E945C04C82F0E94E7038C2FCF9146
:1009B0000895CF93C82F0E94AC0380EE0E94FD03E0
:1009C00081E001C0880FCA95EAF70E94FD030E94EA
:1009D000E7032FE789EA93E0215080409040E1F758
:1009E00000C00000CF910C94CA04883008F008952C
:1009F0000C94D904FC0181E192E090932A02809347
:100A000029029181923009F447C070F49923E1F1F1
:100A1000913009F544E050E06EEC71E081E192E044
:100A20000E945F1184E00895933041F1983098F46A
:100A300084819581809789F081E026813781232BFD
:100A4000D9F08195089596958795909304018093A8
:100A50000301892B79F180E0089580915002882369
:100A600089F1828180FD2EC082E08093150226816B
:100A7000378181E0232B29F780E0E3CF80911502B5
:100A80008093110281E00895828180931102838115
:100A90008093120282E008958281938190930601EF
:100AA00080930501009779F681E090E0909306012C
:100AB0008093050181E090E090930401809303010D
:100AC00080E0089581E080931502809302012681E1
:100AD0003781309319022093180280E290E09093BE
:100AE000170280931602C5CFCF93DF93FC01C62F68
:100AF00080911502813059F0462F50E060E070E09F
:100B0000CF010E9473118C2FDF91CF9108956091D6
:100B10001802709119022C2F30E06217730708F445
:100B2000C62F20911602309117022032310559F755
:100B3000CC2349F390911002AFEFAC0FB0E09D01D0
:100B40002F5F3F4F2E0F3F1FDFEF50E242E00AC002
:100B50004083909110029F5F909310023196E217AC
:100B6000F30761F19923A1F3913011F1923011F162
:100B7000933081F1943091F1953091F19630A1F15B
:100B80009730D1F19830E1F1993091F19A30E1F15B
:100B90009B30F1F19C3009F43FC09D3009F440C016
:100BA0009E3009F441C0903209F442C0D083D1CFC5
:100BB0005083CFCF909146029083CBCFCB0101974A
:100BC0008A1B9B0B90931902809318028C2FDF9144
:100BD000CF910895809147028083BBCF1082B9CF17
:100BE000809148028083B5CF809149028083B1CF44
:100BF00080914C028083ADCF80914A028083A9CF3F
:100C000080914B028083A5CF80914D028083A1CF3C
:100C100080914E0280839DCF80914F02808399CF37
:100C200080915002808395CF80915102808391CF33
:100C30008091520280838DCFCF93FC01C62F80918B
:100C40001502813051F0462F50E060E070E0CF0196
:100C50000E9473118C2FCF910895409118025091EA
:100C60001902862F90E04817590708F051C0842FC9
:100C700020911602309117022032310561F79091D0
:100C80000201913009F468C0CC2329F3909110023D
:100C9000C1506C2F70E09B012F5F3F4F2E0F3F1F05
:100CA000B1E0923020F19230A9F1933009F444C0C0
:100CB0009430E9F0953009F44BC0963009F453C0F4
:100CC000973009F458C0983009F459C0993009F4A4
:100CD0004EC09A3009F457C09B3009F458C09C307C
:100CE00009F459C09D3019F4A081A09350023196A7
:100CF0009F5F90931002E217F30799F64150510954
:100D0000461B570B5093190240931802CF91089538
:100D1000862FAECFA081A11104C0B08390911002A4
:100D2000A1E0A093460231969F5F90931002E217D4
:100D3000F30709F0B6CFE2CFA081A0934702319626
:100D40009F5F90931002E217F30709F0AACFD6CF66
:100D5000A081A0934802CBCF908190931002CFEF57
:100D6000C80F319691CFA081A0934902C0CFA08136
:100D7000A0934C02BCCFA081A0934A02B8CFA0811F
:100D8000A0934B02B4CFA081A0934D02B0CFA0811D
:100D9000A0934E02ACCFA081A0934F02A8CF2F9278
:100DA0003F924F925F926F927F928F929F92AF92FB
:100DB000BF92CF92DF92EF92FF920F931F93CF9348
:100DC000DF93CDB7DEB72D970FB6F894DEBF0FBE19
:100DD000CDBF0E94CA042CE532E000E010E0212CD7
:100DE00040E2E42EF12CCC24C394D12C3C832B8301
:100DF000A82E0FC0A8950E9408010F5F1F4F2B81DE
:100E00003C81285F3F4F3C832B830830110509F458
:100E10008FC1EB81FC8110821782F682E582802FE0
:100E20000E94D904A8950E94AC0380EA0E94FD03A9
:100E3000982E0E94E7039920E9F20E94AC0380EA11
:100E40000E94FD0380E00E94FD0380E00E94FD03FC
:100E50000E94E7030E94AC0381EA0E94FD0381E047
:100E60000E945C04982E0E94E703F2E59F12C2CF15
:100E70000E94AC0381EA0E94FD0381E00E945C04B1
:100E8000982E0E94E7032DE29212B4CF0E94AC0389
:100E900081EA0E94FD0381E00E945C04982E0E947A
:100EA000E70330E59312A6CF0E94AC0381EA0E94CB
:100EB000FD0381E00E945C04982E0E94E70389E60E
:100EC000981298CF0E94AC0381EA0E94FD0381E052
:100ED0000E945C04982E0E94E70391E099128ACF49
:100EE0000E94AC0381EA0E94FD0381E00E945C0441
:100EF0000E94E7030E94AC0381EA0E94FD0381E0A7
:100F00000E945C04882E0E94E703912C0E94AC038F
:100F100081EA0E94FD0381E00E945C04782E0E9419
:100F2000E703872D90E0982F8827FC01E80DF91D35
:100F3000FC87EB870E94AC0381EA0E94FD0381E0FD
:100F40000E945C040E94E7030E94AC0381EA0E94B5
:100F5000FD0381E00E945C040E94E7030E94AC0351
:100F600081EA0E94FD0381E00E945C040E94E70385
:100F70000E94AC0381EA0E94FD0381E00E945C04B0
:100F80000E94E7032B853C85232B09F433CF1A827B
:100F900019822D82AE8218870F830D87DA86C98663
:100FA0000E94AC0381EA0E94FD0381E00E945C0480
:100FB000882E0E94E703912C0E94AC0381EA0E94D4
:100FC000FD0381E00E945C04582E0E94E703852DFA
:100FD00090E0982F8827880E991E0E94AC0381EA22
:100FE0000E94FD0381E00E945C04482E0E94E703FA
:100FF000512C0E94AC0381EA0E94FD0381E00E9413
:101000005C04382E0E94E703832D90E0982F8827F8
:10101000840D951DE981FA81E817F90709F081C06F
:101020000E94AC0381EA0E94FD0381E00E945C04FF
:10103000282E0E94E703A22CB12CC12CD12C0E9497
:10104000AC0381EA0E94FD0381E00E945C04282E2B
:101050000E94E7030E94AC0381EA0E94FD0381E045
:101060000E945C04582E0E94E703422D50E060E08D
:1010700070E0762F652F542F4427852D90E0A0E057
:10108000B0E0DC0199278827840F951FA61FB71FA2
:101090002C013D014A0C5B1C6C1C7D1C0E94AC03A6
:1010A00081EA0E94FD0381E00E945C04182F0E94E7
:1010B000E703812F90E0A0E0B0E0B82FAA2799279E
:1010C0008827480E591E6A1E7B1E8A94892809F4B7
:1010D00051C04114510461047104B9F0812C912C68
:1010E00054010E94AC0381EA0E94FD0381E00E944A
:1010F0005C040E94E703FFEF8F1A9F0AAF0ABF0A42
:10110000481459046A047B0461F729813A812F5FEE
:101110003F4F3A8329838B859C858217930709F07B
:101120003FCF2D80AE800F811885C984DA8462CECE
:101130002092520237E03A1518F08A2D0E94D90405
:10114000822D2D960FB6F894DEBF0FBECDBFDF9176
:10115000CF911F910F91FF90EF90DF90CF90BF90B4
:10116000AF909F908F907F906F905F904F903F9047
:101170002F9008952D80AE800F811885BD84C9847D
:10118000DA84812C912C0E94AC0381EA0E94FD0339
:1011900081E00E945C040E94E7039FEF891A990A8C
:1011A000E0E18E16910479F70E94AC0381EA0E9477
:1011B000FD0381E00E945C04882E0E94E703912CCD
:1011C0000E94AC0381EA0E94FD0381E00E945C045E
:1011D000782E0E94E703872D90E0982F8827880DAE
:1011E000991D049709F006CE0E94AC0381EA0E9483
:1011F000FD0381E00E945C04982E0E94E703692CA5
:10120000712C0E94AC0381EA0E94FD0381E00E94E0
:101210005C04882E0E94E7038110ECCD892D8F702D
:10122000282F30E0EB81FC81348323837294629415
:101230009FE0692267247922672472826182F1E04B
:101240006F16710489F132E063167104B1F1EB811C
:10125000FC8195800E94AC03892D880F0E94FD03BC
:10126000982E0E94E703992009F4C4CDEB81FC81FC
:101270008781882301F140E161E0EB81FC81858178
:101280000E94450440E063E0EB81FC8185810E947F
:10129000450481E0EB81FC818083C60101C0880F99
:1012A000BA94EAF7282AA6CD21E230E0EB81FC814E
:1012B00036832583CCCF40E3DFCF882341F281E022
:1012C000EB81FC818783C3CFA0E1B0E0EAE6F9E0DF
:1012D0000C9450107C011B016A01FC0117821682DC
:1012E000838181FF44C39E012F5F3F4F3901F70186
:1012F0009381F10193FD859193FF81911F018823D3
:1013000009F431C3853239F493FD859193FF8191BE
:101310001F01853239F4B70190E00E948511560112
:101320006501E5CF10E0512C912CFFE1F915D8F0C3
:101330008B3279F038F4803279F08332A1F4F92DD0
:10134000F0612EC08D3261F0803369F4292D216067
:101350002DC0392D3260932E892D8460982E2AC09D
:10136000E92DE86015C097FC2DC020ED280F2A302C
:1013700088F496FE06C03AE0139F200D1124122F28
:1013800019C08AE0589E200D1124522EE92DE062EA
:101390009E2E10C08E3231F496FCE5C2F92DF06419
:1013A0009F2E08C08C3621F4292D2068922E02C071
:1013B000883641F4F10193FD859193FF81911F01DE
:1013C0008111B3CF9BEB980F933020F4992D90614E
:1013D000805E07C09BE9980F933008F066C1992D95
:1013E0009F7E96FF16E09F73992E853619F49064C0
:1013F000992E08C0863621F4392F3068932E02C00A
:101400001111115097FE07C01C3350F4442443942B
:10141000410E27E00BC0183038F027E017E005C078
:1014200027E09CE3492E02C0212F412C560184E085
:10143000A80EB11CF6016081718182819381042D17
:10144000A3010E9487106C01F981FC87F0FF02C0A4
:10145000F3FF06C091FC06C092FE06C000E205C084
:101460000DE203C00BE201C000E08C858C7019F026
:1014700001115AC29BC297FE10C04C0CFC85F4FFB0
:1014800004C08A81813309F44A94141474F528E065
:10149000241578F588E0482E2CC096FC2AC0812FB0
:1014A00090E08C159D059CF03CEFC3163FEFD306F2
:1014B00074F0892D8068982E0AC0E2E0F0E0EC0F0D
:1014C000FD1FE10FF11D8081803319F411501111BE
:1014D000F4CF97FE0EC044244394410E812F90E038
:1014E000C816D9062CF41C1904C04424439401C026
:1014F00010E097FE06C01C141D0434F4C6010196CA
:1015000005C085E090E002C081E090E00111019605
:10151000112331F0212F30E02F5F3F4F820F931FB7
:10152000252D30E08217930714F4581A01C0512C6E
:10153000892D897049F4552039F0B70180E290E097
:101540000E9485115A94F7CF002329F0B701802F0C
:1015500090E00E94851193FC09C0552039F0B70135
:1015600080E390E00E9485115A94F7CF97FE4CC01B
:101570004601D7FE02C0812C912CC6018819990919
:10158000F301E80FF91FFE87ED8796012419310951
:10159000388B2F87012F10E01195019511093FEF2E
:1015A0008316930629F4B7018EE290E00E9485111C
:1015B000C814D9044CF08F8598898815990524F4AE
:1015C000ED85FE85818101C080E3F1E08F1A9108ED
:1015D0002D853E852F5F3F4F3E872D8780169106D4
:1015E0002CF0B70190E00E948511D9CFC814D9041E
:1015F00041F49A81963320F4953319F43C8534FFF5
:1016000081E3B70190E04EC08A81813319F09C8557
:101610009F7E9C87B70190E00E948511111105C043
:1016200094FC18C085E690E017C0B7018EE290E008
:101630000E9485111E5F82E001E0080FF301E80FB0
:10164000F11D8081B70190E00E948511802F011368
:10165000F3CFE6CF85E490E0B7010E948511D7FC77
:1016600006C0C114D10441F4EC85E4FF05C0D19457
:10167000C194D1088DE201C08BE2B70190E00E94D5
:10168000851180E32AE0C216D1042CF08F5FFAE0C6
:10169000CF1AD108F7CFB70190E00E948511B701AA
:1016A000C601C0960E94851154C1833631F083373C
:1016B00079F0833509F056C020C0560132E0A30E00
:1016C000B11CF6018081898301E010E0630112C042
:1016D0005601F2E0AF0EB11CF601C080D18096FE3B
:1016E00003C0612F70E002C06FEF7FEFC6010E9460
:1016F0007A118C01F92DFF7714C0560122E0A20E59
:10170000B11CF601C080D18096FE03C0612F70E04D
:1017100002C06FEF7FEFC6010E9468118C01F92DA6
:10172000F0689F2EF3FD1AC0852D90E00817190769
:10173000A8F4B70180E290E00E9485115A94F4CF9A
:10174000F60197FC859197FE81916F01B70190E0BA
:101750000E94851151105A9401501109011511056B
:1017600079F7F7C0843611F0893661F5560197FE96
:1017700009C024E0A20EB11CF60160817181828152
:1017800093810AC0F2E0AF0EB11CF6016081718155
:10179000072E000C880B990BF92DFF769F2E97FFD3
:1017A00009C090958095709561957F4F8F4F9F4FA1
:1017B000F0689F2E2AE030E0A3010E94C111C82EDC
:1017C000C6183FC0092D853721F40F7E2AE030E08E
:1017D0001DC0097F8F3691F018F4883559F0C3C0C9
:1017E000803719F0883711F0BEC0006104FF09C0CE
:1017F000046007C094FE08C0066006C028E030E020
:1018000005C020E130E002C020E132E0560107FFD0
:1018100009C084E0A80EB11CF6016081718182814B
:10182000938108C0F2E0AF0EB11CF60160817181B6
:1018300080E090E0A3010E94C111C82EC6180F7766
:10184000902E96FE0BC0092D0E7FC11650F494FE0B
:101850000AC092FC08C0092D0E7E05C0DC2C092DA3
:1018600003C0DC2C01C0D12E04FF0DC0FE01EC0D25
:10187000F11D8081803311F4097E09C002FF06C08A
:10188000D394D39404C0802F867809F0D39403FDB9
:1018900011C000FF06C01C2DD51480F4150D1D19B4
:1018A0000DC0D51458F4B70180E290E00E94851174
:1018B000D394F7CFD51410F45D1801C0512C04FF58
:1018C00010C0B70180E390E00E94851102FF17C0AD
:1018D00001FD03C088E790E002C088E590E0B70111
:1018E0000CC0802F867859F001FF02C08BE201C046
:1018F00080E207FD8DE2B70190E00E948511C116DC
:1019000038F4B70180E390E00E9485111150F7CFC1
:10191000CA94F301EC0DF11D8081B70190E00E94A3
:101920008511C110F5CF15C0F4E0F51560F584E020
:10193000581A93FE1FC0011127C02C8523FF2AC00F
:1019400008E610E0392D3071932EF8018491811151
:1019500024C0552009F4E4CCB70180E290E00E9455
:1019600085115A94F6CFF7018681978126C08FEFB3
:101970009FEF23C0B70180E290E00E9485115A9446
:101980005110F8CFD8CF512CB701802F90E00E9492
:101990008511D3CF0CE610E0D5CF91108052B7015E
:1019A00090E00E9485110F5F1F4FCFCF23E02515D8
:1019B00010F483E0BDCF512CC0CF6096E2E10C94CF
:1019C0006C1099E288E10FB6F894A89580936000B6
:1019D0000FBE90936000109252023C98449A3D983A
:1019E000459A109219021092180284B18F6384B93B
:1019F00087B18F6387B98AB1806F8AB95E9A5D9A21
:101A00002A9881E090E00E941F128093460282E0B3
:101A100090E00E941F12813009F48CC01092530292
:101A2000299804E512E0C0E1D0E0CE010E941F1227
:101A3000F8018483CE0180960E941F12F8018193E1
:101A40008F012196C431D10581F70E94CF068BB159
:101A5000837F8BB98AB18C608AB980E49CE9019755
:101A6000F1F78AB1837F8AB90E944002789423E01B
:101A7000322EFF24FA94EE24E39430E4732E47E8E8
:101A8000842E58EC452E62E0962EC1E0D0E078E13D
:101A9000572EE8E06E2EF0E4AF2EFCE9BF2EA8959D
:101AA0000E940801809150028823C9F3833009F411
:101AB0006AC0843009F4ADC08A3009F4E1C08B30CB
:101AC00009F406C1853009F42CC1863009F450C1EF
:101AD000803F09F48BC1843F09F450C0833F09F46F
:101AE000B5C1853F09F46CC1863F09F4BAC187309E
:101AF00009F49AC1813F09F4CBC18C3009F4B8C113
:101B00008D3009F4BDC18E3009F412C28F3009F452
:101B1000E3C1843109F4FEC1823F09F41FC285315B
:101B200009F437C2813109F475C210925002309223
:101B30005102B5CF80935302299A73CF0E94D904E2
:101B4000E0914F02E695E695F0E0EE0FFF1FEE0FF5
:101B5000FF1FEE0FFF1FE45AFD4F85810E94AA046C
:101B600090914F0293709E0101C0220F9A95EAF75F
:101B7000822391E009F490E090934F02109250027A
:101B8000109251028CCF80914F0281508032B0F779
:101B900080934F0286958695E82FF0E0EE0FFF1FA9
:101BA000EE0FFF1FEE0FFF1FE45AFD4F90819130A3
:101BB00029F70E94D904E0914F02E695E695F0E0FE
:101BC000EE0FFF1FEE0FFF1FEE0FFF1FE45AFD4F3A
:101BD00085810E94AA04E0914F029E2F9370AE016E
:101BE00001C0440F9A95EAF7482BE695E695F0E098
:101BF000EE0FFF1FEE0FFF1FEE0FFF1FE45AFD4F0A
:101C000061E085810E9445041092500210925102B9
:101C100046CF80914F028150803208F0AFCF809341
:101C20004F0286958695E82FF0E0EE0FFF1FEE0F2E
:101C3000FF1FEE0FFF1FE45AFD4F9081913009F016
:101C40009DCF0E94D904E0914F02E695E695F0E021
:101C5000EE0FFF1FEE0FFF1FEE0FFF1FE45AFD4FA9
:101C600085810E94AA04E0914F029E2F93709E01ED
:101C700001C0220F9A95EAF72095422F4823B5CF4D
:101C800080914F02811153C0E0925302299A80E063
:101C900090E0FC01F595E795F595E795F595E795C5
:101CA000ED5AFD4F9C0127703327AE0102C0440F4F
:101CB000551F2A95E2F79A013581232B258301963A
:101CC0008032910531F71092500210925102E7CE06
:101CD00080914F02811152C010925302299880E0E6
:101CE00090E0FC01F595E795F595E795F595E79575
:101CF000ED5AFD4F9C0127703327AE0102C0440FFF
:101D0000551F2A95E2F79A012095358123232583D3
:101D100001968032910529F71092500210925102DB
:101D2000BECE2A9A1092500210925102B8CE9FEF66
:101D3000980F903208F022CF90E00197FC01F595C2
:101D4000E795F595E795F595E795ED5AFD4F877081
:101D500099279E0102C0220F331F8A95E2F7C9011D
:101D60009581892B8583109250021092510297CE53
:101D70002A98109250021092510291CE9FEF980F24
:101D8000903208F0FBCE90E00197FC01F595E795C5
:101D9000F595E795F595E795ED5AFD4F87709927ED
:101DA0009E0102C0220F331F8A95E2F7922F909571
:101DB00085818923858310925002109251026FCE43
:101DC00034E5C32E32E0D32E00E310E0F60161913A
:101DD0006F01C8010E9427120F5F1F4F04331105C6
:101DE000A9F7109250021092510259CE609146020A
:101DF00081E090E00E9427120E94BE0344E5C42EB9
:101E000042E0D42E00E310E0F60161916F01C801B9
:101E10000E9427120F5F1F4F04331105A9F710927C
:101E20005002109251023BCE90914F029A3020F412
:101E30008AE080934F029AE080E0F5013197F1F754
:101E40008F5F8917D0F31092500229CE609146021D
:101E500081E090E00E9427121092500210925102ED
:101E60001ECE0E94BE03109250021092510217CE55
:101E7000299AE092530210925002109251020FCE12
:101E8000299810925302109250021092510207CEDC
:101E900064E181E090E00E94271261E082E090E03E
:101EA0000E94271261E082E090E00E94271200E188
:101EB00010E06FEFC8010E94271260E0C801809611
:101EC0000E9427120F5F1F4F0431110591F71092E6
:101ED000500210925102E3CD80914F028150803226
:101EE00000F580934F0286958695E82FF0E0EE0F7F
:101EF000FF1FEE0FFF1FEE0FFF1FE45AFD4F9081F3
:101F0000913009F41BCEF0924F02109250021092C1
:101F10005102C5CDF0924F02109250021092510220
:101F2000BECDF0924F021092500290925102B7CD66
:101F30000FB6F894A895509260000FBE60926000B2
:101F4000FFEB24ED31E0F15020403040E1F700C0DC
:101F500000001092500210925102A1CDE092510265
:101F600080914F02811120C090924F02E0924E0268
:101F7000F0924D02F0924C02F0924B02F0924A0223
:101F8000F0924902F09248021092510210925002CF
:101F900086CD80914F028823C1F180934602109232
:101FA0005102109250027BCD813009F472C083300F
:101FB00009F049CF70927C0080927A0040927C00B8
:101FC00080917A00806480937A0080917A0086FD07
:101FD000FCCF80917A00806480937A0080917A00AF
:101FE00086FDFCCF90924F028091780080934E0244
:101FF0008091790080934D021092510270927C0082
:1020000080927A00109250024ACDE09251021092D2
:10201000500245CDE0914F02E132A8F010925002FB
:10202000F0924802F0924902F0924A02F0924B027A
:10203000F0924C02F0924D02F0924E02F0924F025A
:10204000E09251022CCDF0E0EE0FFF1FEE0FFF1FCC
:10205000EE0FFF1FE95FFE4F878180934F0286815D
:1020600080934E02858180934D02848180934C023F
:10207000838180934B02828180934A028181809385
:1020800049028081809348021092500210925102BE
:1020900006CD10924F021092510210925002FFCCC6
:1020A0002F923F924F925F926F927F928F929F9268
:1020B000AF92BF92CF92DF92EF92FF920F931F9356
:1020C000CF93DF93CDB7DEB7CA1BDB0B0FB6F89407
:1020D000DEBF0FBECDBF09942A88398848885F8447
:1020E0006E847D848C849B84AA84B984C884DF80B8
:1020F000EE80FD800C811B81AA81B981CE0FD11D9C
:102100000FB6F894DEBF0FBECDBFED0108952830A5
:1021100008F027E03327DA01990F311D87FD916020
:1021200000966105710539F432602E5F3D9330E30E
:102130002A95E1F708959F3F30F0803871056105D9
:1021400009F03C5F3C5F3D93913008F08068911D41
:10215000DF93CF931F930F93FF92EF92192F987FE6
:102160009695E92F96959695E90FFF27E653FF4F31
:1021700099273327EE24FF24A701E701059008944F
:10218000079428F4360FE71EF81E491F511D660FED
:10219000771F881F991F0694A1F70590079428F4CC
:1021A000E70EF81E491F561FC11D770F881F991F84
:1021B000661F0694A1F70590079428F4F80E491FAE
:1021C000561FC71FD11D880F991F661F771F0694C2
:1021D000A1F70590079420F4490F561FC71FD81F79
:1021E000990F661F771F881F0694A9F78491109591
:1021F000177041F0D695C79557954795F794E79492
:102200001A95C1F7E0E7F0E06894159015913591C3
:102210006591959105907FE27395E118F10A430B62
:10222000560BC90BD009C0F7E10CF11E431F561F16
:10223000C91FD01D7EF4703311F48A95E6CFE8945F
:10224000015030F0080F0AF40027021708F4202F7D
:102250002395022F7A3328F079E37D932A95E9F7C5
:1022600010C07D932A9589F60694979567953795C2
:1022700017951794E118F10A430B560BC90BD009B7
:1022800098F023957E9173957A3308F070E37C93F0
:102290002013B8F77E9170617D9330F0839571E3E0
:1022A0007D9370E32A95E1F71124EF90FF900F9151
:1022B0001F91CF91DF91992787FD90950895FB019C
:1022C000DC0102C005900D9241505040D8F70895AE
:1022D000FC010590615070400110D8F780959095F1
:1022E0008E0F9F1F0895DC0101C06D934150504037
:1022F000E0F70895FC016150704001900110D8F79B
:10230000809590958E0F9F1F08950F931F93CF93E5
:10231000DF93FB01238121FD03C08FEF9FEF2CC0D2
:1023200022FF16C046815781248135814217530709
:1023300044F4A081B1819D012F5F3F4F3183208301
:102340008C93268137812F5F3F4F3783268314C0BC
:102350008B01EC01FB010084F185E02D0995892BAF
:10236000E1F6D80116968D919C91179701961796D4
:102370009C938E931697CE01DF91CF911F910F9171
:102380000895FA01AA27283051F1203181F1E8940B
:102390006F936E7F6E5F7F4F8F4F9F4FAF4FB1E058
:1023A0003ED0B4E03CD0670F781F891F9A1FA11D53
:1023B000680F791F8A1F911DA11D6A0F711D811D54
:1023C000911DA11D20D009F468943F912AE0269F19
:1023D00011243019305D3193DEF6CF010895462F78
:1023E0004770405D4193B3E00FD0C9F7F6CF462F59
:1023F0004F70405D4A3318F0495D31FD40524193C2
:1024000002D0A9F7EACFB4E0A6959795879577957E
:102410006795BA95C9F700976105710508959B0105
:10242000AC010A2E06945795479537952795BA958E
:10243000C9F7620F731F841F951FA01D0895F99996
:10244000FECF92BD81BDF89A992780B50895262FB9
:10245000F999FECF1FBA92BD81BD20BD0FB6F89489
:0E246000FA9AF99A0FBE01960895F894FFCFEC
:10246E00FF5A0105000A0004FFFFFFFFFFFFFF02F6
:10247E000404FFFFFFFFFF020403FFFFFFFFFF0245
:10248E000402FFFFFFFFFF020401FFFFFFFFFF0239
:10249E000304FFFFFFFFFF020303FFFFFFFFFF0227
:1024AE000302FFFFFFFFFF020301FFFFFFFFFF021B
:1024BE000204FFFFFFFFFF020203FFFFFFFFFF0209
:1024CE000202FFFFFFFFFF020201FFFFFFFFFF02FD
:1024DE000104FFFFFFFFFF020103FFFFFFFFFF02EB
:1024EE000102FFFFFFFFFF020101FFFFFFFFFF01E0
:1024FE000104FFFFFFFFFF010103FFFFFFFFFF01CD
:10250E000102FFFFFFFFFF010101FFFFFFFFFF01C0
:10251E000204FFFFFFFFFF010203FFFFFFFFFF01AA
:10252E000202FFFFFFFFFF010201FFFFFFFFFF019E
:10253E000304FFFFFFFFFF010303FFFFFFFFFF0188
:10254E000302FFFFFFFFFF010301FFFFFFFFFF017C
:10255E000404FFFFFFFFFF010403FFFFFFFFFF0166
:10256E000402FFFFFFFFFF010401FFFFFFFFFF005B
:00000001FF
