:1000000048C062C0B5C160C05FC05EC05DC05CC0BA
:100010005BC05AC059C058C057C056C055C054C024
:1000200053C052C051C050C04FC00902120001015C
:1000300000C00509040000000000000012011001CA
:10004000FF000008713112000501010200011A03CE
:1000500043006C007500730074006500720020009E
:100060004300540052004C00220338003000380096
:100070003600200043006F006E00730075006C00B6
:10008000740061006E00630079000403090401003C
:10009000FF8E11241FBECFE5D1E0DEBFCDBF10E043
:1000A000A0E6B0E0E8E5FEE002C005900D92AE37B4
:1000B000B107D9F720E0AEE7B0E001C01D92A33C44
:1000C000B207E1F748D4C6C69BCFCF93DF936091C8
:1000D0009900635067FD14C0209196008CE090E079
:1000E000821B9109EC01C356DF4F809195008D3240
:1000F00009F451C08091940087FD97C01092990037
:100100008091610084FF3AC0C0916000CF3FB1F19F
:10011000C93008F46EC088EF8C0F80936000909116
:10012000880088E8892780938800C8E0809194003F
:1001300087FDA3C0209197003091980086FF6CC086
:10014000A9E8B0E0F9018C2F94919D9331968150EC
:10015000D9F78FEF8C0F90E00196280F391F30935D
:100160009800209397006C2F89E890E0FDD084E000
:100170008C0F8C3009F04CC08093610094E180B307
:10018000887131F49150D9F710929A00109293002F
:10019000DF91CF910895683009F0B0CF83EC809360
:1001A00088008AE580936100109294008881982FDE
:1001B000907609F044C02A811092910099819111A2
:1001C00049C08F7119F481E08093910010929200E0
:1001D00021E930E082E030939800209397009F81DE
:1001E000911104C09E81981708F4892F80936000B4
:1001F00085CF109260009091880088E889278093CD
:100200008800C11193CF60E089E890E0ADD084E030
:100210009FEF90936000B0CFD901E9E8F0E08C2F18
:100220009D9191938150E1F794CFCE01E2D28F3F1F
:1002300001F1882309F462CF109260005FCFCE01F4
:10024000DAD18F3F61F6988197FD2CC090E89093AA
:100250009400CCCF953001F1963031F1983081F196
:10026000993091F181E09A3009F080E021E930E0A5
:10027000B2CF8EE18093610041CF6C2F89E890E08E
:100280001ED2C82F893008F46ECF8FEF80936000A4
:100290008EE18093610072CF20939A0021E930E0D3
:1002A00080E099CF8E81D2CF8B818130D9F082309E
:1002B00089F08330F9F080E090E4909394008FCF40
:1002C0002CE930E081E087CF20939C0021E930E0E9
:1002D00080E081CF8AE290E090939800809397002D
:1002E00082E1EACF8CE390E09093980080939700AE
:1002F00082E1E2CF211108C08AE890E09093980053
:100300008093970084E0D8CF213051F0223099F6C5
:100310008EE490E090939800809397008AE1CCCF90
:1003200088E690E0909398008093970082E2C4CF93
:1003300085B78C6085BF8BB780688BBF0895A82F69
:10034000B92F80E090E041E050EA609530E009C0CC
:100350002D9182279795879510F084279527305EF9
:10036000C8F36F5FA8F30895EADF8D939D93089516
:10037000CF93CFB7CF93C395849BE9F7849B09C0F4
:10038000849B07C0849B05C0849B03C0849B01C0E1
:10039000A1C0DF93C0919600DD27C356DF4F849B39
:1003A00002C0DF91EBCF2F930F931F9300B32FEF7A
:1003B00004FB20F94F933F9310B34FEF012704FB49
:1003C00021F93BE031C04E7F012F10B3216028C0DE
:1003D000102F4D7F2260000000B329C04B7F2460A6
:1003E000012F000010B32BC010B3477F28602AC034
:1003F0004F7E00B320612CC04F7D10B320622FC010
:100400004F7B00B3206432C0422700B349934FEFC3
:100410000000102714FB20F910B31871C9F1297FCF
:1004200091F2012704FB21F900B3237F89F23150B7
:1004300058F1102714FB22F910B3277E79F2012717
:1004400004FB23F92F7C81F200B3102714FB24F95D
:100450002F7971F200C010B3012704FB25F92F7327
:1004600059F200C000B3102714FB26F9223040F2E5
:1004700000C010B3012704FB27F9243028F64F777A
:10048000206810B30000F9CF10E81ABF002717C08A
:100490003B503195C31BD04010E81ABF0881033C84
:1004A000E9F00B34D9F0209193001981110F121348
:1004B000EDCF093641F10D3211F0013E39F70093CD
:1004C0009B003F914F911F910F912F91DF91CAB7E0
:1004D000C7FD51CFCF91CFBFCF91189520919B00F1
:1004E000222379F310919900112311F5343012F180
:1004F0003093990020939500109196003BE0311BBA
:100500003093960017C00091990001308CF40AE5F1
:100510003091610034FD10C000936100C8E8D0E064
:100520000FC02795A8F45150A9F4220F0000F9CF6D
:100530004AE503C042ED01C0432FC4E1D0E032E000
:1005400011B31861949A11BB02B320E418E15F93D0
:10055000012756E002BB279520F4515021F4220FC9
:10056000F9CF012756E000003B5A02BBD0F2279595
:1005700028F4515029F4220F0000F9CF012756E04A
:10058000279502BB20F4515021F4220FF9CF012707
:1005900056E02991332302BB21F6077E10919A0081
:1005A000110FC651D04002BB11F01093930010E818
:1005B0001ABF006111B3177E402F477E5F9100C0C4
:1005C00000C002BB11BB42BB7CCF8091C000813018
:1005D00049F060E082E090E030D46091C20080E1B8
:1005E00090E02BC461E082E090E027D46091C200EB
:1005F00080E190E022C4FC018FE790E090939800A6
:10060000809397009181923009F168F4992381F1E8
:10061000913031F544E050E06EE870E08FE790E013
:10062000F5D384E008959330E9F09830C8F48481DC
:100630009581809729F12681378182E0809383001C
:1006400081E0232B09F480E08195089582819381D4
:10065000009711F481E090E0909364008093630030
:1006600080E008958091830080937F0081E0089569
:10067000828180937F0083818093800082E008954F
:100680008091BE00882349F0828180FD06C082E00F
:100690008093830026813781D3CF81E080938300CC
:1006A00080936200268137813093870020938600F3
:1006B00080E290E09093850080938400C1CFCF9337
:1006C000FC01C62F80918300813049F0462F50E015
:1006D00060E070E0CF01A3D38C2FCF91089560919B
:1006E0008600709187002C2F30E06217730708F4A2
:1006F000C62F20918400309185002032310561F7AA
:10070000CC2351F390917E00AFEFAC0FB0E09D0190
:100710002F5F3F4F2E0F3F1F5FEF42E0992321F1E4
:10072000913011F19230A9F19330B9F19430E1F0A8
:100730009530B9F19630C9F19730F9F1983009F454
:1007400040C09930B1F19A3009F43FC09B3009F4B0
:1007500040C09C3009F441C09D3009F442C09E3035
:1007600009F443C0508301C0408390917E009F5F95
:1007700090937E003196E217F30781F6CB01019743
:100780008A1B9B0B90938700809386008C2FCF91C0
:1007900008959091B4009083E8CF8091B500808354
:1007A000E4CF8091B6008083E0CF8091B700808352
:1007B000DCCF8091BA008083D8CF8091B80080834D
:1007C000D4CF8091B9008083D0CF8091BB0080834B
:1007D000CCCF8091BC008083C8CF8091BD00808346
:1007E000C4CF8091BE008083C0CF8091BF00808342
:1007F000BCCFCF93FC01C62F80918300813049F09C
:10080000462F50E060E070E0CF0109D38C2FCF91EC
:1008100008954091860050918700862F90E04817F8
:10082000590708F051C0842F209184003091850031
:100830002032310561F790916200913009F468C06F
:10084000CC2329F390917E00C1506C2F70E09B0166
:100850002F5F3F4F2E0F3F1FB1E0923020F19230BB
:10086000A9F1933009F444C09430E9F0953009F4CB
:100870004BC0963009F453C0973009F458C09830F3
:1008800009F459C0993009F44EC09A3009F457C0A0
:100890009B3009F458C09C3009F459C09D3019F4BC
:1008A000A081A093BE0031969F5F90937E00E217D7
:1008B000F30799F641505109461B570B5093870097
:1008C00040938600CF910895862FAECFA081A111CD
:1008D00004C0B08390917E00A1E0A093B400319653
:1008E0009F5F90937E00E217F30709F0B6CFE2CF47
:1008F000A081A093B50031969F5F90937E00E21790
:10090000F30709F0AACFD6CFA081A093B600CBCF32
:10091000908190937E00CFEFC80F319691CFA08148
:10092000A093B700C0CFA081A093BA00BCCFA08194
:10093000A093B800B8CFA081A093B900B4CFA08194
:10094000A093BB00B0CFA081A093BC00ACCFA0818E
:10095000A093BD00A8CF99E288E10FB6F894A895BE
:1009600081BD0FBE91BD87B38F6087BB81B38662A7
:1009700081BB919AC29881E090E058D28093B400F4
:1009800082E090E053D2813009F40CC21092C00092
:10099000C39880E190E04AD2C82F8093C20080E3E0
:1009A00090E044D28093C10080FF03C0909AC0FDC4
:1009B000C19A81FF05C0959A8091C20081FDC09ABD
:1009C00082B3877E82BB81B3886181BB80E49CE96E
:1009D0000197F1F781B3877E81BBAADC789493E01D
:1009E000F92E1FEF01E022E0B22E38E1C32E48E0DD
:1009F000D42EC0E4DCE95AE0E52EA89566DB8091B0
:100A0000BE008823D1F3833009F441C0843009F457
:100A100066C08A3009F47AC08B3009F48BC0853007
:100A200009F498C0863009F4B7C0803F09F447C084
:100A3000843F09F43FC0833F09F4ECC0853F09F4CB
:100A400044C0863F09F4F0C0873009F4CEC0813F2E
:100A500009F400C18C3009F4EDC08D3009F4F2C006
:100A60008E3009F44BC18F3009F418C1843109F478
:100A700023C1823F09F427C1853109F487C181313F
:100A800009F46BC11092BE00F092BF00B6CF809106
:100A9000BD009FEF980F923068F4813009F495C043
:100AA000959A8091C10082608093C1008091C200BC
:100AB00081FDC09A1092BE001092BF009ECF60913F
:100AC000B40081E090E0B9D180DD6091C10080E3A5
:100AD00090E0B3D11092BE001092BF008ECF8091F3
:100AE000BD008150823030F790988091C100982FDE
:100AF0009E7F9093C100C19895988C7F8093C10090
:100B0000C0981092BE001092BF0077CF8091BD00B8
:100B1000811126C00093C000C39A909AC19A959AF9
:100B2000C09A1093C1001093C2001092BE001092A0
:100B3000BF0063CF8091BD00811134C01092C0000E
:100B4000C398C198C0981092C2001092BE00109233
:100B5000BF0053CFC29A1092BE001092BF004DCF7B
:100B60009FEF980F923008F0A5CF2091C10020FF91
:100B700003C0813009F4D6C021FF9CCF823009F038
:100B800099CFC09A8091C20082608093C200109277
:100B9000BE001092BF0031CFC2981092BE001092DA
:100BA000BF002BCF9FEF980F923008F083CF81309A
:100BB00009F469C0C0988091C2008D7F8093C20003
:100BC0001092BE001092BF0018CF909A8091C10081
:100BD00081608093C1008091C20080FF6BCFC19A79
:100BE0001092BE001092BF0008CF8091BD008A30E5
:100BF00018F4E092BD008AE09198882339F090E0E3
:100C0000FE013197F1F79F5F9813FACF919A1092F6
:100C1000BE00F3CE6091B40081E090E00ED110925E
:100C2000BE001092BF00E9CED0DC1092BE00109240
:100C3000BF00E3CEC39A0093C0001092BE00109292
:100C4000BF00DBCEC3981092C0001092BE0010927D
:100C5000BF00D3CE64E181E090E0EFD061E082E0BC
:100C600090E0EBD061E083E090E0E7D06FEF80E1CF
:100C700090E0E3D060E080E390E0DFD01092BE002F
:100C80001092BF00BACEC1988091C2008E7F80932F
:100C9000C2001092BE001092BF00AFCE8091BD0086
:100CA0009FEF980F923008F44BC01093BD00109244
:100CB000BE00B092BF00A1CE1093BD001092BE0046
:100CC0001092BF009ACE0093BF008091BD008111A9
:100CD00030C0F092BD000093BC001093BB00109395
:100CE000BA001093B9001093B8001093B700109396
:100CF000B6001092BF001092BE007FCE0FB6F894DF
:100D0000A895C1BC0FBED1BC2FEB84ED91E0215062
:100D100080409040E1F700C000001092BE001092A9
:100D2000BF006BCEC19A9091C20091609093C200B7
:100D300023CF813001F71092BD001092BF00DBCFAE
:100D40008130A1F18091C100869581708093BD00B2
:100D50001092BE001092BF0050CEE091BD00E33073
:100D600078F11092BE001093B6001093B700109364
:100D7000B8001093B9001093BA001093BB00109301
:100D8000BC001093BD000093BF0037CE8091BD0022
:100D9000882329F08093B4001092BF00ACCF009359
:100DA000BF00A9CF8093C000C39AF3CD8091C1004A
:100DB00081708093BD001092BE001092BF001DCEC6
:100DC000F0E0EE0FFF1FEE0FFF1FEE0FFF1FEB59BE
:100DD000FF4F87818093BD0086818093BC00858111
:100DE0008093BB0084818093BA0083818093B90093
:100DF00082818093B80081818093B7008081809345
:100E0000B6001092BE001092BF00F7CDFB01DC01CE
:100E100002C005900D9241505040D8F70895DC0172
:100E200001C06D9341505040E0F70895E199FECF25
:100E30008EBBE09A99278DB30895262FE199FECFB6
:100E40001CBA8EBB2DBB0FB6F894E29AE19A0FBE86
:080E500001960895F894FFCF0C
:100E5800FF5A010A0002FFFFFFFFFFFFFF04FFFF29
:0E0E6800FFFFFFFFFF03FFFFFFFFFFFFFF0085
:00000001FF
