:1000000048C062C0B5C160C05FC05EC05DC05CC0BA
:100010005BC05AC059C058C057C056C055C054C024
:1000200053C052C051C050C04FC00902120001015C
:1000300000C00509040000000000000012011001CA
:10004000FF000008713113000501010200011A03CD
:1000500043006C007500730074006500720020009E
:100060004300540052004C00220338003000380096
:100070003600200043006F006E00730075006C00B6
:10008000740061006E00630079000403090401003C
:10009000FF8E11241FBECFE5D1E0DEBFCDBF10E043
:1000A000A0E6B0E0ECEFFDE002C005900D92A637AF
:1000B000B107D9F720E0A6E7B0E001C01D92AC3B44
:1000C000B207E1F749D498C69BCFCF93DF936091F5
:1000D0009100635067FD14C020918E008CE090E089
:1000E000821B9109EC01CB56DF4F80918D008D3240
:1000F00009F451C080918C0087FD97C01092910047
:100100008091610084FF3AC0C0916000CF3FB1F19F
:10011000C93008F46EC088EF8C0F80936000909116
:10012000800088E8892780938000C8E080918C0057
:1001300087FDA3C020918F003091900086FF6CC096
:10014000A1E8B0E0F9018C2F94919D9331968150F4
:10015000D9F78FEF8C0F90E00196280F391F30935D
:10016000900020938F006C2F81E890E0FDD084E018
:100170008C0F8C3009F04CC08093610094E180B307
:10018000887131F49150D9F71092920010928B003F
:10019000DF91CF910895683009F0B0CF83EC809360
:1001A00080008AE58093610010928C008881982FEE
:1001B000907609F044C02A811092890099819111AA
:1001C00049C08F7119F481E08093890010928A00F0
:1001D00029E830E082E03093900020938F009F81E7
:1001E000911104C09E81981708F4892F80936000B4
:1001F00085CF109260009091800088E889278093D5
:100200008000C11193CF60E081E890E0ADD084E040
:100210009FEF90936000B0CFD901E1E8F0E08C2F20
:100220009D9191938150E1F794CFCE01E3D28F3F1E
:1002300001F1882309F462CF109260005FCFCE01F4
:10024000DAD18F3F61F6988197FD2CC090E89093AA
:100250008C00CCCF953001F1963031F1983081F19E
:10026000993091F181E09A3009F080E029E830E09E
:10027000B2CF8EE18093610041CF6C2F81E890E096
:100280001ED2C82F893008F46ECF8FEF80936000A4
:100290008EE18093610072CF2093920029E830E0D4
:1002A00080E099CF8E81D2CF8B818130D9F082309E
:1002B00089F08330F9F080E090E490938C008FCF48
:1002C00024E930E081E087CF2093940029E830E0F2
:1002D00080E081CF8AE290E09093900080938F003D
:1002E00082E1EACF8CE390E09093900080938F00BE
:1002F00082E1E2CF211108C08AE890E0909390005B
:1003000080938F0084E0D8CF213051F0223099F6CD
:100310008EE490E09093900080938F008AE1CCCFA0
:1003200088E690E09093900080938F0082E2C4CFA3
:1003300085B78C6085BF8BB780688BBF0895A82F69
:10034000B92F80E090E041E050EA609530E009C0CC
:100350002D9182279795879510F084279527305EF9
:10036000C8F36F5FA8F30895EADF8D939D93089516
:10037000CF93CFB7CF93C395849BE9F7849B09C0F4
:10038000849B07C0849B05C0849B03C0849B01C0E1
:10039000A1C0DF93C0918E00DD27CB56DF4F849B39
:1003A00002C0DF91EBCF2F930F931F9300B32FEF7A
:1003B00004FB20F94F933F9310B34FEF012704FB49
:1003C00021F93BE031C04E7F012F10B3216028C0DE
:1003D000102F4D7F2260000000B329C04B7F2460A6
:1003E000012F000010B32BC010B3477F28602AC034
:1003F0004F7E00B320612CC04F7D10B320622FC010
:100400004F7B00B3206432C0422700B349934FEFC3
:100410000000102714FB20F910B31871C9F1297FCF
:1004200091F2012704FB21F900B3237F89F23150B7
:1004300058F1102714FB22F910B3277E79F2012717
:1004400004FB23F92F7C81F200B3102714FB24F95D
:100450002F7971F200C010B3012704FB25F92F7327
:1004600059F200C000B3102714FB26F9223040F2E5
:1004700000C010B3012704FB27F9243028F64F777A
:10048000206810B30000F9CF10E81ABF002717C08A
:100490003B503195C31BD04010E81ABF0881033C84
:1004A000E9F00B34D9F020918B001981110F121350
:1004B000EDCF093641F10D3211F0013E39F70093CD
:1004C00093003F914F911F910F912F91DF91CAB7E8
:1004D000C7FD51CFCF91CFBFCF91189520919300F9
:1004E000222379F310919100112311F5343012F188
:1004F0003093910020938D0010918E003BE0311BD2
:1005000030938E0017C00091910001308CF40AE501
:100510003091610034FD10C000936100C0E8D0E06C
:100520000FC02795A8F45150A9F4220F0000F9CF6D
:100530004AE503C042ED01C0432FC4E1D0E032E000
:1005400011B31861949A11BB02B320E418E15F93D0
:10055000012756E002BB279520F4515021F4220FC9
:10056000F9CF012756E000003B5A02BBD0F2279595
:1005700028F4515029F4220F0000F9CF012756E04A
:10058000279502BB20F4515021F4220FF9CF012707
:1005900056E02991332302BB21F6077E1091920089
:1005A000110FC651D04002BB11F010938B0010E820
:1005B0001ABF006111B3177E402F477E5F9100C0C4
:1005C00000C002BB11BB42BB7CCF8091B800813020
:1005D00049F060E082E090E002D46091BA0080E1EE
:1005E00090E0FDC361E082E090E0F9D36091BA0051
:1005F00080E190E0F4C3FC0187E790E090939000E5
:1006000080938F009181923009F168F4992381F1F0
:10061000913031F544E050E06EE870E087E790E01B
:10062000C7D384E008959330E9F09830C8F484810A
:100630009581809729F12681378182E080937B0024
:1006400081E0232B09F480E08195089582819381D4
:10065000009711F481E090E0909364008093630030
:1006600080E0089580917B008093770081E0089579
:1006700082818093770083818093780082E008955F
:100680008091B600882349F0828180FD06C082E017
:1006900080937B0026813781D3CF81E080937B00DC
:1006A000809362002681378130937F0020937E0003
:1006B00080E290E090937D0080937C00C1CFCF9347
:1006C000DF93FC01C62F80917B00813051F0462FD3
:1006D00050E060E070E0CF0174D38C2FDF91CF91B8
:1006E000089560917E0070917F002C2F30E062179A
:1006F000730708F4C62F20917C0030917D002032D2
:10070000310559F7CC2349F390917600AFEFAC0F48
:10071000B0E09D012F5F3F4F2E0F3F1FDFEF53E0F3
:1007200042E00AC04083909176009F5F90937600EC
:100730003196E217F30721F19923A1F39130F1F0FB
:100740009230D1F0933041F1943051F1953051F124
:10075000963061F1973091F19830A1F1993051F1D3
:100760009A30A1F19B30B1F19C30C1F19D30D1F1B3
:100770009E30E1F1D083D7CF9091AC009083D3CF5E
:10078000CB0101978A1B9B0B90937F0080937E0087
:100790008C2FDF91CF9108958091AD008083C3CFDE
:1007A0005083C1CF8091AE008083BDCF8091AF00D8
:1007B0008083B9CF8091B2008083B5CF8091B000A3
:1007C0008083B1CF8091B1008083ADCF8091B300A1
:1007D0008083A9CF8091B4008083A5CF8091B5009C
:1007E0008083A1CF8091B60080839DCF8091B70098
:1007F000808399CFCF93FC01C62F80917B008130FD
:1008000049F0462F50E060E070E0CF01DAD28C2F43
:10081000CF91089540917E0050917F00862F90E007
:100820004817590708F051C0842F20917C0030915F
:100830007D002032310561F790916200913009F41A
:1008400068C0CC2329F390917600C1506C2F70E0E2
:100850009B012F5F3F4F2E0F3F1FB1E0923020F1E1
:100860009230A9F1933009F444C09430E9F0953006
:1008700009F44BC0963009F453C0973009F458C0BE
:10088000983009F459C0993009F44EC09A3009F4EF
:1008900057C09B3009F458C09C3009F459C09D30B2
:1008A00019F4A081A093B60031969F5F90937600D3
:1008B000E217F30799F641505109461B570B509325
:1008C0007F0040937E00CF910895862FAECFA08108
:1008D000A11104C0B08390917600A1E0A093AC0078
:1008E00031969F5F90937600E217F30709F0B6CF39
:1008F000E2CFA081A093AD0031969F5F90937600E8
:10090000E217F30709F0AACFD6CFA081A093AE00DB
:10091000CBCF908190937600CFEFC80F319691CFD7
:10092000A081A093AF00C0CFA081A093B200BCCFA4
:10093000A081A093B000B8CFA081A093B100B4CFA4
:10094000A081A093B300B0CFA081A093B400ACCF9E
:10095000A081A093B500A8CF99E288E10FB6F894E2
:10096000A89581BD0FBE91BD87B38D6187BB81B353
:10097000836081BBC098C39881E090E029D28093C6
:10098000AC0082E090E024D2813009F40AC21092D7
:10099000B800C29880E190E01BD2C82F8093BA00C3
:1009A00080E390E015D2D82F8093B90080E590E0E5
:1009B0000FD28093BB00D0FF03C0909AC0FDC49AB1
:1009C00082B3877E82BB81B3886181BB80E49CE96E
:1009D0000197F1F781B3877E81BBAADC789493E01D
:1009E000F92ECFEFD1E022E0B22E38E1C32E48E05D
:1009F000D42E00E41CE95AE0E52EA89566DB809130
:100A0000B6008823D1F3833009F446C0843009F45A
:100A100062C0823109F46BC0833109F47DC08A3031
:100A200009F485C08B3009F490C0853009F498C072
:100A3000863009F4A9C0803FC9F1843F09F441C060
:100A4000833F09F4BDC0853F09F45CC0863F09F4CB
:100A5000E6C0873009F4BEC0813F09F4E6C08C309F
:100A600009F4CDC08D3009F4D2C08E3009F412C122
:100A70008F3009F4F7C0843109F439C1823F09F499
:100A80001DC1853109F4FAC0813109F445C11092C4
:100A9000B600F092B700B1CF8091B500813009F473
:100AA00083C01092B6001092B700A7CF6091AC003F
:100AB00081E090E094D189DD6091B90080E390E01D
:100AC0008ED16091BB0080E590E089D11092B60094
:100AD0001092B70092CF8091B500813011F79098B5
:100AE0008091B9008E7F8093B900C498DACF80914D
:100AF000B5008130B1F6919A8091BB0081608093FE
:100B0000BB00CFCF6091B90080E390E068D1109234
:100B1000B6001092B70071CF8091B500813009F610
:100B200091988091BB008E7F8093BB00BACF80915B
:100B3000B50081111BC0D093B800C29A909AC49A94
:100B4000C093B900C093BA00ACCF8091B5008111B9
:100B500021C01092B800C298C4981092BA00A1CFD8
:100B6000C39A1092B6001092B70047CF813009F0B7
:100B700098CF8091B90080FF94CFC49A8091BA0039
:100B800081608093BA008DCFC3981092B600109206
:100B9000B70033CF813009F084CFC4988091BA0078
:100BA0008E7F8093BA007DCF909A8091B90081604A
:100BB0008093B9008091BA0080FF73CFC49A71CF3F
:100BC0006091AC0081E090E00AD11092B6001092E2
:100BD000B70013CF9091B5009A3018F4E092B500A9
:100BE0009AE0C09A992339F080E0F8013197F1F743
:100BF0008F5F9813FACFC0981092B600FECEC29ABB
:100C0000D093B8001092B6001092B700F6CEC298FA
:100C10001092B8001092B6001092B700EECED5DC5C
:100C20001092B6001092B700E8CE64E181E090E047
:100C3000D6D061E082E090E0D2D061E083E090E045
:100C4000CED06FEF80E190E0CAD060E080E390E02A
:100C5000C6D06FEF80E590E0C2D01092B60010923F
:100C6000B700CBCE8091B500813009F46EC0C0933F
:100C7000B5001092B600B092B700BFCE8091B5001B
:100C8000882309F492C08093AC001092B7001092B0
:100C9000B600B3CE0FB6F894A895C1BC0FBED1BCB8
:100CA0002FEB84ED91E0215080409040E1F700C0AF
:100CB00000001092B6001092B7009FCED093B700FC
:100CC0008091B50081111AC0F092B500D093B400A4
:100CD000C093B300C093B200C093B100C093B00002
:100CE000C093AF00C093AE001092B700D0CF8091F8
:100CF000B500813059F0C093B500D3CE813009F0F2
:100D0000C6CF1092B5001092B700C1CF8091BB0042
:100D100081708093B500C5CEE091B500E230F8F067
:100D20001092B600C093AE00C093AF00C093B00065
:100D3000C093B100C093B200C093B300C093B4009D
:100D4000C093B500D093B70058CE8091B9008170A0
:100D50008093B5001092B6001092B7004ECEF0E02E
:100D6000EE0FFF1FEE0FFF1FEE0FFF1FEB59FF4FA0
:100D700087818093B50086818093B40085818093BC
:100D8000B30084818093B20083818093B10082811B
:100D90008093B00081818093AF0080818093AE000A
:100DA00080CE8093B800C29AF5CDD093B7006FCFB4
:100DB000FB01DC0102C005900D9241505040D8F774
:100DC0000895DC0101C06D9341505040E0F7089553
:100DD000E199FECF8EBBE09A99278DB30895262F17
:100DE000E199FECF1CBA8EBB2DBB0FB6F894E29AE8
:0C0DF000E19A0FBE01960895F894FFCF21
:100DFC00FF5A010A0002FFFFFFFFFFFFFF04FFFF86
:060E0C00FFFFFFFFFF00E5
:00000001FF
