:100000000C94E9000C9460020C9406010C94060117
:100010000C9406010C9406010C9406010C94060144
:100020000C9406010C9406010C9406010C94060134
:100030000C9406010C9406010C9406010C94060124
:100040000C9406010C9406010C9406010C94060114
:100050000C9406010C9406010C9406010C94060104
:100060000C9406010C9406016E616E00696E6600C8
:1000700000407A10F35A00A0724E18090010A5D45F
:10008000E80000E87648170000E40B54020000CABC
:100090009A3B000000E1F505000080969800000002
:1000A00040420F000000A086010000001027000061
:1000B0000000E803000000006400000000000A00E7
:1000C000000000000100000000002C76D888DC67EA
:1000D0004F0823DFC1DFAE59E1B1B796E5E3E45342
:1000E000C63AE651997696E8E6C28426EB898C9B5F
:1000F00062ED407C6FFCEFBC9C9F40F2BAA56FA5FF
:10010000F490055A2AF75C936B6CF9676DC11BFC80
:10011000E0E40D47FEF520E6B500D0ED902E03009B
:10012000943577050080841E080000204E0A0000E8
:1001300000C80C333333330F986E12831141EF8DA7
:100140002114893BE65516CFFEE6DB18D1844B38E7
:100150001BF77C1D901DA4BBE424203284725E2218
:100160008100C9F124ECA1E53D270902120001013B
:1001700000C0050904000000000000001201100189
:10018000FF000008713114000501010200011A038B
:1001900043006C007500730074006500720020005D
:1001A0004300540052004C00220338003000380055
:1001B0003600200043006F006E00730075006C0075
:1001C000740061006E0063007900040309040100FB
:1001D000FF8E11241FBECFEFD8E0DEBFCDBF11E0F0
:1001E000A0E0B1E0E0EEFEE102C005900D92AA347D
:1001F000B107D9F721E0AAE4B1E001C01D92A0390E
:10020000B207E1F70E94DF080C946E0F0C94000017
:10021000CF93DF9360916501635067FD14C0209117
:1002200062018CE090E0821B9109EC01C759DE4F1E
:10023000809161018D3209F452C08091600187FD87
:1002400099C0109265018091010184FF3BC0C0916B
:100250000001CF3FB9F1C93008F46FC088EF8C0FAF
:10026000809300019091540188E88927809354017C
:10027000C8E08091600187FDA7C0209163013091A3
:10028000640186FF6EC0A5E5B1E0F9018C2F949161
:100290009D9331968150D9F78FEF8C0F90E00196A6
:1002A000280F391F30936401209363016C2F85E57B
:1002B00091E00E945C0284E08C0F8C3009F04DC00C
:1002C0008093010194E189B18C7031F49150D9F798
:1002D0001092660110925F01DF91CF91089568300E
:1002E00009F0AFCF83EC809354018AE5809301013C
:1002F000109260018881982F907609F046C02A817B
:1003000010925D01998191114CC08F7119F481E0B7
:1003100080935D0110925E012DE531E082E0309323
:100320006401209363019F81911104C09E819817FD
:1003300008F4892F8093000184CF109200019091DE
:10034000540188E8892780935401C11192CF60E05D
:1003500085E591E00E945C0284E09FEF90930001AC
:10036000AFCFD901E5E5F1E08C2F9D9191938150BC
:10037000E1F792CFCE010E94AF048F3F09F18823AD
:1003800009F45FCF109200015CCFCE010E94A70359
:100390008F3F49F6988197FD2DC090E890936001BA
:1003A000C9CF953009F1963039F1983089F19930FB
:1003B00099F181E09A3009F080E02DE531E0AFCF8E
:1003C0008EE1809301013DCF6C2F85E591E00E9485
:1003D0000C04C82F893008F469CF8FEF8093000197
:1003E0008EE1809301016ECF209366012DE531E00F
:1003F00080E095CF8E81D1CF8B818130D9F0823052
:1004000089F08330F9F080E090E4909360018BCF25
:1004100028E631E081E083CF209368012DE531E0CB
:1004200080E07DCF8AE691E0909364018093630140
:1004300082E1EACF8CE791E09093640180936301BD
:1004400082E1E2CF211108C08AEC91E0909364012F
:100450008093630184E0D8CF213051F0223099F6A7
:100460008EE891E090936401809363018AE1CCCFA0
:1004700088EA91E0909364018093630182E2C4CFA3
:10048000E9E6F0E0808183608083E89A0895A82FF0
:10049000B92F80E090E041E050EA609530E009C07B
:1004A0002D9182279795879510F084279527305EA8
:1004B000C8F36F5FA8F30895EADF8D939D930895C5
:1004C000CF93CFB7CF93C3954B9BE9F74B9B09C015
:1004D0004B9B07C04B9B05C04B9B03C04B9B01C074
:1004E000A1C0DF93C0916201DD27C759DE4F4B9B4E
:1004F00002C0DF91EBCF2F930F931F9309B12FEF22
:1005000003FB20F94F933F9319B14FEF012703FBF2
:1005100021F93BE031C04E7F012F19B1216028C085
:10052000102F4D7F2260000009B129C04B7F24604D
:10053000012F000019B12BC019B1477F28602AC0D4
:100540004F7E09B120612CC04F7D19B120622FC0B0
:100550004F7B09B1206432C0422709B149934FEF64
:100560000000102713FB20F919B11C70C9F1297F75
:1005700091F2012703FB21F909B1237F89F2315060
:1005800058F1102713FB22F919B1277E79F20127C0
:1005900003FB23F92F7C81F209B1102713FB24F907
:1005A0002F7971F200C019B1012703FB25F92F73D0
:1005B00059F200C009B1102713FB26F9223040F28E
:1005C00000C019B1012703FB27F9243028F64F7723
:1005D000206819B10000F9CF11E01CBB002717C03B
:1005E0003B503195C31BD04011E01CBB0881033C3C
:1005F000E9F00B34D9F020915F011981110F12132A
:10060000EDCF093641F10D3211F0013E39F700937B
:1006100067013F914F911F910F912F91DF91CCB3C3
:10062000C0FD51CFCF91CFBFCF91189520916701D9
:10063000222379F310916501112311F5343012F161
:100640003093650120936101109162013BE0311B01
:100650003093620117C00091650101308CF40AE506
:100660003091010134FD10C000930101C4E5D1E0D7
:100670000FC02795A8F45150A9F4220F0000F9CF1C
:100680004AE503C042ED01C0432FC4E1D0E032E0AF
:100690001AB11C605B9A1AB90BB120E41CE05F939D
:1006A000012756E00BB9279520F4515021F4220F71
:1006B000F9CF012756E000003B5A0BB9D0F227953D
:1006C00028F4515029F4220F0000F9CF012756E0F9
:1006D00027950BB920F4515021F4220FF9CF0127AF
:1006E00056E0299133230BB921F6037F109166015F
:1006F000110FC651D0400BB911F010935F0111E0FA
:100700001CBB08601AB1137F402F437F5F9100C06C
:1007100000C00BB91AB94BB97CCF80918C018130E4
:1007200059F060E082E090E00E94600F60918E01DD
:1007300080E190E00C94600F61E082E090E00E9424
:10074000600F60918E0180E190E00C94600FFC01DD
:100750008BE491E0909364018093630191819230E6
:1007600011F170F4992389F1913039F544E050E0AA
:100770006EEC71E08BE491E00E94980E84E00895A5
:100780009330E9F09830C8F484819581809729F1FD
:100790002681378182E080934F0181E0232B09F489
:1007A00080E08195089582819381009711F481E022
:1007B00090E0909304018093030180E0089580917C
:1007C0004F0180934B0181E00895828180934B011A
:1007D000838180934C0182E0089580918A0188236F
:1007E00049F0828180FD06C082E080934F0126811E
:1007F0003781D3CF81E080934F018093020126811E
:100800003781309353012093520180E290E090931E
:10081000510180935001C1CF1F93CF93DF93FC010F
:10082000C62F80914F01813061F0462F50E060E08B
:1008300070E0CF010E94AC0E8C2FDF91CF911F9101
:10084000089560915201709153012C2F30E062178E
:10085000730708F4C62F20915001309151012032C6
:10086000310551F7CC2341F390914A01AFEFAC0F22
:10087000B0E09D012F5F3F4F2E0F3F1F1FEFD1E0D4
:1008800053E042E00AC0408390914A019F5F9093F9
:100890004A013196E217F30739F19923A1F3913018
:1008A000E9F09230E9F0933061F1943071F19530D4
:1008B00071F1963081F19730B1F19830C1F19930F2
:1008C00071F19A30C1F19B30D1F19C30E1F19D3052
:1008D000F1F19E3009F43FC01083D6CF5083D4CFBE
:1008E000909180019083D0CFCB0101978A1B9B0B05
:1008F00090935301809352018C2FDF91CF911F91E0
:100900000895809181018083BFCFD083BDCF809136
:1009100082018083B9CF809183018083B5CF80919C
:1009200086018083B1CF809184018083ADCF809197
:1009300085018083A9CF809187018083A5CF809195
:1009400088018083A1CF8091890180839DCF809190
:100950008A01808399CF80918B01808395CFCF933B
:10096000FC01C62F80914F01813051F0462F50E09D
:1009700060E070E0CF010E94AC0E8C2FCF91089503
:100980004091520150915301862F90E0481759072A
:1009900008F051C0842F2091500130915101203234
:1009A000310561F790910201913009F468C0CC23C0
:1009B00029F390914A01C1506C2F70E09B012F5F89
:1009C0003F4F2E0F3F1FB1E0923020F19230A9F13E
:1009D000933009F444C09430E9F0953009F44BC0E9
:1009E000963009F453C0973009F458C0983009F490
:1009F00059C0993009F44EC09A3009F457C09B3061
:100A000009F458C09C3009F459C09D3019F4A081F4
:100A1000A0938A0131969F5F90934A01E217F307F2
:100A200099F641505109461B570B5093530140937F
:100A30005201CF910895862FAECFA081A11104C09D
:100A4000B08390914A01A1E0A093800131969F5F0D
:100A500090934A01E217F30709F0B6CFE2CFA081E5
:100A6000A093810131969F5F90934A01E217F307AB
:100A700009F0AACFD6CFA081A0938201CBCF9081DD
:100A800090934A01CFEFC80F319691CFA081A093E8
:100A90008301C0CFA081A0938601BCCFA081A09389
:100AA0008401B8CFA081A0938501B4CFA081A09389
:100AB0008701B0CFA081A0938801ACCFA081A09383
:100AC0008901A8CFA0E1B0E0E8E6F5E00C94890D3B
:100AD0007C011B016A01FC0117821682838181FF60
:100AE00044C39E012F5F3F4F3901F7019381F1010C
:100AF00093FD859193FF81911F01882309F431C3F0
:100B0000853239F493FD859193FF81911F018532E0
:100B100039F4B70190E00E94BE0E56016501E5CFA1
:100B200010E0512C912CFFE1F915D8F08B3279F0BF
:100B300038F4803279F08332A1F4F92DF0612EC0BF
:100B40008D3261F0803369F4292D21602DC0392D5B
:100B50003260932E892D8460982E2AC0E92DE8609A
:100B600015C097FC2DC020ED280F2A3088F496FE82
:100B700006C03AE0139F200D1124122F19C08AE0FD
:100B8000589E200D1124522EE92DE0629E2E10C099
:100B90008E3231F496FCE5C2F92DF0649F2E08C028
:100BA0008C3621F4292D2068922E02C0883641F41B
:100BB000F10193FD859193FF81911F018111B3CFC5
:100BC0009BEB980F933020F4992D9061805E07C0C5
:100BD0009BE9980F933008F066C1992D9F7E96FF90
:100BE00016E09F73992E853619F49064992E08C0EB
:100BF000863621F4392F3068932E02C0111111501E
:100C000097FE07C01C3350F444244394410E27E060
:100C10000BC0183038F027E017E005C027E09CE350
:100C2000492E02C0212F412C560184E0A80EB11C90
:100C3000F6016081718182819381042DA3010E945C
:100C4000C00D6C01F981FC87F0FF02C0F3FF06C004
:100C500091FC06C092FE06C000E205C00DE203C092
:100C60000BE201C000E08C858C7019F001115AC2B2
:100C70009BC297FE10C04C0CFC85F4FF04C08A8117
:100C8000813309F44A94141474F528E0241578F596
:100C900088E0482E2CC096FC2AC0812F90E08C154D
:100CA0009D059CF03CEFC3163FEFD30674F0892DF1
:100CB0008068982E0AC0E2E0F0E0EC0FFD1FE10F23
:100CC000F11D8081803319F411501111F4CF97FE7A
:100CD0000EC044244394410E812F90E0C816D906DB
:100CE0002CF41C1904C04424439401C010E097FE66
:100CF00006C01C141D0434F4C601019605C085E02D
:100D000090E002C081E090E001110196112331F0E2
:100D1000212F30E02F5F3F4F820F931F252D30E0B2
:100D20008217930714F4581A01C0512C892D897029
:100D300049F4552039F0B70180E290E00E94BE0EE0
:100D40005A94F7CF002329F0B701802F90E00E943A
:100D5000BE0E93FC09C0552039F0B70180E390E046
:100D60000E94BE0E5A94F7CF97FE4CC04601D7FEA4
:100D700002C0812C912CC60188199909F301E80F52
:100D8000F91FFE87ED87960124193109388B2F87CB
:100D9000012F10E01195019511093FEF831693067D
:100DA00029F4B7018EE290E00E94BE0EC814D90467
:100DB0004CF08F8598898815990524F4ED85FE857A
:100DC000818101C080E3F1E08F1A91082D853E8575
:100DD0002F5F3F4F3E872D87801691062CF0B7017D
:100DE00090E00E94BE0ED9CFC814D90441F49A8174
:100DF000963320F4953319F43C8534FF81E3B70131
:100E000090E04EC08A81813319F09C859F7E9C873B
:100E1000B70190E00E94BE0E111105C094FC18C0ED
:100E200085E690E017C0B7018EE290E00E94BE0E0A
:100E30001E5F82E001E0080FF301E80FF11D8081E1
:100E4000B70190E00E94BE0E802F0113F3CFE6CFD2
:100E500085E490E0B7010E94BE0ED7FC06C0C11425
:100E6000D10441F4EC85E4FF05C0D194C194D108CC
:100E70008DE201C08BE2B70190E00E94BE0E80E3DC
:100E80002AE0C216D1042CF08F5FFAE0CF1AD10805
:100E9000F7CFB70190E00E94BE0EB701C601C09621
:100EA0000E94BE0E54C1833631F0833779F083350A
:100EB00009F056C020C0560132E0A30EB11CF60165
:100EC0008081898301E010E0630112C05601F2E0E5
:100ED000AF0EB11CF601C080D18096FE03C0612F19
:100EE00070E002C06FEF7FEFC6010E94B30E8C016D
:100EF000F92DFF7714C0560122E0A20EB11CF601B5
:100F0000C080D18096FE03C0612F70E002C06FEFF9
:100F10007FEFC6010E94A10E8C01F92DF0689F2E73
:100F2000F3FD1AC0852D90E008171907A8F4B70142
:100F300080E290E00E94BE0E5A94F4CFF60197FC36
:100F4000859197FE81916F01B70190E00E94BE0EDE
:100F500051105A94015011090115110579F7F7C084
:100F6000843611F0893661F5560197FE09C024E0F8
:100F7000A20EB11CF60160817181828193810AC049
:100F8000F2E0AF0EB11CF60160817181072E000CFA
:100F9000880B990BF92DFF769F2E97FF09C090952E
:100FA0008095709561957F4F8F4F9F4FF0689F2E72
:100FB0002AE030E0A3010E94FA0EC82EC6183FC0F6
:100FC000092D853721F40F7E2AE030E01DC0097F0E
:100FD0008F3691F018F4883559F0C3C0803719F076
:100FE000883711F0BEC0006104FF09C0046007C06B
:100FF00094FE08C0066006C028E030E005C020E18D
:1010000030E002C020E132E0560107FF09C084E071
:10101000A80EB11CF601608171818281938108C0A4
:10102000F2E0AF0EB11CF6016081718180E090E0CA
:10103000A3010E94FA0EC82EC6180F77902E96FEB6
:101040000BC0092D0E7FC11650F494FE0AC092FC0D
:1010500008C0092D0E7E05C0DC2C092D03C0DC2C38
:1010600001C0D12E04FF0DC0FE01EC0DF11D8081E9
:10107000803311F4097E09C002FF06C0D394D394D3
:1010800004C0802F867809F0D39403FD11C000FFBF
:1010900006C01C2DD51480F4150D1D190DC0D514D6
:1010A00058F4B70180E290E00E94BE0ED394F7CFCF
:1010B000D51410F45D1801C0512C04FF10C0B70105
:1010C00080E390E00E94BE0E02FF17C001FD03C046
:1010D00088E790E002C088E590E0B7010CC0802F5F
:1010E000867859F001FF02C08BE201C080E207FD63
:1010F0008DE2B70190E00E94BE0EC11638F4B70130
:1011000080E390E00E94BE0E1150F7CFCA94F30125
:10111000EC0DF11D8081B70190E00E94BE0EC11060
:10112000F5CF15C0F4E0F51560F584E0581A93FE8C
:101130001FC0011127C02C8523FF2AC008E610E03C
:10114000392D3071932EF8018491811124C05520DE
:1011500009F4E4CCB70180E290E00E94BE0E5A94FC
:10116000F6CFF7018681978126C08FEF9FEF23C0CE
:10117000B70180E290E00E94BE0E5A945110F8CF61
:10118000D8CF512CB701802F90E00E94BE0ED3CF54
:101190000CE610E0D5CF91108052B70190E00E948C
:1011A000BE0E0F5F1F4FCFCF23E0251510F483E055
:1011B000BDCF512CC0CF6096E2E10C94A50D99E211
:1011C00088E10FB6F894A895809360000FBE9093C5
:1011D000600084B18F6384B987B18F6387B98AB1A6
:1011E000806F8AB92C985F9881E090E00E94580F38
:1011F0008093800182E090E00E94580F813009F4D2
:10120000E5C310928C015C9880E190E00E94580F39
:1012100080938E0180E390E00E94580F80938D01AF
:1012200080E590E00E94580F80938F01C5E0D1E0E7
:10123000A1E1B1E09DE1E92E91E0F92E80E090E09E
:1012400041E050E0682F8330910508F04DC02091B7
:101250008D0130E0082E02C0359527950A94E2F7FB
:1012600020FF2BC00D911C911197F80170819A01FC
:1012700012960C90129702C0220F331F0A94E2F7C5
:10128000272B208320918E0130E0082E02C0359557
:1012900027950A94E2F720FF10C0F7010081118121
:1012A000F80170819A01F701028002C0220F331FFA
:1012B0000A94E2F7272BF801208320918F0130E078
:1012C00002C0359527956A95E2F720FF0DC0688129
:1012D0007981FB0110819A010A8002C0220F331F1D
:1012E0000A94E2F7212B208301962496F4E0EF0E76
:1012F000F11C14968830910509F0A4CF8BB1837F3F
:101300008BB98AB18C608AB980E49CE90197F1F7C6
:101310008AB1837F8AB90E944002789453E0A52E57
:101320001FEF01E060E4C62E77E8D72EE8EC7E2EB2
:10133000F2E0BF2EA8E18A2EB8E09B2EC1E0D0E0FB
:1013400080E4E82E8CE9F82EA8950E94080180918F
:101350008A018823C9F3833009F44AC0843009F430
:10136000B9C0823109F409C1833109F44AC18A3014
:1013700009F483C18B3009F4B4C1853009F4DDC1AF
:10138000863009F407C2803F09F48BC0843F09F41A
:1013900096C0833F09F442C2853F09F427C1863FC6
:1013A00009F46DC2873009F444C2813F09F46EC26A
:1013B0008C3009F454C28D3009F459C28E3009F4CE
:1013C000A7C28F3009F485C2843109F4C4C28031C8
:1013D00009F4BBC2823F09F4D9C2853109F414C3B0
:1013E000813109F4F7C210928A01A0928B01ACCF2F
:1013F000E09189018FEF8E0F833008F04DC0F0E04F
:10140000EE0FFF1FEE0FFF1FE35FFE4FA081B181C4
:101410002C91CE01028002C0880F991F0A94E2F736
:10142000822B8C932091890130E0C9010197FC0146
:1014300097FDAEC1F595E795F595E795F595E79597
:10144000AC014770507857FD9CC1E457FE4F9E0198
:10145000042E01C0220F0A94EAF73181232B218345
:10146000228130E002C0359527954A95E2F720FFAA
:1014700013C0880F991F880F991FFC01E35EFE4F70
:10148000A081B1812C91CE01028002C0880F991FEA
:101490000A94E2F7822B8C9310928A0110928B01AE
:1014A00053CF6091800181E090E00E94600F0E9424
:1014B0008D0360918D0180E390E00E94600F609148
:1014C0008F0180E590E00E94600F10928A011092D7
:1014D0008B013ACFE09189018FEF8E0F8330E0F6D8
:1014E000F0E0EE0FFF1FEE0FFF1FE35FFE4FA08146
:1014F000B1819C919E01028002C0220F331F0A9489
:10150000E2F7822F809589238C938091890190E066
:10151000FC013197DF01F7FD71C1B595A795B59530
:10152000A795B595A795A457BE4FCF018770907822
:1015300097FD5FC19E0102C0220F331F8A95E2F71B
:10154000922F909511968C911197892311968C93D7
:10155000EE0FFF1FEE0FFF1FE35EFE4FA081B18174
:101560009C919E01028002C0220F331F0A94E2F771
:10157000822F809589238C938FCFE09189018FEF03
:101580008E0F833008F088CFF0E0EE0FFF1FEE0FD4
:10159000FF1FEF5FFE4FA081B1812C91CE01028031
:1015A00002C0880F991F0A94E2F7822B8C93209136
:1015B000890130E0C9010197FC0197FD26C1F5952D
:1015C000E795F595E795F595E795E457FE4F877014
:1015D000907897FD15C19E0102C0220F331F8A9596
:1015E000E2F7C9019381892B838356CF60918D01E6
:1015F00080E390E00E94600F10928A0110928B01AC
:10160000A3CEE09189018FEF8E0F833008F044CF95
:10161000F0E0EE0FFF1FEE0FFF1FEF5FFE4FA08108
:10162000B1819C919E01028002C0220F331F0A9457
:10163000E2F7822F809589238C932091890130E0F5
:10164000C9010197FC0197FDE7C0F595E795F59570
:10165000E795F595E795E457FE4F8770907897FDED
:10166000D6C09E0102C0220F331F8A95E2F7922F47
:1016700090958381892383830FCF80918901811184
:1016800062C000938C015C9AEDE1F1E020E030E073
:1016900040918E01CE01022E01C0880F0A94EAF714
:1016A000842B80938E0180918D0190E0022E02C0E8
:1016B000959587950A94E2F780FF0CC0A081B181CF
:1016C0004C91CE01028002C0880F991F0A94E2F764
:1016D000842B8C932F5F3F4F349623303105C1F616
:1016E000DBCE8091890181115BC010928C015C98E6
:1016F000EDE1F1E080E090E09E01082E01C0220FB4
:101700000A94EAF7322F309520918E0123232093FB
:101710008E01A081B1813C91AE01028002C0440FD4
:10172000551F0A94E2F7242F209523232C9301962A
:1017300034968330910501F7AFCE5F9A10928A01FB
:1017400010928B0101CE9FEF980F933008F0A4CE3A
:1017500090E001979E01082E01C0220F0A94EAF73B
:1017600030918E01232B20938E0120918D0130E04A
:10177000082E02C0359527950A94E2F720FF8CCEFB
:1017800078CE41505109486F5F6F4F5F5F4F5DCE1C
:10179000379650CE5F9810928A0110928B01D4CD6B
:1017A0009FEF980F933008F077CE90E001979E015D
:1017B000082E01C0220F0A94EAF7322F30952091AB
:1017C0008E01232320938E01880F991F880F991F64
:1017D000FC01E35EFE4FA081B1818C919E010280ED
:1017E00002C0220F331F0A94E2F7209582238C93C4
:1017F00053CE0197886F9F6F01969CCE17968DCE22
:101800000197886F9F6F0196E6CE3796D8CE0197E5
:10181000886F9F6F019625CF379617CF6091800113
:1018200081E090E00E94600F10928A0110928B017B
:101830008BCD909189019A3020F48AE080938901C0
:101840009AE02C9A992339F080E0F7013197F1F76B
:101850008F5F8913FACF2C9810928A0175CD5C9A0C
:1018600000938C0110928A0110928B016DCD5C98CF
:1018700010928C0110928A0110928B0165CD0E940A
:101880008D0310928A0110928B015ECD64E181E09C
:1018900090E00E94600F61E082E090E00E94600FA3
:1018A00061E083E090E00E94600F6FEF80E190E0E4
:1018B0000E94600F60E080E390E00E94600F6FEF95
:1018C00080E590E00E94600F10928A0110928B01D7
:1018D0003BCDE09189018FEF8E0F833078F5F0E0FA
:1018E000EE0FFF1FEE0FFF1FE75EFE4FA081B181DD
:1018F0008C9190E0028002C0959587950A94E2F75A
:1019000081708093890110928A0110928B011CCD05
:101910000FB6F894A895809260000FBE9092600078
:101920003FEB84ED91E0315080409040E1F700C002
:10193000000010928A0110928B0106CD109389014C
:1019400010928A01B0928B01FFCC80918901813085
:10195000D9F15E98A1CDE09189018FEF8E0F833090
:1019600080F5F0E0EE0FFF1FEE0FFF1FEF5FFE4F61
:10197000A081B1818C9190E0028002C095958795FD
:101980000A94E2F781708093890186CD00938B01E0
:1019900080918901811142C0A09289010093880140
:1019A0001093870110938601109385011093840191
:1019B000109383011093820110928B0110928A017F
:1019C000C3CC1093890168CD5E9A66CD80938C015B
:1019D0005C9A1ACCE0918901E43008F450C010926E
:1019E0008A01109382011093830110938401109354
:1019F000850110938601109387011093880110933D
:101A0000890100938B01A0CC80918901882309F47E
:101A100058C08093800110928B01D0CF813009F49F
:101A200075C0823009F450C0833041F6C0927C000A
:101A3000D0927A0070927C0080917A0080648093CA
:101A40007A0080917A0086FDFCCF80917A008064D4
:101A500080937A0080917A0086FDFCCFB092890154
:101A6000809178008093880180917900809387012C
:101A700010928B01C0927C00D0927A009FCFF0E050
:101A8000EE0FFF1FEE0FFF1FEE0FFF1FE75DFE4F74
:101A900087818093890186818093880185818093E5
:101AA000870184818093860183818093850182816F
:101AB000809384018181809383018081809382015E
:101AC000EBCC00938B017ACF80918801813009F0B3
:101AD00075CFC0927C00D0927A0080917C00887F84
:101AE000866080937C0080917A00806480937A0085
:101AF00080917A0086FDFCCF009389018091780067
:101B000080938801809179008093870110928B01E6
:101B100055CF2F923F924F925F926F927F928F920A
:101B20009F92AF92BF92CF92DF92EF92FF920F936C
:101B30001F93CF93DF93CDB7DEB7CA1BDB0B0FB676
:101B4000F894DEBF0FBECDBF09942A883988488833
:101B50005F846E847D848C849B84AA84B984C884C9
:101B6000DF80EE80FD800C811B81AA81B981CE0FC0
:101B7000D11D0FB6F894DEBF0FBECDBFED010895A5
:101B8000283008F027E03327DA01990F311D87FD4F
:101B9000916000966105710539F432602E5F3D93C6
:101BA00030E32A95E1F708959F3F30F080387105C2
:101BB000610509F03C5F3C5F3D93913008F080681F
:101BC000911DDF93CF931F930F93FF92EF92192FE5
:101BD000987F9695E92F96959695E90FFF27E653FE
:101BE000FF4F99273327EE24FF24A701E701059033
:101BF0000894079428F4360FE71EF81E491F511D5C
:101C0000660F771F881F991F0694A1F70590079408
:101C100028F4E70EF81E491F561FC11D770F881FB5
:101C2000991F661F0694A1F70590079428F4F80EF3
:101C3000491F561FC71FD11D880F991F661F771F89
:101C40000694A1F70590079420F4490F561FC71F6B
:101C5000D81F990F661F771F881F0694A9F78491D4
:101C60001095177041F0D695C79557954795F794FD
:101C7000E7941A95C1F7E0E7F0E0689415901591A4
:101C800035916591959105907FE27395E118F10A80
:101C9000430B560BC90BD009C0F7E10CF11E431FD3
:101CA000561FC91FD01D7EF4703311F48A95E6CFFC
:101CB000E894015030F0080F0AF40027021708F4E6
:101CC000202F2395022F7A3328F079E37D932A95EC
:101CD000E9F710C07D932A9589F606949795679544
:101CE000379517951794E118F10A430B560BC90B5A
:101CF000D00998F023957E9173957A3308F070E3BC
:101D00007C932013B8F77E9170617D9330F08395BA
:101D100071E37D9370E32A95E1F71124EF90FF9032
:101D20000F911F91CF91DF91992787FD909508958D
:101D3000FB01DC0102C005900D9241505040D8F7E4
:101D40000895FC010590615070400110D8F780950E
:101D500090958E0F9F1F0895DC0101C06D93415037
:101D60005040E0F70895FC0161507040019001106F
:101D7000D8F7809590958E0F9F1F08950F931F930E
:101D8000CF93DF93FB01238121FD03C08FEF9FEFF2
:101D90002CC022FF16C0468157812481358142170D
:101DA000530744F4A081B1819D012F5F3F4F3183E0
:101DB00020838C93268137812F5F3F4F3783268383
:101DC00014C08B01EC01FB010084F185E02D099525
:101DD000892BE1F6D80116968D919C911797019663
:101DE00017969C938E931697CE01DF91CF911F91FA
:101DF0000F910895FA01AA27283051F1203181F17D
:101E0000E8946F936E7F6E5F7F4F8F4F9F4FAF4F02
:101E1000B1E03ED0B4E03CD0670F781F891F9A1F15
:101E2000A11D680F791F8A1F911DA11D6A0F711DC9
:101E3000811D911DA11D20D009F468943F912AE0D5
:101E4000269F11243019305D3193DEF6CF010895BD
:101E5000462F4770405D4193B3E00FD0C9F7F6CFEE
:101E6000462F4F70405D4A3318F0495D31FD4052B6
:101E7000419302D0A9F7EACFB4E0A695979587954C
:101E800077956795BA95C9F700976105710508952B
:101E90009B01AC010A2E06945795479537952795D7
:101EA000BA95C9F7620F731F841F951FA01D08956F
:101EB000F999FECF92BD81BDF89A992780B5089512
:101EC000262FF999FECF1FBA92BD81BD20BD0FB656
:101ED000F894FA9AF99A0FBE01960895F894FFCFF4
:101EE000FF5A010A00280003002800020028000110
:101EF000002800050028000400280000002500013B
:101F000000250002002500050001FFFFFFFFFFFF85
:101F1000FF04FFFFFFFFFFFFFF03FFFFFFFFFFFFC8
:0A1F2000FF02FFFFFFFFFFFFFF00BD
:00000001FF
