:100000000C94E9000C945A020C9406010C9406011D
:100010000C9406010C9406010C9406010C94060144
:100020000C9406010C9406010C9406010C94060134
:100030000C9406010C9406010C9406010C94060124
:100040000C9406010C9406010C9406010C94060114
:100050000C9406010C9406010C9406010C94060104
:100060000C9406010C9406016E616E00696E6600C8
:1000700009021200010100C005090400000000008F
:10008000000012011001FF00000871311400050189
:10009000010200011A0343006C0075007300740034
:1000A0006500720020004300540052004C002203FF
:1000B0003800300038003600200043006F006E002A
:1000C000730075006C00740061006E0063007900BD
:1000D000040309040100FF8E00407A10F35A00A0C7
:1000E000724E18090010A5D4E80000E87648170001
:1000F00000E40B54020000CA9A3B000000E1F50541
:10010000000080969800000040420F000000A0868A
:1001100001000000102700000000E80300000000BC
:100120006400000000000A00000000000100000060
:1001300000002C76D888DC674F0823DFC1DFAE597A
:10014000E1B1B796E5E3E453C63AE651997696E80D
:10015000E6C28426EB898C9B62ED407C6FFCEFBC91
:100160009C9F40F2BAA56FA5F490055A2AF75C93BC
:100170006B6CF9676DC11BFCE0E40D47FEF520E6F2
:10018000B500D0ED902E0300943577050080841ED5
:10019000080000204E0A000000C80C333333330F30
:1001A000986E12831141EF8D2114893BE65516CFCD
:1001B000FEE6DB18D1844B381BF77C1D901DA4BBD9
:1001C000E424203284725E228100C9F124ECA1E58E
:1001D0003D2711241FBECFEFD8E0DEBFCDBF11E019
:1001E000A0E0B1E0E0E0FFE102C005900D92AC3488
:1001F000B107D9F711E0ACE4B1E001C01D92A33919
:10020000B107E1F70E94F6080C947E0F0C940000F1
:10021000CF93DF9360916801635067FD14C0209114
:1002200065018CE090E0821B9109EC01C459DE4F1E
:10023000809164018D3209F457C08091630187FD7C
:10024000A0C0109268018091010184FF40C06091BC
:1002500000016F3F09F43BC0693008F473C0685077
:10026000609300019091570188E889278093570196
:1002700068E08091630187FD1CC020916601309188
:10028000670186FF75C0A8E5B1E0F901962F84915A
:100290008D9331969150D9F78FEF860F90E00196AC
:1002A000280F391F3093670120936601C4E0C60F01
:1002B00054C088E591E00E942904682F893008F431
:1002C000A8C08FEF80930001CEE1C093010194E1BB
:1002D00089B18C7031F49150D9F710926901109264
:1002E0006201DF91CF910895683009F0AACF83ECC5
:1002F000809357018AE58093010110926301888100
:10030000982F907609F048C02A8110926001998157
:1003100091114EC08F7119F481E0809360011092A9
:10032000610120E631E082E03093670120936601AD
:100330009F81911104C09E81981708F4892F8093A2
:1003400000017FCF109200019091570188E8892722
:100350008093570161118DCFC4E088E591E00E9440
:100360005602CC3009F4B1CF8FEF80930001ADCFAE
:10037000D901E8E5F1E0962F8D9181939150E1F755
:100380008BCFCE010E94C7048F3F09F1882309F467
:1003900058CF1092000155CFCE010E94AD038F3F80
:1003A00039F6988197FD1DC090E890936301C7CFFF
:1003B000953089F0963009F19830D9F0993099F05C
:1003C00081E09A3009F080E020E631E0ADCF8EE1A7
:1003D0008093010136CF2093690120E631E080E06F
:1003E000A3CF8E81E1CF20936B0120E631E080E046
:1003F0009BCF2BE631E081E097CF8B818130F1F00C
:100400008230A1F0833041F080E090E4909363016A
:100410008FCFC4E0C80FA1CF211118C080ED90E0AC
:10042000909367018093660184E0EFCF80E790E0CE
:10043000909367018093660182E1E7CF82E890E0C4
:10044000909367018093660182E1DFCF213051F004
:100450002230D1F684E990E09093670180936601A1
:100460008AE1D3CF8EEA90E0909367018093660192
:1004700082E2CBCFE9E6F0E0808183608083E89A76
:100480000895A82FB92F80E090E041E050EA6095F0
:1004900030E009C02D9182279795879510F0842729
:1004A0009527305EC8F36F5FA8F30895EADF8D9358
:1004B0009D930895CF93CFB7CF93C3954B9BE9F707
:1004C0004B9B09C04B9B07C04B9B05C04B9B03C07C
:1004D0004B9B01C0A1C0DF93C0916501DD27C459CA
:1004E000DE4F4B9B02C0DF91EBCF2F930F931F93F7
:1004F00009B12FEF03FB20F94F933F9319B14FEF51
:10050000012703FB21F93BE031C04E7F012F19B1D8
:10051000216028C0102F4D7F2260000009B129C042
:100520004B7F2460012F000019B12BC019B1477F08
:1005300028602AC04F7E09B120612CC04F7D19B1BF
:1005400020622FC04F7B09B1206432C0422709B11D
:1005500049934FEF0000102713FB20F919B11C70CD
:10056000C9F1297F91F2012703FB21F909B1237F0A
:1005700089F2315058F1102713FB22F919B1277E67
:1005800079F2012703FB23F92F7C81F209B11027AF
:1005900013FB24F92F7971F200C019B1012703FB75
:1005A00025F92F7359F200C009B1102713FB26F962
:1005B000223040F200C019B1012703FB27F9243093
:1005C00028F64F77206819B10000F9CF11E01CBB65
:1005D000002717C03B503195C31BD04011E01CBB16
:1005E0000881033CE9F00B34D9F0209162011981B4
:1005F000110F1213EDCF093641F10D3211F0013E0A
:1006000039F700936A013F914F911F910F912F91FC
:10061000DF91CCB3C0FD51CFCF91CFBFCF91189513
:1006200020916A01222379F310916801112311F5B9
:10063000343012F130936801209364011091650108
:100640003BE0311B3093650117C000916801013018
:100650008CF40AE53091010134FD10C000930101D2
:10066000C7E5D1E00FC02795A8F45150A9F4220F97
:100670000000F9CF4AE503C042ED01C0432FC4E1B9
:10068000D0E032E01AB11C605B9A1AB90BB120E4D9
:100690001CE05F93012756E00BB9279520F45150D9
:1006A00021F4220FF9CF012756E000003B5A0BB985
:1006B000D0F2279528F4515029F4220F0000F9CFE9
:1006C000012756E027950BB920F4515021F4220F51
:1006D000F9CF012756E0299133230BB921F6037F87
:1006E00010916901110FC651D0400BB911F0109350
:1006F000620111E01CBB08601AB1137F402F437FD9
:100700005F9100C000C00BB91AB94BB97CCF6091A2
:10071000920180E590E00C94700F6091900180E36D
:1007200090E00C94700F80918F01813059F060E05F
:1007300082E090E00E94700F6091910180E190E072
:100740000C94700F61E082E090E00E94700F609165
:10075000910180E190E00C94700FFC018DE491E038
:10076000909367018093660191819230D1F170F48A
:10077000992379F1913029F544E050E064ED70E07F
:100780008DE491E00E94AC0E84E008959330D9F09E
:100790009830B8F4848195818097C9F1268137819A
:1007A00082E08093510181E0232B09F480E0819560
:1007B0000895969587959093040180930301892B62
:1007C000F1F080E008958091510180934D0181E026
:1007D0000895828180934D01838180934E0182E050
:1007E000089582819381909306018093050100977B
:1007F00001F781E090E0909306018093050181E08C
:1008000090E0909304018093030180E0089580912B
:100810008D01882349F0828180FD06C082E08093AB
:10082000510126813781BFCF81E0809351018093B0
:100830000201268137813093560120935501818131
:100840008093540180E290E0909353018093520191
:10085000AACFCF93DF93FC01C62F80915101813045
:1008600059F0462F50E060E070E0CF010E94C00ECA
:100870008C2FDF91CF910895209155013091560131
:10088000862F90E02817390708F4C22F8091520173
:1008900090915301809761F7CC2351F390914C01D3
:1008A000AFEFAC0FB0E0AD014F5F5F4F4E0F5F1F7A
:1008B000DFEF71E063E082E00AC0808390914C0139
:1008C0009F5F90934C013196E417F50731F199231E
:1008D000A1F39130E1F09230E1F0933051F1943096
:1008E00061F1953061F19630B1F19730C1F19830F6
:1008F00051F1993061F19A30B1F19B30C1F19C30E6
:10090000D1F19D30E1F19E30F1F1D083D7CF6083FA
:10091000D5CF909183019083D1CF215031092A1BEB
:100920003B0B30935601209355018C2FDF91CF91D3
:100930000895909184019083C1CF7083BFCF90912F
:1009400085019083BBCF909188019083B7CF909120
:1009500089019083B3CF909186019083AFCF90911E
:1009600087019083ABCF90918A019083A7CF90911C
:100970008B019083A3CF90918C0190839FCF909116
:100980008D0190839BCF90918E01908397CFCF93D1
:10099000FC01C62F80915101813051F0462F50E06B
:1009A00060E070E0CF010E94C00E8C2FCF910895BF
:1009B0002091550130915601862F90E02817390774
:1009C00008F051C0822F40915201509153014032A2
:1009D000510561F790910201913009F470C0CC2368
:1009E00029F390914C01C1506C2F70E0AB014F5F27
:1009F0005F4F4E0F5F1FB1E0923020F19230A9F1AE
:100A0000933009F444C09430E9F0953009F44BC0B8
:100A1000963009F45BC0973009F45CC0983009F453
:100A200046C0993009F447C09A3009F457C09B304A
:100A300009F458C09C3009F459C09D3019F4A081C4
:100A4000A0938D0131969F5F90934C01E417F507B9
:100A500099F621503109261B370B3093560120930C
:100A60005501CF910895862FAECFA081A11104C06A
:100A7000B08390914C01A1E0A093830131969F5FD8
:100A800090934C01E417F50709F0B6CFE2CFA081AF
:100A9000A093840131969F5F90934C01E417F50772
:100AA00009F0AACFD6CFA081A0938501CBCFA0819A
:100AB000A0938801C7CFA081A0938901C3CF908163
:100AC00090934C01CFEFC80F319689CFA081A093AE
:100AD0008601B8CFA081A0938701B4CFA081A09355
:100AE0008A01B0CFA081A0938B01ACCFA081A0934D
:100AF0008C01A8CFA3E1B0E0E0E8F5E00C949D0DF7
:100B00006C014B012A01FC0117821682838181FF4F
:100B100043C3AE014F5F5F4F3A01F6019381F40189
:100B200093FD859193FF81914F01882309F430C390
:100B3000853239F493FD859193FF81914F01853280
:100B400039F4B60190E00E94D20E52012501E5CFA2
:100B500010E0F12C20E02032A0F48B3269F030F468
:100B6000803259F0833269F420612CC08D3239F023
:100B7000803339F4216026C02260246023C02860BD
:100B800021C027FD27C030ED380F3A3078F426FF1A
:100B900006C0FAE01F9F300D1124132F13C04AE046
:100BA000F49E300D1124F32E20620CC08E3221F4FD
:100BB00026FDEEC2206406C08C3611F4206802C007
:100BC000883641F4F40193FD859193FF81914F01A3
:100BD0008111C1CF9BEB980F933018F42061805E98
:100BE00006C09BE9980F933008F071C12F7E26FF55
:100BF00016E02F73322E853619F42064322E08C089
:100C0000863621F4F22FF0683F2E02C011111150E8
:100C100037FE07C01C3350F4EE24E394E10E27E0C6
:100C20000BC0183038F027E017E005C027E04CE390
:100C3000E42E02C0212FE12C520144E0A40EB11C8D
:100C4000F20160817181828193810E2DA3010E9446
:100C5000D40D2C01098100FF02C003FF07C031FC45
:100C600008C032FE09C030E2232E07C02DE2222E3A
:100C700004C09BE2292E01C0212C802F8C7019F01A
:100C8000211068C2A8C237FE0FC0E40C04FF04C0E4
:100C90008A81813309F4EA941E1474F5F8E0FE1594
:100CA00078F588E0E82E2CC036FC2AC0812F90E031
:100CB000841595059CF02CEF42162FEF520674F028
:100CC000432D4068342E0AC0E2E0F0E0EC0FFD1F37
:100CD000E10FF11D8081803319F411501111F4CF0F
:100CE00037FE0EC0EE24E394E10E812F90E048160B
:100CF00059062CF4141904C0EE24E39401C010E04A
:100D000037FE06C01414150434F4C201019605C060
:100D100085E090E002C081E090E02110019611236F
:100D200031F0212F30E02F5F3F4F820F931F2F2D87
:100D300030E08217930714F4F81A01C0F12C832DC8
:100D4000897049F4FF2039F0B60180E290E00E94FA
:100D5000D20EFA94F7CF222029F0B601822D90E02E
:100D60000E94D20E33FC09C0FF2039F0B60180E3A7
:100D700090E00E94D20EFA94F7CF37FE5AC0942D1D
:100D8000852D57FE02C090E080E0292E382E20E00D
:100D900030E0A2014E1951095D874C87A20142192A
:100DA00053095F874E87612F70E044275527461B04
:100DB000570B598B488B5FEF2516350649F4B60162
:100DC0008EE290E02A8B3B8B0E94D20E3B892A89CF
:100DD000421453046CF04C855D854215530544F470
:100DE000EE85FF85E20FF31FE60DF71D818101C03F
:100DF00080E351E0251A31082F5F3F4F4889598918
:100E0000241635064CF0B60190E02A8B3B8B0E94ED
:100E1000D20E2A893B89CFCF2414350439F49A8124
:100E2000963318F4953311F404FF81E3B60190E092
:100E30004BC08A81813309F00F7EB60190E00E9499
:100E4000D20E111105C034FC18C085E690E017C021
:100E5000B6018EE290E00E94D20E82E0EE24E3948E
:100E6000E80EF301E80FF11D8081B60190E00E94C9
:100E7000D20E11508E2D91F7E6CF85E490E0B601A9
:100E80000E94D20E57FC05C04114510439F404FFEE
:100E900005C05194419451088DE201C08BE2B60126
:100EA00090E00E94D20E80E39AE0491651042CF0A3
:100EB0008F5F5AE0451A5108F7CFB60190E00E94C3
:100EC000D20EB601C201C0960E94D20E57C183361F
:100ED00031F0833779F0833509F058C021C05201D1
:100EE000E2E0AE0EB11CF2018081898301E010E0E6
:100EF000230114C05201F2E0AF0EB11CF201408098
:100F0000518026FF03C0612F70E002C06FEF7FEFBA
:100F1000C2012A8B0E94C70E8C012A892F7715C027
:100F20005201F2E0AF0EB11CF2014080518026FF69
:100F300003C0612F70E002C06FEF7FEFC2012A8B08
:100F40000E94B50E8C012A892068322E23FD1AC01A
:100F50008F2D90E008171907A8F4B60180E290E001
:100F60000E94D20EFA94F4CFF20137FC859137FE3D
:100F700081912F01B60190E00E94D20EF110FA94F7
:100F8000015011090115110579F7F8C0843611F0E7
:100F9000893659F5520127FF09C0F4E0AF0EB11CA4
:100FA000F20160817181828193810AC0F2E0AF0E0B
:100FB000B11CF20160817181882777FD8095982F9F
:100FC0002F76322E97FF09C0909580957095619588
:100FD0007F4F8F4F9F4F2068322E2AE030E0A301D1
:100FE0000E940A0FE82EE6183FC0022F853721F431
:100FF0000F7E2AE030E01DC0097F8F3691F018F493
:10100000883559F0C5C0803719F0883711F0C0C055
:10101000006104FF09C0046007C024FF08C0066027
:1010200006C028E030E005C020E130E002C020E149
:1010300032E0520107FF09C0F4E0AF0EB11CF2012B
:10104000608171818281938108C0F2E0AF0EB11C92
:10105000F2016081718180E090E0A3010E940A0F9B
:10106000E82EE6180F77302E36FE0BC0332D3E7F6C
:10107000E11650F434FE0AC032FC08C0332D3E7E27
:1010800005C00E2D332D03C00E2D01C0012F34FFDE
:101090000CC0FE01EE0DF11D8081803311F4397E0C
:1010A00008C032FF05C00E5F04C0832F867809F0A8
:1010B0000F5F33FD13C030FF06C01E2D0F1518F44F
:1010C0001F0D101B0F2D0F1568F4B60180E290E084
:1010D0003B8B0E94D20E0F5F3B89F5CF0F1510F4AA
:1010E000F01A01C0F12C34FF12C0B60180E390E089
:1010F0003B8B0E94D20E3B8932FF17C031FD03C0EB
:1011000088E790E002C088E590E0B6010CC0832F2C
:10111000867859F031FF02C08BE201C080E237FDD2
:101120008DE2B60190E00E94D20EE11638F4B601CD
:1011300080E390E00E94D20E1150F7CFEA94F301C1
:10114000EE0DF11D8081B60190E00E94D20EE110FB
:10115000F5CF14C0F4E0FF1558F584E0F81A33FE1B
:101160001EC0211026C003FF2AC008E610E0F32DA0
:10117000F0713F2EF8018491811124C0FF2009F401
:10118000E5CCB60180E290E00E94D20EFA94F6CF50
:10119000F6018681978126C08FEF9FEF23C0B601AD
:1011A00080E290E00E94D20EFA94F110F8CFD9CFED
:1011B000F12CB601822D90E00E94D20ED4CF0CE625
:1011C00010E0D5CF31108052B60190E00E94D20ECF
:1011D0000F5F1F4FCFCF23E02F1510F483E0BECF5A
:1011E000F12CC1CF6396E2E10C94B90D29E288E1BC
:1011F00090E00FB6F894A895809360000FBE2093FE
:10120000600084B18F6384B987B18F6387B98AB175
:10121000806F8AB92C985F9881E090E00E94680FF7
:101220008093830182E090E00E94680F813009F48E
:10123000E7C310928F015C9880E190E00E94680FF4
:101240008093910180E390E00E94680F8093900169
:1012500080E590E00E94680F80939201C7E0D1E0A2
:10126000A3E1B1E01FE1E12E11E0F12E80E090E07A
:1012700041E050E0682F8330910508F04DC0209187
:10128000900130E0082E02C0359527950A94E2F7C8
:1012900020FF2BC00D911C911197F80170819A01CC
:1012A00012960C90129702C0220F331F0A94E2F795
:1012B000272B20832091910130E0082E02C0359524
:1012C00027950A94E2F720FF10C0F70100811181F1
:1012D000F80170819A01F701028002C0220F331FCA
:1012E0000A94E2F7272BF80120832091920130E045
:1012F00002C0359527956A95E2F720FF0DC06881F9
:101300007981FB0110819A010A8002C0220F331FEC
:101310000A94E2F7212B208301962496E4E0EE0E56
:10132000F11C14968830910509F0A4CF8BB1837F0E
:101330008BB98AB18C608AB980E49CE90197F1F796
:101340008AB1837F8AB90E943A02789483E0882E1A
:10135000FF24FA94EE24E39490E4C92E27E8D22ED9
:1013600038EC932E48E1A42EB12CC1E0D0E000E48B
:101370001CE9A8950E94080180918D018823C9F37A
:10138000833009F44AC0843009F4A0C0823109F4E2
:10139000EEC0833109F424C18A3009F45DC18B3079
:1013A00009F48DC1853009F4B5C1863009F4DFC177
:1013B000803F09F422C2843F09F446C2833F09F406
:1013C0004AC2853F09F452C2863F09F456C28730AB
:1013D00009F424C2813F09F467C28C3009F454C275
:1013E0008D3009F459C28E3009F4CBC28F3009F424
:1013F0009AC2843109F47BC2803109F4B3C2823FBE
:1014000009F4E4C2853109F4D6C2813109F401C37B
:1014100010928D0180928E01ACCFE0918C018FEF04
:101420008E0F833008F04DC0F0E0EE0FFF1FEE0F7F
:10143000FF1FE15FFE4FA081B1812C91CE010280A0
:1014400002C0880F991F0A94E2F7822B8C93209197
:101450008C0130E0C9010197FC0197FD86C1F5952B
:10146000E795F595E795F595E795AC0147705078C8
:1014700057FD74C1E157FE4F9E01042E01C0220F9B
:101480000A94EAF73181232B2183228130E002C0C4
:10149000359527954A95E2F720FF13C0880F991FCD
:1014A000880F991FFC01E15EFE4FA081B1812C9154
:1014B000CE01028002C0880F991F0A94E2F7822BA6
:1014C0008C9310928D0110928E0153CFE0918C017C
:1014D0008FEF8E0F8330A8F7F0E0EE0FFF1FEE0FB7
:1014E000FF1FE15FFE4FA081B1819C919E010280B0
:1014F00002C0220F331F0A94E2F7822F80958923BE
:101500008C9320918C0130E0C9010197FC0197FD7B
:1015100064C1F595E795F595E795F595E795E1575C
:10152000FE4F9C012770307837FD50C1AE0102C0DC
:10153000440F551F2A95E2F7342F3095218123233C
:101540002183880F991F880F991FFC01E15EFE4FD0
:10155000A081B1819C919E01028002C0220F331FA5
:101560000A94E2F7822F809589238C93AACFE09189
:101570008C018FEF8E0F833008F0A3CFF0E0EE0FD9
:10158000FF1FEE0FFF1FED5FFE4FA081B1812C9179
:10159000CE01028002C0880F991F0A94E2F7822BC5
:1015A0008C9320918C0130E0C9010197FC0197FDDB
:1015B0001BC1F595E795F595E795F595E795E15705
:1015C000FE4F8770907897FD0AC19E0102C0220FDE
:1015D000331F8A95E2F7C9019381892B838371CFE9
:1015E000E0918C018FEF8E0F833008F06ACFF0E02E
:1015F000EE0FFF1FEE0FFF1FED5FFE4FA081B181C9
:101600009C919E01028002C0220F331F0A94E2F7D0
:10161000822F809589238C9320918C0130E0C90121
:101620000197FC0197FDE7C0F595E795F595E795DE
:10163000F595E795E157FE4F8770907897FDD6C0F6
:10164000AE0102C0440F551F8A95E2F7942F909582
:1016500083818923838335CF80918C01811160C080
:10166000E0928F015C9AEFE1F1E080E090E0409140
:1016700091019E01082E01C0220F0A94EAF7242B43
:10168000209391012091900130E0082E02C0359501
:1016900027950A94E2F720FF0CC0A081B1814C91FC
:1016A0009E01028002C0220F331F0A94E2F7242B0E
:1016B0002C930196349683309105C9F602CF809120
:1016C0008C0181115AC010928F015C98EFE1F1E01A
:1016D00080E090E09E01082E01C0220F0A94EAF7F4
:1016E000322F309520919101232320939101A081E5
:1016F000B1814C919E01028002C0220F331F0A94D7
:10170000E2F7209524232C9301963496833091059B
:1017100009F7D7CE5F9A10928D0110928E0129CED3
:101720009FEF980F933008F0CCCE90E001979E0188
:10173000082E01C0220F0A94EAF730919101232B61
:10174000209391012091900130E0082E02C0359540
:1017500027950A94E2F720FFB4CEA0CE415051095C
:10176000486F5F6F4F5F5F4F85CE379678CE5F983B
:1017700010928D0110928E01FCCD9FEF980F933047
:1017800008F09FCE90E001979E01082E01C0220F25
:101790000A94EAF7322F3095209191012323209368
:1017A0009101880F991F880F991FFC01E15EFE4F80
:1017B000A081B1818C919E01028002C0220F331F53
:1017C0000A94E2F7209582238C937BCE2150310935
:1017D000286F3F6F2F5F3F4FA9CE37969ACE019764
:1017E000886F9F6F0196F1CE3796E3CE0197886F91
:1017F0009F6F019625CF379617CF6091830181E0C7
:1018000090E00E94700F0E9493030E948D030E943B
:10181000870310928D0110928E01ABCD90918C01B7
:101820009A3020F48AE080938C019AE02C9A9923D4
:1018300039F080E0F8013197F1F78F5F8913FACF23
:101840002C9810928D0195CD0E94870310928D01E6
:1018500010928E018ECD6091830181E090E00E9414
:10186000700F10928D0110928E0183CD0E948D0316
:1018700010928D0110928E017CCD0E9493031092E4
:101880008D0110928E0175CD5C9AE0928F011092BD
:101890008D0110928E016DCD5C9810928F01109287
:1018A0008D0110928E0165CD64E181E090E00E948F
:1018B000700F61E082E090E00E94700F61E083E0D1
:1018C00090E00E94700F6FEF80E190E00E94700F37
:1018D00060E080E390E00E94700F6FEF80E590E0A1
:1018E0000E94700F10928D0110928E0142CDE091F6
:1018F0008C018FEF8E0F833008F05AC0F0E0EE0FAE
:10190000FF1FEE0FFF1FED5FFE4FA081B1818C9195
:1019100090E0028002C0959587950A94E2F7817065
:1019200080938C01CECDE0918C018FEF8E0F8330B0
:1019300000F5F0E0EE0FFF1FEE0FFF1FE15FFE4F1F
:10194000A081B1818C9190E0028002C0959587952D
:101950000A94E2F7817080938C0110928D011092AD
:101960008E0107CD80918C01813009F44DC05E98C5
:10197000A8CDF0928C0110928D0182E080938E01AF
:10198000F8CC88E00FB6F894A895A09260000FBE3E
:10199000809360005FEB84ED91E051508040904077
:1019A000E1F700C0000010928D0110928E01E1CC91
:1019B000F0928C0186CD80918C01882339F180933F
:1019C000830110928E0110928D01D3CCE0928E0192
:1019D00080918C01811137C084E080938C01E0926A
:1019E0008B01F0928A01F0928901F0928801F092C5
:1019F0008701F0928601F092850110928E01E3CF6B
:101A000080938F015C9A18CC5E9A5BCDE0928E0138
:101A1000DACFE0918C01E43008F448C010928D01D7
:101A2000F0928501F0928601F0928701F092880190
:101A3000F0928901F0928A01F0928B01F0928C0170
:101A4000E0928E0196CC813009F474C0823009F4A2
:101A50004FC0833009F0B7CFC0927C00D0927A009B
:101A600090927C0080917A00806480937A008091CB
:101A70007A0086FDFCCF80917A00806480937A00A2
:101A800080917A0086FDFCCF82E080938C0180916A
:101A9000780080938B018091790080938A01109265
:101AA0008E01C0927C00D0927A008DCFF0E0EE0FD4
:101AB000FF1FEE0FFF1FEE0FFF1FE55DFE4F87813B
:101AC00080938C01868180938B01858180938A012C
:101AD00084818093890183818093880182818093AE
:101AE0008701818180938601808180938501E9CC83
:101AF00080918B01813009F066CFC0927C00D0923A
:101B00007A0080917C00887F866080937C00809141
:101B10007A00806480937A0080917A0086FDFCCF01
:101B2000E0928C018091780080938B018091790004
:101B300080938A0110928E0146CF2F923F924F924E
:101B40005F926F927F928F929F92AF92BF92CF924D
:101B5000DF92EF92FF920F931F93CF93DF93CDB756
:101B6000DEB7CA1BDB0B0FB6F894DEBF0FBECDBFCE
:101B700009942A88398848885F846E847D848C849F
:101B80009B84AA84B984C884DF80EE80FD800C81A8
:101B90001B81AA81B981CE0FD11D0FB6F894DEBF8B
:101BA0000FBECDBFED010895283008F027E03327A0
:101BB000DA01990F311D87FD91600096610571056D
:101BC00039F432602E5F3D9330E32A95E1F70895B2
:101BD0009F3F30F080387105610509F03C5F3C5F44
:101BE0003D93913008F08068911DDF93CF931F9350
:101BF0000F93FF92EF92192F987F9695E92F969564
:101C00009695E90FFF27EE5CFE4F99273327EE24C8
:101C1000FF24A701E70105900894079428F4360FE4
:101C2000E71EF81E491F511D660F771F881F991F59
:101C30000694A1F70590079428F4E70EF81E491FB3
:101C4000561FC11D770F881F991F661F0694A1F7A5
:101C50000590079428F4F80E491F561FC71FD11D81
:101C6000880F991F661F771F0694A1F705900794A8
:101C700020F4490F561FC71FD81F990F661F771FE3
:101C8000881F0694A9F784911095177041F0D69596
:101C9000C79557954795F794E7941A95C1F7E8EDDE
:101CA000F0E06894159015913591659195910590A6
:101CB0007FE27395E118F10A430B560BC90BD0096B
:101CC000C0F7E10CF11E431F561FC91FD01D7EF443
:101CD000703311F48A95E6CFE894015030F0080F84
:101CE0000AF40027021708F4202F2395022F7A33D5
:101CF00028F079E37D932A95E9F710C07D932A9522
:101D000089F6069497956795379517951794E11876
:101D1000F10A430B560BC90BD00998F023957E911D
:101D200073957A3308F070E37C932013B8F77E91B3
:101D300070617D9330F0839571E37D9370E32A9514
:101D4000E1F71124EF90FF900F911F91CF91DF9158
:101D5000992787FD90950895FB01DC0102C005904D
:101D60000D9241505040D8F70895FC010590615004
:101D700070400110D8F7809590958E0F9F1F0895A1
:101D8000DC0101C06D9341505040E0F70895FC0123
:101D90006150704001900110D8F7809590958E0F9A
:101DA0009F1F08950F931F93CF93DF93FB01238110
:101DB00021FD03C08FEF9FEF28C022FF16C0468190
:101DC0005781248135814217530744F4A081B181A2
:101DD0009D012F5F3F4F318320838C932681378174
:101DE0002F5F3F4F3783268310C0EB01092F182F39
:101DF0000084F185E02D0995892BE1F68E819F8184
:101E000001969F838E83812F902FDF91CF911F9119
:101E10000F910895FA01AA27283051F1203181F15C
:101E2000E8946F936E7F6E5F7F4F8F4F9F4FAF4FE2
:101E3000B1E03ED0B4E03CD0670F781F891F9A1FF5
:101E4000A11D680F791F8A1F911DA11D6A0F711DA9
:101E5000811D911DA11D20D009F468943F912AE0B5
:101E6000269F11243019305D3193DEF6CF0108959D
:101E7000462F4770405D4193B3E00FD0C9F7F6CFCE
:101E8000462F4F70405D4A3318F0495D31FD405296
:101E9000419302D0A9F7EACFB4E0A695979587952C
:101EA00077956795BA95C9F700976105710508950B
:101EB0009B01AC010A2E06945795479537952795B7
:101EC000BA95C9F7620F731F841F951FA01D08954F
:101ED000F999FECF92BD81BDF89A992780B50895F2
:101EE000262FF999FECF1FBA92BD81BD20BD0FB636
:101EF000F894FA9AF99A0FBE01960895F894FFCFD4
:101F0000FF5A0105000A00280003002800020028EB
:101F1000000100280005002800040028000000251A
:101F2000000100250002002500050001FFFFFFFF62
:101F3000FFFFFF04FFFFFFFFFFFFFF03FFFFFFFFA8
:0C1F4000FFFFFF02FFFFFFFFFFFFFF009D
:00000001FF
