:100000000C94E9000C945A020C9406010C9406011D
:100010000C9406010C9406010C9406010C94060144
:100020000C9406010C9406010C9406010C94060134
:100030000C9406010C9406010C9406010C94060124
:100040000C9406010C9406010C9406010C94060114
:100050000C9406010C9406010C9406010C94060104
:100060000C9406010C9406016E616E00696E6600C8
:1000700009021200010100C005090400000000008F
:10008000000012011001FF00000871311600050187
:10009000010200011A0343006C0075007300740034
:1000A0006500720020004300540052004C002203FF
:1000B0003800300038003600200043006F006E002A
:1000C000730075006C00740061006E0063007900BD
:1000D000040309040100FF8E00407A10F35A00A0C7
:1000E000724E18090010A5D4E80000E87648170001
:1000F00000E40B54020000CA9A3B000000E1F50541
:10010000000080969800000040420F000000A0868A
:1001100001000000102700000000E80300000000BC
:100120006400000000000A00000000000100000060
:1001300000002C76D888DC674F0823DFC1DFAE597A
:10014000E1B1B796E5E3E453C63AE651997696E80D
:10015000E6C28426EB898C9B62ED407C6FFCEFBC91
:100160009C9F40F2BAA56FA5F490055A2AF75C93BC
:100170006B6CF9676DC11BFCE0E40D47FEF520E6F2
:10018000B500D0ED902E0300943577050080841ED5
:10019000080000204E0A000000C80C333333330F30
:1001A000986E12831141EF8D2114893BE65516CFCD
:1001B000FEE6DB18D1844B381BF77C1D901DA4BBD9
:1001C000E424203284725E228100C9F124ECA1E58E
:1001D0003D2711241FBECFEFD8E0DEBFCDBF11E019
:1001E000A0E0B1E0E0E4FCE102C005900D92AC318A
:1001F000B107D9F711E0ACE1B1E001C01D92A3361F
:10020000B107E1F70E941C090C941E0E0C9400002B
:10021000CF93DF9360913801635067FD14C0209144
:1002200035018CE090E0821B9109EC01C45CDE4F4B
:10023000809134018D3209F457C08091330187FDDC
:10024000A0C0109238018091010184FF40C06091EC
:1002500000016F3F09F43BC0693008F473C0685077
:10026000609300019091270188E8892780932701F6
:1002700068E08091330187FD1CC0209136013091E8
:10028000370186FF75C0A8E2B1E0F901962F84918D
:100290008D9331969150D9F78FEF860F90E00196AC
:1002A000280F391F3093370120933601C4E0C60F61
:1002B00054C088E291E00E942304682F893008F43A
:1002C000A8C08FEF80930001CEE1C093010194E1BB
:1002D00089B18C7031F49150D9F710923901109294
:1002E0003201DF91CF910895683009F0AACF83ECF5
:1002F000809327018AE58093010110923301888160
:10030000982F907609F048C02A8110923001998187
:1003100091114EC08F7119F481E0809330011092D9
:10032000310120E331E082E0309337012093360140
:100330009F81911104C09E81981708F4892F8093A2
:1003400000017FCF109200019091270188E8892752
:100350008093270161118DCFC4E088E291E00E9473
:100360005602CC3009F4B1CF8FEF80930001ADCFAE
:10037000D901E8E2F1E0962F8D9181939150E1F758
:100380008BCFCE010E94BB048F3F09F1882309F473
:1003900058CF1092000155CFCE010E94A7038F3F86
:1003A00039F6988197FD1DC090E890933301C7CF2F
:1003B000953089F0963009F19830D9F0993099F05C
:1003C00081E09A3009F080E020E331E0ADCF8EE1AA
:1003D0008093010136CF2093390120E331E080E0A2
:1003E000A3CF8E81E1CF20933B0120E331E080E079
:1003F0009BCF2BE331E081E097CF8B818130F1F00F
:100400008230A1F0833041F080E090E4909333019A
:100410008FCFC4E0C80FA1CF211118C080ED90E0AC
:10042000909337018093360184E0EFCF80E790E02E
:10043000909337018093360182E1E7CF82E890E024
:10044000909337018093360182E1DFCF213051F064
:100450002230D1F684E990E0909337018093360101
:100460008AE1D3CF8EEA90E09093370180933601F2
:1004700082E2CBCFE9E6F0E0808183608083E89A76
:100480000895A82FB92F80E090E041E050EA6095F0
:1004900030E009C02D9182279795879510F0842729
:1004A0009527305EC8F36F5FA8F30895EADF8D9358
:1004B0009D930895CF93CFB7CF93C3954B9BE9F707
:1004C0004B9B09C04B9B07C04B9B05C04B9B03C07C
:1004D0004B9B01C0A1C0DF93C0913501DD27C45CF7
:1004E000DE4F4B9B02C0DF91EBCF2F930F931F93F7
:1004F00009B12FEF03FB20F94F933F9319B14FEF51
:10050000012703FB21F93BE031C04E7F012F19B1D8
:10051000216028C0102F4D7F2260000009B129C042
:100520004B7F2460012F000019B12BC019B1477F08
:1005300028602AC04F7E09B120612CC04F7D19B1BF
:1005400020622FC04F7B09B1206432C0422709B11D
:1005500049934FEF0000102713FB20F919B11C70CD
:10056000C9F1297F91F2012703FB21F909B1237F0A
:1005700089F2315058F1102713FB22F919B1277E67
:1005800079F2012703FB23F92F7C81F209B11027AF
:1005900013FB24F92F7971F200C019B1012703FB75
:1005A00025F92F7359F200C009B1102713FB26F962
:1005B000223040F200C019B1012703FB27F9243093
:1005C00028F64F77206819B10000F9CF11E01CBB65
:1005D000002717C03B503195C31BD04011E01CBB16
:1005E0000881033CE9F00B34D9F0209132011981E4
:1005F000110F1213EDCF093641F10D3211F0013E0A
:1006000039F700933A013F914F911F910F912F912C
:10061000DF91CCB3C0FD51CFCF91CFBFCF91189513
:1006200020913A01222379F310913801112311F519
:10063000343012F130933801209334011091350198
:100640003BE0311B3093350117C000913801013078
:100650008CF40AE53091010134FD10C000930101D2
:10066000C7E2D1E00FC02795A8F45150A9F4220F9A
:100670000000F9CF4AE503C042ED01C0432FC4E1B9
:10068000D0E032E01AB11C605B9A1AB90BB120E4D9
:100690001CE05F93012756E00BB9279520F45150D9
:1006A00021F4220FF9CF012756E000003B5A0BB985
:1006B000D0F2279528F4515029F4220F0000F9CFE9
:1006C000012756E027950BB920F4515021F4220F51
:1006D000F9CF012756E0299133230BB921F6037F87
:1006E00010913901110FC651D0400BB911F0109380
:1006F000320111E01CBB08601AB1137F402F437F09
:100700005F9100C000C00BB91AB94BB97CCF6091A2
:10071000600180E390E00C94100E80915F018130C5
:1007200059F060E082E090E00E94100E609161015B
:1007300080E190E00C94100E61E082E090E00E9475
:10074000100E6091610180E190E00C94100EFC01AC
:100750008DE191E090933701809336019181923041
:10076000D1F170F4992379F1913029F544E050E00A
:1007700064ED70E08DE191E00E944C0D84E00895FD
:100780009330D9F09830B8F4848195818097C9F17D
:100790002681378182E08093210181E0232B09F4B7
:1007A00080E08195089596958795909304018093B4
:1007B0000301892BF1F080E008958091210180935D
:1007C0001D0181E00895828180931D0183818093C2
:1007D0001E0182E0089582819381909306018093A7
:1007E0000501009701F781E090E090930601809366
:1007F000050181E090E0909304018093030180E083
:10080000089580915D01882349F0828180FD06C0B2
:1008100082E08093210126813781BFCF81E08093E0
:100820002101809302012681378130932601209394
:10083000250181818093240180E290E0909323013F
:1008400080932201AACFCF93FC01C62F8091210172
:10085000813051F0462F50E060E070E0CF010E94FF
:10086000600D8C2FCF9108952091250130912601A4
:10087000862F90E02817390708F4C22F80912201B3
:1008800090912301809769F7CC2359F390911C0133
:10089000AFEFAC0FB0E0AD014F5F5F4F4E0F5F1F8A
:1008A0007FEF65E082E00AC0808390911C019F5F2A
:1008B00090931C013196E417F50731F19923A1F3C8
:1008C0009130E1F09230E1F0933069F1943049F1E8
:1008D000953029F1963099F19730A9F1983039F196
:1008E000993049F19A3099F19B30A9F19C30B9F1D6
:1008F0009D30C9F19E30D9F17083D7CF6083D5CFB9
:10090000909153019083D1CF215031092A1B3B0B89
:1009100030932601209325018C2FCF91089590913B
:1009200055019083C2CF909154019083BECF909196
:1009300058019083BACF909159019083B6CF90918E
:1009400056019083B2CF909157019083AECF909192
:100950005A019083AACF90915B019083A6CF90918A
:100960005C019083A2CF90915D0190839ECF909186
:100970005E0190839ACFCF93FC01C62F8091210115
:10098000813051F0462F50E060E070E0CF010E94CE
:10099000600D8C2FCF910895209125013091260173
:1009A000862F90E02817390708F051C0822F409118
:1009B0002201509123014032510561F790910201CB
:1009C000913009F470C0CC2329F390911C01C150DF
:1009D0006C2F70E0AB014F5F5F4F4E0F5F1FB1E0B8
:1009E000923020F19230A9F1933009F444C0943050
:1009F000E9F0953009F44BC0963009F45BC09730AC
:100A000009F45CC0983009F446C0993009F447C035
:100A10009A3009F457C09B3009F458C09C3009F44F
:100A200059C09D3019F4A081A0935D0131969F5F5C
:100A300090931C01E417F50799F621503109261B04
:100A4000370B3093260120932501CF910895862FEF
:100A5000AECFA081A11104C0B08390911C01A1E090
:100A6000A093530131969F5F90931C01E417F50703
:100A700009F0B6CFE2CFA081A093540131969F5FD9
:100A800090931C01E417F50709F0AACFD6CFA081F7
:100A9000A0935501CBCFA081A0935801C7CFA081CF
:100AA000A0935901C3CF908190931C01CFEFC80F41
:100AB000319689CFA081A0935601B8CFA081A09391
:100AC0005701B4CFA081A0935A01B0CFA081A093C9
:100AD0005B01ACCFA081A0935C01A8CFA3B163B1AF
:100AE000617070916201672BA1FB442740F950E0CF
:100AF000462B452B09F1409A49B169B179B159B1F9
:100B000075FBEE27E0F9F0E066FB222720F930E0E4
:100B10002E2B3F2B54FB882780F990E0822B932BC0
:100B2000242F221F2227221F30916201232B822B88
:100B3000892B21F4419808954098DECF419A089579
:100B4000A3E1B0E0E6EAF5E00C943D0C6C014B014A
:100B50002A01FC0117821682838181FF43C3AE0103
:100B60004F5F5F4F3A01F6019381F40193FD859148
:100B700093FF81914F01882309F430C3853239F402
:100B800093FD859193FF81914F01853239F4B60130
:100B900090E00E94720D52012501E5CF10E0F12C8A
:100BA00020E02032A0F48B3269F030F4803259F02A
:100BB000833269F420612CC08D3239F0803339F4EE
:100BC000216026C02260246023C0286021C027FD48
:100BD00027C030ED380F3A3078F426FF06C0FAE02F
:100BE0001F9F300D1124132F13C04AE0F49E300DC7
:100BF0001124F32E20620CC08E3221F426FDEEC2A9
:100C0000206406C08C3611F4206802C0883641F496
:100C1000F40193FD859193FF81914F018111C1CF23
:100C20009BEB980F933018F42061805E06C09BE91F
:100C3000980F933008F071C12F7E26FF16E02F73B6
:100C4000322E853619F42064322E08C0863621F4FF
:100C5000F22FF0683F2E02C01111115037FE07C06D
:100C60001C3350F4EE24E394E10E27E00BC018305F
:100C700038F027E017E005C027E04CE3E42E02C07F
:100C8000212FE12C520144E0A40EB11CF20160813D
:100C90007181828193810E2DA3010E94740C2C011D
:100CA000098100FF02C003FF07C031FC08C032FE0B
:100CB00009C030E2232E07C02DE2222E04C09BE2A1
:100CC000292E01C0212C802F8C7019F0211068C2B0
:100CD000A8C237FE0FC0E40C04FF04C08A81813330
:100CE00009F4EA941E1474F5F8E0FE1578F588E02E
:100CF000E82E2CC036FC2AC0812F90E08415950583
:100D00009CF02CEF42162FEF520674F0432D4068F2
:100D1000342E0AC0E2E0F0E0EC0FFD1FE10FF11D00
:100D20008081803319F411501111F4CF37FE0EC0B9
:100D3000EE24E394E10E812F90E0481659062CF43E
:100D4000141904C0EE24E39401C010E037FE06C07D
:100D50001414150434F4C201019605C085E090E036
:100D600002C081E090E021100196112331F0212F83
:100D700030E02F5F3F4F820F931F2F2D30E08217FF
:100D8000930714F4F81A01C0F12C832D897049F4EB
:100D9000FF2039F0B60180E290E00E94720DFA94D3
:100DA000F7CF222029F0B601822D90E00E94720D2B
:100DB00033FC09C0FF2039F0B60180E390E00E94C7
:100DC000720DFA94F7CF37FE5AC0942D852D57FE39
:100DD00002C090E080E0292E382E20E030E0A20111
:100DE0004E1951095D874C87A201421953095F874B
:100DF0004E87612F70E044275527461B570B598BB0
:100E0000488B5FEF2516350649F4B6018EE290E077
:100E10002A8B3B8B0E94720D3B892A894214530412
:100E20006CF04C855D854215530544F4EE85FF85D5
:100E3000E20FF31FE60DF71D818101C080E351E051
:100E4000251A31082F5F3F4F4889598924163506E6
:100E50004CF0B60190E02A8B3B8B0E94720D2A89E0
:100E60003B89CFCF2414350439F49A81963318F492
:100E7000953311F404FF81E3B60190E04BC08A8101
:100E8000813309F00F7EB60190E00E94720D1111BE
:100E900005C034FC18C085E690E017C0B6018EE2AC
:100EA00090E00E94720D82E0EE24E394E80EF301DC
:100EB000E80FF11D8081B60190E00E94720D115083
:100EC0008E2D91F7E6CF85E490E0B6010E94720D79
:100ED00057FC05C04114510439F404FF05C0519476
:100EE000419451088DE201C08BE2B60190E00E946E
:100EF000720D80E39AE0491651042CF08F5F5AE09E
:100F0000451A5108F7CFB60190E00E94720DB60164
:100F1000C201C0960E94720D57C1833631F08337EB
:100F200079F0833509F058C021C05201E2E0AE0EDD
:100F3000B11CF2018081898301E010E0230114C01B
:100F40005201F2E0AF0EB11CF2014080518026FF49
:100F500003C0612F70E002C06FEF7FEFC2012A8BE8
:100F60000E94670D8C012A892F7715C05201F2E08B
:100F7000AF0EB11CF2014080518026FF03C0612FEB
:100F800070E002C06FEF7FEFC2012A8B0E94550D07
:100F90008C012A892068322E23FD1AC08F2D90E003
:100FA00008171907A8F4B60180E290E00E94720DBC
:100FB000FA94F4CFF20137FC859137FE81912F012D
:100FC000B60190E00E94720DF110FA9401501109DF
:100FD0000115110579F7F8C0843611F0893659F5F5
:100FE000520127FF09C0F4E0AF0EB11CF20160818D
:100FF0007181828193810AC0F2E0AF0EB11CF201CF
:1010000060817181882777FD8095982F2F76322E09
:1010100097FF09C090958095709561957F4F8F4F90
:101020009F4F2068322E2AE030E0A3010E94AA0DD3
:10103000E82EE6183FC0022F853721F40F7E2AE004
:1010400030E01DC0097F8F3691F018F4883559F0D3
:10105000C5C0803719F0883711F0C0C0006104FFA7
:1010600009C0046007C024FF08C0066006C028E06D
:1010700030E005C020E130E002C020E132E0520162
:1010800007FF09C0F4E0AF0EB11CF201608171816D
:101090008281938108C0F2E0AF0EB11CF201608141
:1010A000718180E090E0A3010E94AA0DE82EE6186D
:1010B0000F77302E36FE0BC0332D3E7FE11650F4F5
:1010C00034FE0AC032FC08C0332D3E7E05C00E2D12
:1010D000332D03C00E2D01C0012F34FF0CC0FE01C3
:1010E000EE0DF11D8081803311F4397E08C032FF8E
:1010F00005C00E5F04C0832F867809F00F5F33FDB3
:1011000013C030FF06C01E2D0F1518F41F0D101B45
:101110000F2D0F1568F4B60180E290E03B8B0E9422
:10112000720D0F5F3B89F5CF0F1510F4F01A01C057
:10113000F12C34FF12C0B60180E390E03B8B0E949B
:10114000720D3B8932FF17C031FD03C088E790E084
:1011500002C088E590E0B6010CC0832F867859F074
:1011600031FF02C08BE201C080E237FD8DE2B601A3
:1011700090E00E94720DE11638F4B60180E390E031
:101180000E94720D1150F7CFEA94F301EE0DF11D9C
:101190008081B60190E00E94720DE110F5CF14C07D
:1011A000F4E0FF1558F584E0F81A33FE1EC0211054
:1011B00026C003FF2AC008E610E0F32DF0713F2E91
:1011C000F8018491811124C0FF2009F4E5CCB60117
:1011D00080E290E00E94720DFA94F6CFF6018681CB
:1011E000978126C08FEF9FEF23C0B60180E290E089
:1011F0000E94720DFA94F110F8CFD9CFF12CB601FC
:10120000822D90E00E94720DD4CF0CE610E0D5CF75
:1012100031108052B60190E00E94720D0F5F1F4F97
:10122000CFCF23E02F1510F483E0BECFF12CC1CF38
:101230006396E2E10C94590C29E288E190E00FB644
:10124000F894A895809360000FBE209360001092E0
:10125000620184B18C6384B987B18F6387B98AB125
:101260008AB981E090E00E94080E8093530182E0E9
:1012700090E00E94080E813009F4DBC210925F01F9
:101280002B9880E190E00E94080E8093610180E33A
:1012900090E00E94080E80936001E7E0F1E080E0BA
:1012A00090E061E070E08530910510F520916001DB
:1012B00030E0082E02C0359527950A94E2F720FF0A
:1012C00017C0009749F02FEF3EE944E2215030402B
:1012D0004040E1F700C00000A081B1814C919B012A
:1012E000028002C0220F331F0A94E2F7242B2C93B2
:1012F0000196349688309105B1F68BB1837F8BB916
:101300008AB18C608AB980E49CE90197F1F78AB1CF
:10131000837F8AB90E943A02789483E0782EEE2483
:10132000EA94FF24F39490E4B92E27E8C22E38EC17
:10133000A32E42E0D42E58E1852E912CC1E0D0E0BE
:1013400000E41CE944C0843009F488C08A3009F400
:10135000C1C08B3009F4CBC09BEF980F923008F4DA
:1013600078C0803F09F412C1843F09F472C0833F02
:1013700009F42DC1853F09F435C1863F09F441C107
:10138000873009F412C1813F09F446C18C3009F459
:1013900030C18D3009F43CC18E3009F481C18F30E9
:1013A00009F458C1843109F474C1803109F496C13B
:1013B000823F09F49CC1853109F4B5C110925D01E9
:1013C000813109F4BCC170925E010E946E05A8953E
:1013D0000E94080180915D018823B9F3833009F0F0
:1013E000B2CFE0915C018FEF8E0F853090F5F0E089
:1013F000EE0FFF1FEE0FFF1FED5FFE4FA081B181CB
:101400002C91CE01028002C0880F991F0A94E2F746
:10141000822B8C9340915C0150E0CA0101979C01A2
:1014200097FDA9C03595279535952795359527952D
:10143000F901E15AFE4F8770907897FD97C09E01A1
:1014400002C0220F331F8A95E2F7C9019181892BCF
:10145000818310925D0110925E01B7CFE0915C0133
:101460008FEF8E0F8530A8F7F0E0EE0FFF1FEE0F25
:10147000FF1FED5FFE4FA081B1819C919E01028014
:1014800002C0220F331F0A94E2F7822F809589232E
:101490008C9340915C0150E0CA0101979C0197FD3B
:1014A00072C0359527953595279535952795F9017E
:1014B000E15AFE4F8770907897FD60C09E0102C090
:1014C000220F331F8A95E2F7C90180959181892304
:1014D0008183BFCF80915C01811123C0F0925F01B5
:1014E0002B9A809161018F6180936101B2CF8091CD
:1014F0005C01811128C010925F012B98409161011D
:1015000080E090E09E01082E01C0220F0A94EAF7C5
:1015100020954223019685309105A1F74093610102
:1015200098CF9FEF980F953008F093CF9E0102C09F
:10153000220F331F9A95E2F7C90190916101892B1F
:101540008093610186CF9FEF980F953008F081CF8F
:101550009E0102C0220F331F9A95E2F7922F9095B9
:101560008091610189238093610173CF0197886F16
:101570009F6F019664CF295F3F4F54CF0197886FCB
:101580009F6F01969BCF295F3F4F8BCF6091530197
:1015900081E090E00E94100E0E948D030E9487035C
:1015A00010925D0110925E0110CF90915C019A3013
:1015B00020F48AE080935C019AE080E0F8013197A2
:1015C000F1F78F5F8917D0F310925D01FECE609125
:1015D000530181E090E00E94100E10925D01109284
:1015E0005E01F3CE0E94870310925D0110925E01AE
:1015F000ECCE2B9AF0925F0110925D0110925E0189
:10160000E4CE0E948D0310925D0110925E01DDCE4A
:101610002B9810925F011DCF64E181E090E00E9461
:10162000100E61E082E090E00E94100E61E083E025
:1016300090E00E94100E6FEF80E190E00E94100E8B
:1016400060E080E390E00E94100E10925D01109225
:101650005E01BBCEE0915C018FEF8E0F8530B8F557
:10166000F0E0EE0FFF1FEE0FFF1FED5FFE4FA081BA
:10167000B1818C9190E0028002C0959587950A9483
:10168000E2F7817080935C0110925D0110925E011F
:101690009CCEE0925C0110925D0110925E0195CEAD
:1016A00088E00FB6F894A895809260000FBE8093F2
:1016B00060003FEB44ED81E0315040408040E1F775
:1016C00000C0000010925D0110925E017ECEE0929B
:1016D0005C0110925D01D0925E0177CE80915C0139
:1016E0008093620110925D0110925E016ECEF092C5
:1016F0005E0180915C01811135C084E080935C01C2
:10170000F0925B01E0925A01E0925901E092580197
:10171000E0925701E0925601E092550110925E016D
:1017200010925D0152CE80915C01882309F44DC076
:101730008093530110925E0110925D0146CEE092BB
:101740005501E0925601E0925701E0925801E09273
:101750005901E0925A01E0925B01E0925C01F09243
:101760005E0133CE813009F45DC0823099F183305F
:1017700009F02ACFB0927C00C0927A00A0927C003F
:1017800080917A00806480937A0080917A0086FD4F
:10179000FCCF80917A00806480937A0080917A00F7
:1017A00086FDFCCFD0925C018091780080935B0134
:1017B0008091790080935A0110925E01B0927C0072
:1017C000C0927A0010925D0100CEF0925E011092FC
:1017D0005D01FBCD80915B01813079F1823009F0B0
:1017E000F3CEB0927C00C0927A0080917C0087603A
:1017F00080937C0080917A00806480937A0080914D
:101800007A0086FDFCCFD0925C01809178008093B5
:101810005B018091790080935A0110925E011092D1
:101820005D01D3CDD0925C0110925E0110925D01FA
:10183000CCCD80935F012B9A24CDB0927C00C092D6
:101840007A0080917C00887F866080937C00809104
:101850007A00806480937A0080917A0086FDFCCFC4
:10186000F0925C018091780080935B019091790007
:1018700090935A0110925E01B1CF2F923F924F92F6
:101880005F926F927F928F929F92AF92BF92CF9210
:10189000DF92EF92FF920F931F93CF93DF93CDB719
:1018A000DEB7CA1BDB0B0FB6F894DEBF0FBECDBF91
:1018B00009942A88398848885F846E847D848C8462
:1018C0009B84AA84B984C884DF80EE80FD800C816B
:1018D0001B81AA81B981CE0FD11D0FB6F894DEBF4E
:1018E0000FBECDBFED010895283008F027E0332763
:1018F000DA01990F311D87FD916000966105710530
:1019000039F432602E5F3D9330E32A95E1F7089574
:101910009F3F30F080387105610509F03C5F3C5F06
:101920003D93913008F08068911DDF93CF931F9312
:101930000F93FF92EF92192F987F9695E92F969526
:101940009695E90FFF27EE5CFE4F99273327EE248B
:10195000FF24A701E70105900894079428F4360FA7
:10196000E71EF81E491F511D660F771F881F991F1C
:101970000694A1F70590079428F4E70EF81E491F76
:10198000561FC11D770F881F991F661F0694A1F768
:101990000590079428F4F80E491F561FC71FD11D44
:1019A000880F991F661F771F0694A1F7059007946B
:1019B00020F4490F561FC71FD81F990F661F771FA6
:1019C000881F0694A9F784911095177041F0D69559
:1019D000C79557954795F794E7941A95C1F7E8EDA1
:1019E000F0E0689415901591359165919591059069
:1019F0007FE27395E118F10A430B560BC90BD0092E
:101A0000C0F7E10CF11E431F561FC91FD01D7EF405
:101A1000703311F48A95E6CFE894015030F0080F46
:101A20000AF40027021708F4202F2395022F7A3397
:101A300028F079E37D932A95E9F710C07D932A95E4
:101A400089F6069497956795379517951794E11839
:101A5000F10A430B560BC90BD00998F023957E91E0
:101A600073957A3308F070E37C932013B8F77E9176
:101A700070617D9330F0839571E37D9370E32A95D7
:101A8000E1F71124EF90FF900F911F91CF91DF911B
:101A9000992787FD90950895FB01DC0102C0059010
:101AA0000D9241505040D8F70895FC0105906150C7
:101AB00070400110D8F7809590958E0F9F1F089564
:101AC000DC0101C06D9341505040E0F70895FC01E6
:101AD0006150704001900110D8F7809590958E0F5D
:101AE0009F1F08950F931F93CF93DF93FB012381D3
:101AF00021FD03C08FEF9FEF28C022FF16C0468153
:101B00005781248135814217530744F4A081B18164
:101B10009D012F5F3F4F318320838C932681378136
:101B20002F5F3F4F3783268310C0EB01092F182FFB
:101B30000084F185E02D0995892BE1F68E819F8146
:101B400001969F838E83812F902FDF91CF911F91DC
:101B50000F910895FA01AA27283051F1203181F11F
:101B6000E8946F936E7F6E5F7F4F8F4F9F4FAF4FA5
:101B7000B1E03ED0B4E03CD0670F781F891F9A1FB8
:101B8000A11D680F791F8A1F911DA11D6A0F711D6C
:101B9000811D911DA11D20D009F468943F912AE078
:101BA000269F11243019305D3193DEF6CF01089560
:101BB000462F4770405D4193B3E00FD0C9F7F6CF91
:101BC000462F4F70405D4A3318F0495D31FD405259
:101BD000419302D0A9F7EACFB4E0A69597958795EF
:101BE00077956795BA95C9F70097610571050895CE
:101BF0009B01AC010A2E069457954795379527957A
:101C0000BA95C9F7620F731F841F951FA01D089511
:101C1000F999FECF92BD81BDF89A992780B50895B4
:101C2000262FF999FECF1FBA92BD81BD20BD0FB6F8
:101C3000F894FA9AF99A0FBE01960895F894FFCF96
:101C4000FF5A0105000A00280002002800030028AE
:0C1C500000040028000500250002000030
:00000001FF
