:100000000C94E9000C945A020C9406010C9406011D
:100010000C9406010C9406010C9406010C94060144
:100020000C9406010C9406010C9406010C94060134
:100030000C9406010C9406010C9406010C94060124
:100040000C9406010C9406010C9406010C94060114
:100050000C9406010C9406010C9406010C94060104
:100060000C9406010C9406016E616E00696E6600C8
:1000700009021200010100C005090400000000008F
:10008000000012011001FF0000087131110005018C
:10009000010200011A0343006C0075007300740034
:1000A0006500720020004300540052004C002203FF
:1000B0003800300038003600200043006F006E002A
:1000C000730075006C00740061006E0063007900BD
:1000D000040309040100FF8E00407A10F35A00A0C7
:1000E000724E18090010A5D4E80000E87648170001
:1000F00000E40B54020000CA9A3B000000E1F50541
:10010000000080969800000040420F000000A0868A
:1001100001000000102700000000E80300000000BC
:100120006400000000000A00000000000100000060
:1001300000002C76D888DC674F0823DFC1DFAE597A
:10014000E1B1B796E5E3E453C63AE651997696E80D
:10015000E6C28426EB898C9B62ED407C6FFCEFBC91
:100160009C9F40F2BAA56FA5F490055A2AF75C93BC
:100170006B6CF9676DC11BFCE0E40D47FEF520E6F2
:10018000B500D0ED902E0300943577050080841ED5
:10019000080000204E0A000000C80C333333330F30
:1001A000986E12831141EF8D2114893BE65516CFCD
:1001B000FEE6DB18D1844B381BF77C1D901DA4BBD9
:1001C000E424203284725E228100C9F124ECA1E58E
:1001D0003D2711241FBECFEFD8E0DEBFCDBF12E018
:1001E000A0E0B1E0EAE5F3E202C005900D92A03193
:1001F000B107D9F712E0A0E1B2E001C01D92AD391C
:10020000B107E1F70E94E70C0C94AB110C940000CD
:10021000CF93DF9360912C02635067FD14C020914F
:1002200029028CE090E0821B9109EC01C05DDD4F5A
:10023000809128028D3209F457C08091270287FDF2
:10024000A0C010922C028091010184FF40C06091F7
:1002500000016F3F09F43BC0693008F473C0685077
:100260006093000190911B0288E8892780931B020C
:1002700068E08091270287FD1CC020912A023091FE
:100280002B0286FF75C0ACE1B2E0F901962F849194
:100290008D9331969150D9F78FEF860F90E00196AC
:1002A000280F391F30932B0220932A02C4E0C60F77
:1002B00054C08CE192E00E945005682F893008F408
:1002C000A8C08FEF80930001CEE1C093010194E1BB
:1002D00089B18C7031F49150D9F710922D0210929F
:1002E0002602DF91CF910895683009F0AACF83EC00
:1002F00080931B028AE58093010110922702888176
:10030000982F907609F048C02A8110922402998192
:1003100091114EC08F7119F481E0809324021092E4
:10032000250224E232E082E030932B0220932A025D
:100330009F81911104C09E81981708F4892F8093A2
:1003400000017FCF1092000190911B0288E889275D
:1003500080931B0261118DCFC4E08CE192E00E947A
:100360005602CC3009F4B1CF8FEF80930001ADCFAE
:10037000D901ECE1F2E0962F8D9181939150E1F754
:100380008BCFCE010E94F3058F3F09F1882309F43A
:1003900058CF1092000155CFCE010E94D3048F3F59
:1003A00039F6988197FD1DC090E890932702C7CF3A
:1003B000953089F0963009F19830D9F0993099F05C
:1003C00081E09A3009F080E024E232E0ADCF8EE1A6
:1003D0008093010136CF20932D0224E232E080E0A9
:1003E000A3CF8E81E1CF20932F0224E232E080E080
:1003F0009BCF2FE232E081E097CF8B818130F1F00B
:100400008230A1F0833041F080E090E490932702A5
:100410008FCFC4E0C80FA1CF211118C080ED90E0AC
:1004200090932B0280932A0284E0EFCF80E790E044
:1004300090932B0280932A0282E1E7CF82E890E03A
:1004400090932B0280932A0282E1DFCF213051F07A
:100450002230D1F684E990E090932B0280932A0217
:100460008AE1D3CF8EEA90E090932B0280932A0208
:1004700082E2CBCFE9E6F0E0808183608083E89A76
:100480000895A82FB92F80E090E041E050EA6095F0
:1004900030E009C02D9182279795879510F0842729
:1004A0009527305EC8F36F5FA8F30895EADF8D9358
:1004B0009D930895CF93CFB7CF93C3954B9BE9F707
:1004C0004B9B09C04B9B07C04B9B05C04B9B03C07C
:1004D0004B9B01C0A1C0DF93C0912902DD27C05D05
:1004E000DD4F4B9B02C0DF91EBCF2F930F931F93F8
:1004F00009B12FEF03FB20F94F933F9319B14FEF51
:10050000012703FB21F93BE031C04E7F012F19B1D8
:10051000216028C0102F4D7F2260000009B129C042
:100520004B7F2460012F000019B12BC019B1477F08
:1005300028602AC04F7E09B120612CC04F7D19B1BF
:1005400020622FC04F7B09B1206432C0422709B11D
:1005500049934FEF0000102713FB20F919B11C70CD
:10056000C9F1297F91F2012703FB21F909B1237F0A
:1005700089F2315058F1102713FB22F919B1277E67
:1005800079F2012703FB23F92F7C81F209B11027AF
:1005900013FB24F92F7971F200C019B1012703FB75
:1005A00025F92F7359F200C009B1102713FB26F962
:1005B000223040F200C019B1012703FB27F9243093
:1005C00028F64F77206819B10000F9CF11E01CBB65
:1005D000002717C03B503195C31BD04011E01CBB16
:1005E0000881033CE9F00B34D9F0209126021981EF
:1005F000110F1213EDCF093641F10D3211F0013E0A
:1006000039F700932E023F914F911F910F912F9137
:10061000DF91CCB3C0FD51CFCF91CFBFCF91189513
:1006200020912E02222379F310912C02112311F52F
:10063000343012F130932C022093280210912902B9
:100640003BE0311B3093290217C000912C0201308E
:100650008CF40AE53091010134FD10C000930101D2
:10066000CBE1D2E00FC02795A8F45150A9F4220F96
:100670000000F9CF4AE503C042ED01C0432FC4E1B9
:10068000D0E032E01AB11C605B9A1AB90BB120E4D9
:100690001CE05F93012756E00BB9279520F45150D9
:1006A00021F4220FF9CF012756E000003B5A0BB985
:1006B000D0F2279528F4515029F4220F0000F9CFE9
:1006C000012756E027950BB920F4515021F4220F51
:1006D000F9CF012756E0299133230BB921F6037F87
:1006E00010912D02110FC651D0400BB911F010938B
:1006F000260211E01CBB08601AB1137F402F437F14
:100700005F9100C000C00BB91AB94BB97CCFE09122
:100710000301F09104013197F1F7882359F03D98D6
:10072000459A359BFECF8091050190910601019776
:10073000F1F708953D9A4598F6CF0F931F93CF9305
:10074000DF9305E512E0C0E3D0E0F80161918F018D
:10075000CE010E949D112196C433D105B1F7DF91DE
:10076000CF911F910F9108950F931F93CF93DF9314
:10077000809154028130C1F060E082E090E00E94FC
:100780009D1109E512E0C0E1D0E0F80161918F010F
:10079000CE010E949D112196C431D105B1F7DF91A0
:1007A000CF911F910F91089561E082E090E00E9447
:1007B0009D11E7CF3C98449A0895811103C03C9A5B
:1007C000449808950C94DA032A9A80E00E94DD038D
:1007D00080E00C94870380E00E94DD0381E00E94AA
:1007E00087030E94DA032A9808950F931F93CF93EB
:1007F000DF93082F10E0C7E0D0E00AC00E94DA03C0
:1008000081E00E94870380E00E948703219768F0BF
:1008100098010C2E02C0359527950A94E2F720FD29
:10082000EDCF80E00E94DD03EBCF0E94DA0381E090
:100830000E948703C6B180E00E948703C295C17001
:1008400081E08C27DF91CF911F910F910895CF9375
:10085000DF9300D01F92CDB7DEB74B836A838983C5
:100860000E94E4038981880F0E94F5036A81862F24
:100870000E94F5034B81842F0E94F5030F900F9087
:100880000F90DF91CF910C94EB031F93CF93DF93E5
:10089000182F0E94DA0380E00E948703D8E0C0E0AE
:1008A00081E00E948703CC0F3499C16080E00E94F0
:1008B0008703D150A9F7111110C080E00E94DD0319
:1008C00081E00E94870380E00E9487030E94DA0390
:1008D0008C2FDF91CF911F9108950E94DA03F0CF02
:1008E000CF93DF931F92CDB7DEB789830E94E403D5
:1008F0008981880F81600E94F50381E00E94450490
:1009000089830E94EB0389810F90DF91CF91089535
:10091000CF93DF931F92CDB7DEB789830E94E403A4
:100920008981880F0E94F50389830E94EB038981E6
:100930000F90DF91CF910895CF93DF931F92CDB7A2
:10094000DEB70E94E40381EE0E94F50381E00E947D
:10095000450489830E94EB0389810F90DF91CF9139
:100960000895CF93C82F0E94E40380EE0E94F50300
:1009700091E0892F01C0880FCA95EAF70E94F5031C
:100980000E94EB032FE789EA93E0215080409040DA
:10099000E1F700C00000CF910C949C04883008F06F
:1009A00008950C94B104FC0181E192E090932B0234
:1009B00080932A029181923009F447C070F4992300
:1009C000E1F1913009F544E050E064ED70E081E13F
:1009D00092E00E94D91084E00895933041F198305C
:1009E00098F484819581809789F081E02681378110
:1009F000232BD9F0819508959695879590930401BE
:100A000080930301892B79F180E008958091510250
:100A1000882389F1828180FD2EC082E080931502B7
:100A20002681378181E0232B29F780E0E3CF809175
:100A300015028093110281E0089582818093110252
:100A400083818093120282E0089582819381909342
:100A5000060180930501009779F681E090E090937C
:100A600006018093050181E090E09093040180935A
:100A7000030180E0089581E08093150280930201D4
:100A80002681378130931A02209319028181809345
:100A9000180280E290E09093170280931602C2CF72
:100AA000CF93FC01C62F80911502813051F0462F63
:100AB00050E060E070E0CF010E94ED108C2FCF91EC
:100AC00008952091190230911A02862F90E028177C
:100AD000390708F4C22F809116029091170280976F
:100AE00069F7CC2359F390911002AFEFAC0FB0E04F
:100AF000AD014F5F5F4F4E0F5F1F7FEF60E282E0FF
:100B00000AC08083909110029F5F909310023196EB
:100B1000E417F50759F19923A1F3913009F19230C7
:100B200009F1933071F1943081F1953081F1963073
:100B3000D1F19730E1F1983071F1993081F19A302B
:100B4000D1F19B30E1F19C30F1F19D3009F43FC0CF
:100B50009E3009F440C0903209F441C07083D2CF76
:100B60006083D0CF909147029083CCCF2150310940
:100B70002A1B3B0B30931A02209319028C2FCF9122
:100B80000895909148029083BDCF1082BBCF909181
:100B900049029083B7CF90914C029083B3CF90914C
:100BA0004D029083AFCF90914A029083ABCF90914A
:100BB0004B029083A7CF90914E029083A3CF909148
:100BC0004F0290839FCF9091500290839BCF909142
:100BD0005102908397CF90915202908393CF90913E
:100BE000530290838FCFCF93FC01C62F80911502C3
:100BF000813051F0462F50E060E070E0CF010E945C
:100C0000ED108C2FCF9108952091190230911A0286
:100C1000862F90E02817390708F051C0822F4091A5
:100C20001602509117024032510561F7909102016E
:100C3000913009F470C0CC2329F390911002C15077
:100C40006C2F70E0AB014F5F5F4F4E0F5F1FB1E045
:100C5000923020F19230A9F1933009F444C09430DD
:100C6000E9F0953009F44BC0963009F45BC0973039
:100C700009F45CC0983009F446C0993009F447C0C3
:100C80009A3009F457C09B3009F458C09C3009F4DD
:100C900059C09D3019F4A081A093510231969F5FF5
:100CA00090931002E417F50799F621503109261B9D
:100CB000370B30931A0220931902CF910895862F93
:100CC000AECFA081A11104C0B08390911002A1E029
:100CD000A093470231969F5F90931002E417F507A7
:100CE00009F0B6CFE2CFA081A093480231969F5F72
:100CF00090931002E417F50709F0AACFD6CFA08190
:100D0000A0934902CBCFA081A0934C02C7CFA08172
:100D1000A0934D02C3CF908190931002CFEFC80FE4
:100D2000319689CFA081A0934A02B8CFA081A09329
:100D30004B02B4CFA081A0934E02B0CFA081A0936C
:100D40004F02ACCFA081A0935002A8CF2F923F9228
:100D50004F925F926F927F928F929F92AF92BF92CB
:100D6000CF92DF92EF92FF920F931F93CF93DF9377
:100D7000CDB7DEB763970FB6F894DEBF0FBECDBF19
:100D80000E949C04282E2DE532E004E612E0E12CBE
:100D9000F12C312C512C40E2C42ED12C8824839488
:100DA000912C61E2662E712C3D872C8713C0A8958B
:100DB0000E94080153943FEFE31AF30A2C853D8506
:100DC000285F3F4F3D872C87085F1F4F38E0531641
:100DD00009F4AEC1EC85FD851082F8011082EC8526
:100DE000FD85D682C582852D0E94B104A89580E537
:100DF0000E9488048823D9F20E94E40380EA0E94BA
:100E0000F50380E00E94F50380E00E94F5030E9454
:100E1000EB030E94E40381EA0E94F50381E00E9453
:100E20004504898B0E94EB038989823509F0BFCF85
:100E30000E94E40381EA0E94F50381E00E944504D8
:100E4000898B0E94EB0389898D3209F0B0CF0E9413
:100E5000E40381EA0E94F50381E00E944504898B46
:100E60000E94EB038989803509F0A1CF0E94E40339
:100E700081EA0E94F50381E00E944504898B0E946B
:100E8000EB038989893609F092CF0E94E40381EA55
:100E90000E94F50381E00E944504898B0E94EB03C8
:100EA0008989813009F083CF0E94E40381EA0E949E
:100EB000F50381E00E9445040E94EB030E94E403D5
:100EC00081EA0E94F50381E00E944504898B0E941B
:100ED000EB03898930E08F87388B0E94E40381EA35
:100EE0000E94F50381E00E944504898B0E94EB0378
:100EF000898990E0982F88272F853889AC01420F87
:100F0000531F5B874A870E94E40381EA0E94F5032E
:100F100081E00E9445040E94EB030E94E40381EA01
:100F20000E94F50381E00E9445040E94EB030E94A9
:100F3000E40381EA0E94F50381E00E9445040E94D7
:100F4000EB030E94E40381EA0E94F50381E00E9422
:100F500045040E94EB032A853B85232B09F427CF08
:100F60001A8219825B822C853D853B8B2A8BEE860B
:100F7000DD82CC829F828E82922C798668860E9446
:100F8000E40381EA0E94F50381E00E944504A82E53
:100F90000E94EB03B12C0E94E40381EA0E94F50356
:100FA00081E00E944504898B0E94EB03898990E0CF
:100FB000982F8827AC014A0D5B1D5D874C870E94E6
:100FC000E40381EA0E94F50381E00E944504482E73
:100FD0000E94EB03512C0E94E40381EA0E94F50376
:100FE00081E00E944504898B0E94EB03898990E08F
:100FF000982F8827840D951D29813A8182179307A0
:1010000009F089C00E94E40381EA0E94F50381E0AF
:101010000E944504898B0E94EB038989A82EB12C7C
:10102000C12CD12C0E94E40381EA0E94F50381E0E7
:101030000E944504282E0E94EB030E94E40381EAEB
:101040000E94F50381E00E944504898B0E94EB0316
:10105000422D50E060E070E0762F652F542F44273A
:10106000898990E0A0E0B0E0DC0199278827840F0F
:10107000951FA61FB71FA80EB91ECA1EDB1E0E9411
:10108000E40381EA0E94F50381E00E944504282ED2
:101090000E94EB03822D90E0A0E0B0E0B82FAA27D9
:1010A0009927882725013601480E591E6A1E7B1E86
:1010B0004C855D854130510509F45CC041145104F3
:1010C00061047104E1F0A12CB12C6501892D450169
:1010D0005601D82E0E94E40381EA0E94F50381E0C4
:1010E0000E9445040E94EB03FFEF8F1A9F0AAF0A8C
:1010F000BF0A84149504A604B70461F79D2C2981C6
:101100003A812F5F3F4F3A8329834A855B852417B5
:10111000350709F034CF292C5B802A893B893D872C
:101120002C87CC80DD808E809F80688479843FCE40
:101130003092530247E0421518F0822D0E94B1040C
:10114000832D63960FB6F894DEBF0FBECDBFDF913F
:10115000CF911F910F91FF90EF90DF90CF90BF90B4
:10116000AF909F908F907F906F905F904F903F9047
:101170002F900895292C5B804A895B89BE84CC809E
:10118000DD808E809F806884798420E030E04B2C65
:1011900059014F87588B0E94E40381EA0E94F503AE
:1011A00081E00E9445040E94EB038FEFA81AB80A61
:1011B0004F85588990E1A916B10459F75D874C878E
:1011C000B42C0E94E40381EA0E94F50381E00E94AE
:1011D0004504898B0E94EB03898930E08F87388B27
:1011E0000E94E40381EA0E94F50381E00E94450425
:1011F000898B0E94EB03898990E0982F88272F859F
:101200003889820F931F049709F0D1CD0E94E4031F
:1012100081EA0E94F50381E00E944504A82E0E9405
:10122000EB0330E0AF86388B0E94E40381EA0E9432
:10123000F50381E00E944504898B0E94EB038989B4
:101240002F8538898111B3CD8A2D8F70482F50E0BA
:10125000EC85FD8554834383329522952F70232797
:101260003F702327328321832130310549F1223019
:10127000310559F1EC85FD8585810E94880488231C
:1012800009F495CDF80180818823E9F040E161E01F
:10129000EC85FD8585810E94270440E063E0EC85B4
:1012A000FD8585810E94270481E0EC85FD85808392
:1012B000C4010B2C01C0880F0A94EAF7382A77CDB5
:1012C00076826582D7CF40E3E2CF882399F281E02E
:1012D000F8018083CFCFA3E1B0E0E1E7F9E00C941F
:1012E000CA0F6C014B012A01FC011782168283810F
:1012F00081FF43C3AE014F5F5F4F3A01F601938117
:10130000F40193FD859193FF81914F01882309F4A6
:1013100030C3853239F493FD859193FF81914F015C
:10132000853239F4B60190E00E94FF105201250188
:10133000E5CF10E0F12C20E02032A0F48B3269F0F0
:1013400030F4803259F0833269F420612CC08D3240
:1013500039F0803339F4216026C02260246023C034
:10136000286021C027FD27C030ED380F3A3078F4CF
:1013700026FF06C0FAE01F9F300D1124132F13C063
:101380004AE0F49E300D1124F32E20620CC08E3200
:1013900021F426FDEEC2206406C08C3611F42068CC
:1013A00002C0883641F4F40193FD859193FF819149
:1013B0004F018111C1CF9BEB980F933018F420613E
:1013C000805E06C09BE9980F933008F071C12F7EB4
:1013D00026FF16E02F73322E853619F42064322E44
:1013E00008C0863621F4F22FF0683F2E02C011119A
:1013F000115037FE07C01C3350F4EE24E394E10E85
:1014000027E00BC0183038F027E017E005C027E0D0
:101410004CE3E42E02C0212FE12C520144E0A40E43
:10142000B11CF20160817181828193810E2DA30133
:101430000E9401102C01098100FF02C003FF07C0B8
:1014400031FC08C032FE09C030E2232E07C02DE275
:10145000222E04C09BE2292E01C0212C802F8C70EB
:1014600019F0211068C2A8C237FE0FC0E40C04FFB7
:1014700004C08A81813309F4EA941E1474F5F8E0FB
:10148000FE1578F588E0E82E2CC036FC2AC0812FA6
:1014900090E0841595059CF02CEF42162FEF520634
:1014A00074F0432D4068342E0AC0E2E0F0E0EC0F07
:1014B000FD1FE10FF11D8081803319F411501111CE
:1014C000F4CF37FE0EC0EE24E394E10E812F90E0BE
:1014D000481659062CF4141904C0EE24E39401C0F4
:1014E00010E037FE06C01414150434F4C20101964E
:1014F00005C085E090E002C081E090E021100196F7
:10150000112331F0212F30E02F5F3F4F820F931FC7
:101510002F2D30E08217930714F4F81A01C0F12C34
:10152000832D897049F4FF2039F0B60180E290E004
:101530000E94FF10FA94F7CF222029F0B601822DE5
:1015400090E00E94FF1033FC09C0FF2039F0B60183
:1015500080E390E00E94FF10FA94F7CF37FE5AC064
:10156000942D852D57FE02C090E080E0292E382E64
:1015700020E030E0A2014E1951095D874C87A2019D
:10158000421953095F874E87612F70E04427552722
:10159000461B570B598B488B5FEF2516350649F4D0
:1015A000B6018EE290E02A8B3B8B0E94FF103B89B4
:1015B0002A89421453046CF04C855D85421553050D
:1015C00044F4EE85FF85E20FF31FE60DF71D8181E0
:1015D00001C080E351E0251A31082F5F3F4F488951
:1015E0005989241635064CF0B60190E02A8B3B8BC6
:1015F0000E94FF102A893B89CFCF2414350439F487
:101600009A81963318F4953311F404FF81E3B601FF
:1016100090E04BC08A81813309F00F7EB60190E0E3
:101620000E94FF10111105C034FC18C085E690E03F
:1016300017C0B6018EE290E00E94FF1082E0EE2417
:10164000E394E80EF301E80FF11D8081B60190E00C
:101650000E94FF1011508E2D91F7E6CF85E490E0A7
:10166000B6010E94FF1057FC05C04114510439F423
:1016700004FF05C05194419451088DE201C08BE2F2
:10168000B60190E00E94FF1080E39AE049165104F1
:101690002CF08F5F5AE0451A5108F7CFB60190E061
:1016A0000E94FF10B601C201C0960E94FF1057C1F0
:1016B000833631F0833779F0833509F058C021C083
:1016C0005201E2E0AE0EB11CF2018081898301E09B
:1016D00010E0230114C05201F2E0AF0EB11CF20180
:1016E0004080518026FF03C0612F70E002C06FEF81
:1016F0007FEFC2012A8B0E94F4108C012A892F7778
:1017000015C05201F2E0AF0EB11CF20140805180D1
:1017100026FF03C0612F70E002C06FEF7FEFC201B0
:101720002A8B0E94E2108C012A892068322E23FD28
:101730001AC08F2D90E008171907A8F4B60180E2AF
:1017400090E00E94FF10FA94F4CFF20137FC8591EB
:1017500037FE81912F01B60190E00E94FF10F11039
:10176000FA94015011090115110579F7F8C0843672
:1017700011F0893659F5520127FF09C0F4E0AF0E88
:10178000B11CF20160817181828193810AC0F2E013
:10179000AF0EB11CF20160817181882777FD8095C1
:1017A000982F2F76322E97FF09C0909580957095CF
:1017B00061957F4F8F4F9F4F2068322E2AE030E097
:1017C000A3010E943711E82EE6183FC0022F85378B
:1017D00021F40F7E2AE030E01DC0097F8F3691F0A2
:1017E00018F4883559F0C5C0803719F0883711F0E2
:1017F000C0C0006104FF09C0046007C024FF08C026
:10180000066006C028E030E005C020E130E002C0FC
:1018100020E132E0520107FF09C0F4E0AF0EB11C35
:10182000F201608171818281938108C0F2E0AF0E84
:10183000B11CF2016081718180E090E0A3010E94FF
:101840003711E82EE6180F77302E36FE0BC0332DF9
:101850003E7FE11650F434FE0AC032FC08C0332D3E
:101860003E7E05C00E2D332D03C00E2D01C0012F6D
:1018700034FF0CC0FE01EE0DF11D8081803311F4A8
:10188000397E08C032FF05C00E5F04C0832F867802
:1018900009F00F5F33FD13C030FF06C01E2D0F157A
:1018A00018F41F0D101B0F2D0F1568F4B60180E200
:1018B00090E03B8B0E94FF100F5F3B89F5CF0F1527
:1018C00010F4F01A01C0F12C34FF12C0B60180E30D
:1018D00090E03B8B0E94FF103B8932FF17C031FD27
:1018E00003C088E790E002C088E590E0B6010CC034
:1018F000832F867859F031FF02C08BE201C080E26D
:1019000037FD8DE2B60190E00E94FF10E11638F439
:10191000B60180E390E00E94FF101150F7CFEA94E7
:10192000F301EE0DF11D8081B60190E00E94FF10E1
:10193000E110F5CF14C0F4E0FF1558F584E0F81A73
:1019400033FE1EC0211026C003FF2AC008E610E0A7
:10195000F32DF0713F2EF8018491811124C0FF20F6
:1019600009F4E5CCB60180E290E00E94FF10FA9401
:10197000F6CFF6018681978126C08FEF9FEF23C0B7
:10198000B60180E290E00E94FF10FA94F110F8CFC7
:10199000D9CFF12CB601822D90E00E94FF10D4CF58
:1019A0000CE610E0D5CF31108052B60190E00E94D5
:1019B000FF100F5F1F4FCFCF23E02F1510F483E0F0
:1019C000BECFF12CC1CF6396E2E10C94E60F29E281
:1019D00088E190E00FB6F894A895809360000FBE60
:1019E00020936000109253023C98449A3D98459A87
:1019F00010921A021092190284B18F6384B987B1D0
:101A00008F6387B98AB1806F8AB95E9A5D9A2A9886
:101A100081E090E00E9495118093470282E090E07F
:101A20000E949511813009F48FC0109254022998B8
:101A300059E5E52E52E0F52E05E512E0C0E1D0E0D3
:101A4000CE010E949511F70181937F01CE0180960E
:101A50000E949511F80181938F012196C431D1051F
:101A600079F70E94A6068BB1837F8BB98AB18C600F
:101A70008AB980E49CE90197F1F78AB1837F8AB93A
:101A80000E943A027894B3E04B2ECFEFD1E010E4FD
:101A9000912E07E8A02E88EC582E92E0B92E25E072
:101AA000822ECC24C394D12C48E1642E712C00E406
:101AB0001CE9A8950E940801809151028823C9F36E
:101AC000833009F46AC0843009F4B1C08A3009F463
:101AD000E7C08B3009F4F0C0853009F4F9C08630D6
:101AE00009F4FCC0803F09F4FFC0843F09F450C0F2
:101AF000833F09F41AC1853F09F422C1863F09F4E6
:101B00002EC1873009F4FFC0813F09F437C18C3002
:101B100009F41DC18D3009F429C18E3009F481C149
:101B20008F3009F452C1843109F46DC1823F09F448
:101B30008FC1853109F4A7C1813109F4E5C1109243
:101B4000510240925202B5CF80935402299A70CF2D
:101B50000E94B104E0915002E695E695F0E0EE0FA8
:101B6000FF1FEE0FFF1FEE0FFF1FE35AFD4F858192
:101B70000E947004909150029370960101C0220F50
:101B80009A95EAF7822391E009F490E0909350024D
:101B900010925102109252028CCF809150028150CB
:101BA0008032B0F78093500286958695E82FF0E05A
:101BB000EE0FFF1FEE0FFF1FEE0FFF1FE35AFD4F4B
:101BC0009081913029F70E94B104E0915002E6958E
:101BD000E695F0E0EE0FFF1FEE0FFF1FEE0FFF1F69
:101BE000E35AFD4F85810E94700490915002292F85
:101BF0002370A60102C0440F551F2A95E2F79A01EF
:101C0000482F422BE92FE695E695F0E0EE0FFF1FF7
:101C1000EE0FFF1FEE0FFF1FE35AFD4F61E08581BE
:101C20000E942704109251021092520242CF8091DA
:101C300050028150803208F0ABCF809350028695DD
:101C40008695E82FF0E0EE0FFF1FEE0FFF1FEE0F5F
:101C5000FF1FE35AFD4F9081913009F099CF0E9408
:101C6000B104E0915002E695E695F0E0EE0FFF1F1B
:101C7000EE0FFF1FEE0FFF1FE35AFD4F85810E94FD
:101C8000700490915002292F2370F60102C0EE0FCC
:101C9000FF1F2A95E2F79F012095482F4223B2CFDC
:101CA00080915002811174CFD0935402299A1092DE
:101CB000510210925202FDCE80915002811168CFE4
:101CC0001092540229981092510210925202F1CEB1
:101CD0002A9A1092510210925202EBCE2A98109238
:101CE000510210925202E5CE6091470281E090E0ED
:101CF0000E949D110E94B4030E949D031092510204
:101D000010925202D6CE909150029A3020F48AE07E
:101D1000809350029AE080E0F8013197F1F78F5FED
:101D20008917D0F310925102C4CE6091470281E02E
:101D300090E00E949D111092510210925202B9CE71
:101D40000E949D031092510210925202B2CE299A23
:101D5000D09354021092510210925202AACE0E94C5
:101D6000B4031092510210925202A3CE29981092FD
:101D7000540210925102109252029BCE64E181E013
:101D800090E00E949D1161E082E090E00E949D1130
:101D900061E083E090E00E949D1130E1E32EF12CA0
:101DA0006FEFC7010E949D1160E0C70180960E94FD
:101DB0009D11FFEFEF1AFF0A24E1E216F10481F70B
:101DC000109251021092520274CE809150028150B2
:101DD000803200F58093500286958695E82FF0E0DA
:101DE000EE0FFF1FEE0FFF1FEE0FFF1FE35AFD4F19
:101DF0009081913009F4ACCEC09350021092510200
:101E00001092520256CEC09350021092510210927C
:101E100052024FCEC093500210925102B092520221
:101E200048CE88E00FB6F894A895609260000FBE87
:101E3000809360004FEB54ED81E041505040804072
:101E4000E1F700C00000109251021092520231CE10
:101E5000D093520280915002811120C08092500292
:101E6000D0934F02C0934E02C0934D02C0934C02D8
:101E7000C0934B02C0934A02C0934902109252028F
:101E80001092510216CE809150028823C1F18093A6
:101E9000470210925202109251020BCE813009F487
:101EA00072C0833009F03ECF90927C00A0927A00FD
:101EB00050927C0080917A00806480937A008091B7
:101EC0007A0086FDFCCF80917A00806480937A004E
:101ED00080917A0086FDFCCFB0925002809178000C
:101EE00080934F028091790080934E0210925202AB
:101EF00090927C00A0927A0010925102DACDD09399
:101F0000520210925102D5CDE0915002E132A8F078
:101F100010925102C0934902C0934A02C0934B02EF
:101F2000C0934C02C0934D02C0934E02C0934F0227
:101F3000C0935002D0935202BCCDF0E0EE0FFF1FD1
:101F4000EE0FFF1FEE0FFF1FE95FFE4F87818093AB
:101F50005002868180934F02858180934E02848156
:101F600080934D02838180934C02828180934B0247
:101F7000818180934A0280818093490210925102AC
:101F80001092520296CD109250021092520210926C
:101F900051028FCD2F923F924F925F926F927F921C
:101FA0008F929F92AF92BF92CF92DF92EF92FF9269
:101FB0000F931F93CF93DF93CDB7DEB7CA1BDB0B15
:101FC0000FB6F894DEBF0FBECDBF09942A883988BA
:101FD00048885F846E847D848C849B84AA84B984C1
:101FE000C884DF80EE80FD800C811B81AA81B981CD
:101FF000CE0FD11D0FB6F894DEBF0FBECDBFED01E1
:102000000895283008F027E03327DA01990F311DB1
:1020100087FD916000966105710539F432602E5F8D
:102020003D9330E32A95E1F708959F3F30F08038E3
:102030007105610509F03C5F3C5F3D93913008F00C
:102040008068911DDF93CF931F930F93FF92EF92C0
:10205000192F987F9695E92F96959695E90FFF276A
:10206000EE5CFE4F99273327EE24FF24A701E701FA
:1020700005900894079428F4360FE71EF81E491FB0
:10208000511D660F771F881F991F0694A1F70590B1
:10209000079428F4E70EF81E491F561FC11D770F3D
:1020A000881F991F661F0694A1F70590079428F4CE
:1020B000F80E491F561FC71FD11D880F991F661F95
:1020C000771F0694A1F70590079420F4490F561F37
:1020D000C71FD81F990F661F771F881F0694A9F77F
:1020E00084911095177041F0D695C79557954795EF
:1020F000F794E7941A95C1F7E8EDF0E0689415902D
:10210000159135916591959105907FE27395E11850
:10211000F10A430B560BC90BD009C0F7E10CF11EB5
:10212000431F561FC91FD01D7EF4703311F48A95CA
:10213000E6CFE894015030F0080F0AF400270217A8
:1021400008F4202F2395022F7A3328F079E37D932A
:102150002A95E9F710C07D932A9589F606949795FC
:102160006795379517951794E118F10A430B560BAD
:10217000C90BD00998F023957E9173957A3308F0B6
:1021800070E37C932013B8F77E9170617D9330F0FB
:10219000839571E37D9370E32A95E1F71124EF9025
:1021A000FF900F911F91CF91DF91992787FD909517
:1021B0000895FB01DC0102C005900D924150504092
:1021C000D8F70895FC010590615070400110D8F7D0
:1021D000809590958E0F9F1F0895DC0101C06D932F
:1021E00041505040E0F70895FC016150704001906B
:1021F0000110D8F7809590958E0F9F1F08950F932B
:102200001F93CF93DF93FB01238121FD03C08FEF49
:102210009FEF28C022FF16C0468157812481358157
:102220004217530744F4A081B1819D012F5F3F4FB6
:10223000318320838C93268137812F5F3F4F3783F3
:10224000268310C0EB01092F182F0084F185E02DA3
:102250000995892BE1F68E819F8101969F838E835C
:10226000812F902FDF91CF911F910F910895FA0147
:10227000AA27283051F1203181F1E8946F936E7FC5
:102280006E5F7F4F8F4F9F4FAF4FB1E03ED0B4E0B6
:102290003CD0670F781F891F9A1FA11D680F791FF7
:1022A0008A1F911DA11D6A0F711D811D911DA11D08
:1022B00020D009F468943F912AE0269F1124301918
:1022C000305D3193DEF6CF010895462F4770405DB3
:1022D0004193B3E00FD0C9F7F6CF462F4F70405D62
:1022E0004A3318F0495D31FD4052419302D0A9F7BD
:1022F000EACFB4E0A6959795879577956795BA95B7
:10230000C9F700976105710508959B01AC010A2E7C
:1023100006945795479537952795BA95C9F7620F53
:10232000731F841F951FA01D0895F999FECF92BDBC
:1023300081BDF89A992780B50895262FF999FECF87
:102340001FBA92BD81BD20BD0FB6F894FA9AF99AD2
:0A2350000FBE01960895F894FFCF28
:10235A00FF5A0105000A0004FFFFFFFFFFFFFF020B
:10236A000404FFFFFFFFFF020403FFFFFFFFFF025A
:10237A000402FFFFFFFFFF020401FFFFFFFFFF024E
:10238A000304FFFFFFFFFF020303FFFFFFFFFF023C
:10239A000302FFFFFFFFFF020301FFFFFFFFFF0230
:1023AA000204FFFFFFFFFF020203FFFFFFFFFF021E
:1023BA000202FFFFFFFFFF020201FFFFFFFFFF0212
:1023CA000104FFFFFFFFFF020103FFFFFFFFFF0200
:1023DA000102FFFFFFFFFF020101FFFFFFFFFF01F5
:1023EA000104FFFFFFFFFF010103FFFFFFFFFF01E2
:1023FA000102FFFFFFFFFF010101FFFFFFFFFF01D6
:10240A000204FFFFFFFFFF010203FFFFFFFFFF01BF
:10241A000202FFFFFFFFFF010201FFFFFFFFFF01B3
:10242A000304FFFFFFFFFF010303FFFFFFFFFF019D
:10243A000302FFFFFFFFFF010301FFFFFFFFFF0191
:10244A000404FFFFFFFFFF010403FFFFFFFFFF017B
:10245A000402FFFFFFFFFF010401FFFFFFFFFF0070
:00000001FF
