:1000000048C062C0AFC160C05FC05EC05DC05CC0C0
:100010005BC05AC059C058C057C056C055C054C024
:1000200053C052C051C050C04FC00902120001015C
:1000300000C00509040000000000000012011001CA
:10004000FF000008713112000501010200011A03CE
:1000500043006C007500730074006500720020009E
:100060004300540052004C00220338003000380096
:100070003600200043006F006E00730075006C00B6
:10008000740061006E00630079000403090401003C
:10009000FF8E11241FBECFE5D1E0DEBFCDBF10E043
:1000A000A0E6B0E0ECEAFEE002C005900D92A038B8
:1000B000B107D9F710E0A0E8B0E001C01D92A63C5E
:1000C000B107E1F75ED4F0C69BCFCF93DF93609189
:1000D0009C00635067FD14C0209199008CE090E073
:1000E000821B9109EC01C056DF4F809198008D3240
:1000F00009F455C08091970087FD9DC010929C0027
:100100008091610084FF3EC0609160006F3FD1F13B
:10011000693008F472C068506093600090918B0061
:1001200088E8892780938B0068E08091970087FD9D
:100130001CC020919A0030919B0086FF73C0ACE8F0
:10014000B0E0F901962F84918D9331969150D9F7B3
:100150008FEF860F90E00196280F391F30939B0098
:1001600020939A00C4E0C60F53C08CE890E0BDD243
:10017000682F893008F4A5C08FEF80936000CEE12E
:10018000C093610094E180B3887131F49150D9F744
:1001900010929D0010929600DF91CF9108956830E3
:1001A00009F0ACCF83EC80938B008AE580936100EB
:1001B000109297008881982F907609F046C02A8186
:1001C00010929400998191114BC08F7119F481E0C4
:1001D000809394001092950024E930E082E03093FF
:1001E0009B0020939A009F81911104C09E819817D3
:1001F00008F4892F8093600081CF10926000909165
:100200008B0088E8892780938B0061118ECFC4E032
:100210008CE890E0A3D0CC3009F4B2CF8FEF80937C
:100220006000AECFD901ECE8F0E0962F8D9181937C
:100230009150E1F78DCFCE01F2D28F3F01F18823AB
:1002400009F45CCF1092600059CFCE01D3D18F3F1B
:1002500051F6988197FD1DC090E890939700CACF02
:10026000953089F0963009F19830D9F0993099F0AD
:1002700081E09A3009F080E024E930E0B0CF8EE1EF
:10028000809361003BCF20939D0024E930E080E023
:10029000A6CF8E81E1CF20939F0024E930E080E05B
:1002A0009ECF2FE930E081E09ACF8B818130F1F051
:1002B0008230A1F0833041F080E090E49093970089
:1002C00092CFC4E0C80FA4CF211118C08AE890E0F3
:1002D00090939B0080939A0084E0EFCF8AE290E0B5
:1002E00090939B0080939A0082E1E7CF8CE390E0AB
:1002F00090939B0080939A0082E1DFCF213051F0F0
:100300002230D1F68EE490E090939B0080939A0087
:100310008AE1D3CF88E690E090939B0080939A0087
:1003200082E2CBCF85B78C6085BF8BB780688BBFEF
:100330000895A82FB92F80E090E041E050EA609541
:1003400030E009C02D9182279795879510F084277A
:100350009527305EC8F36F5FA8F30895EADF8D93A9
:100360009D930895CF93CFB7CF93C395849BE9F71F
:10037000849B09C0849B07C0849B05C0849B03C0E9
:10038000849B01C0A1C0DF93C0919900DD27C056B6
:10039000DF4F849B02C0DF91EBCF2F930F931F930E
:1003A00000B32FEF04FB20F94F933F9310B34FEFAF
:1003B000012704FB21F93BE031C04E7F012F10B330
:1003C000216028C0102F4D7F2260000000B329C09B
:1003D0004B7F2460012F000010B32BC010B3477F68
:1003E00028602AC04F7E00B320612CC04F7D10B31F
:1003F00020622FC04F7B00B3206432C0422700B37D
:1004000049934FEF0000102714FB20F910B3187127
:10041000C9F1297F91F2012704FB21F900B3237F61
:1004200089F2315058F1102714FB22F910B3277EBE
:1004300079F2012704FB23F92F7C81F200B3102706
:1004400014FB24F92F7971F200C010B3012704FBCB
:1004500025F92F7359F200C000B3102714FB26F9B9
:10046000223040F200C010B3012704FB27F92430EA
:1004700028F64F77206810B30000F9CF10E81ABFB4
:10048000002717C03B503195C31BD04010E81ABF5E
:100490000881033CE9F00B34D9F0209196001981D2
:1004A000110F1213EDCF093641F10D3211F0013E5B
:1004B00039F700939E003F914F911F910F912F911B
:1004C000DF91CAB7C7FD51CFCF91CFBFCF9118955C
:1004D00020919E00222379F310919C00112311F5A5
:1004E000343012F130939C002093980010919900C1
:1004F0003BE0311B3093990017C000919C00013004
:100500008CF40AE53091610034FD10C00093610065
:10051000CBE8D0E00FC02795A8F45150A9F4220FE2
:100520000000F9CF4AE503C042ED01C0432FC4E10A
:10053000D0E032E011B31861949A11BB02B320E409
:1005400018E15F93012756E002BB279520F4515034
:1005500021F4220FF9CF012756E000003B5A02BBDD
:10056000D0F2279528F4515029F4220F0000F9CF3A
:10057000012756E0279502BB20F4515021F4220FA9
:10058000F9CF012756E02991332302BB21F6077EDC
:1005900010919D00110FC651D04002BB11F0109375
:1005A000960010E81ABF006111B3177E402F477EF6
:1005B0005F9100C000C002BB11BB42BB7CCF609109
:1005C000C40080E390E062C48091C300813049F0B0
:1005D00060E082E090E05AD46091C50080E190E054
:1005E00055C461E082E090E051D46091C50080E1A3
:1005F00090E04CC4FC0181E890E090939B008093D4
:100600009A0091819230C9F168F4992371F1913087
:1006100021F544E050E06EE870E081E890E01ED4FF
:1006200084E008959330D9F09830B8F484819581AE
:100630008097C9F12681378182E08093850081E02F
:10064000232B09F480E081950895969587959093E2
:10065000640080936300892BF1F080E0089580911D
:1006600085008093810081E00895828180938100DC
:1006700083818093820082E00895828193819093A8
:10068000660080936500009701F781E090E0909309
:1006900066008093650081E090E090936400809311
:1006A000630080E008958091C100882349F0828131
:1006B00080FD06C082E08093850026813781BFCF10
:1006C00081E080938500809362002681378130939A
:1006D0008A002093890081818093880080E290E0E5
:1006E0009093870080938600AACFCF93FC01C62FFA
:1006F00080918500813049F0462F50E060E070E045
:10070000CF01B5D38C2FCF910895209189003091DE
:100710008A00862F90E02817390708F4C22F8091AD
:10072000860090918700809769F7CC2359F39091C8
:1007300080006FEF6C0F70E0AB014F5F5F4F4E0FAB
:100740005F1FAFEF82E0992329F1913019F19230C8
:10075000B1F19330C1F19430E9F09530C1F19630A8
:1007600009F441C0973009F442C09830A1F19930A2
:10077000B1F19A3009F43FC09B3009F440C09C307D
:1007800009F441C09D3009F442C09E3009F443C0D1
:10079000A08301C08083909180009F5F9093800030
:1007A0003196E417F50779F621503109261B370BEE
:1007B00030938A00209389008C2FCF9108959091D7
:1007C000B7009083E8CF9091B8009083E4CF9091E8
:1007D000B9009083E0CF9091BC009083DCCF9091E2
:1007E000BD009083D8CF9091BA009083D4CF9091E0
:1007F000BB009083D0CF9091BE009083CCCF9091DE
:10080000BF009083C8CF9091C0009083C4CF9091D7
:10081000C1009083C0CF9091C2009083BCCFCF9392
:10082000FC01C62F80918500813049F0462F50E0B1
:1008300060E070E0CF011BD38C2FCF910895209101
:10084000890030918A00862F90E02817390708F038
:1008500051C0822F4091860050918700403251054F
:1008600061F790916200913009F470C0CC2329F3B4
:1008700090918000C1506C2F70E0AB014F5F5F4FD3
:100880004E0F5F1FB1E0923020F19230A9F193300A
:1008900009F444C09430E9F0953009F44BC0963027
:1008A00009F45BC0973009F45CC0983009F446C085
:1008B000993009F447C09A3009F457C09B3009F4C5
:1008C00058C09C3009F459C09D3019F4A081A09300
:1008D000C10031969F5F90938000E417F50799F669
:1008E00021503109261B370B30938A002093890051
:1008F000CF910895862FAECFA081A11104C0B083FF
:1009000090918000A1E0A093B70031969F5F9093F3
:100910008000E417F50709F0B6CFE2CFA081A093DD
:10092000B80031969F5F90938000E417F50709F0B7
:10093000AACFD6CFA081A093B900CBCFA081A0939E
:10094000BC00C7CFA081A093BD00C3CF908190937E
:100950008000CFEFC80F319689CFA081A093BA0055
:10096000B8CFA081A093BB00B4CFA081A093BE005C
:10097000B0CFA081A093BF00ACCFA081A093C00056
:10098000A8CF29E288E190E00FB6F894A89581BD40
:100990000FBE21BD87B38F6087BB81B3866281BBE9
:1009A000919AC29881E090E069D28093B70082E08A
:1009B00090E064D2813009F443C21092C300C3981E
:1009C00080E190E05BD2C82F8093C50080E390E087
:1009D00055D28093C40080FF03C0909AC0FDC19A95
:1009E00081FF05C0959A8091C50081FDC09A82B3B0
:1009F000877E82BB81B3886181BB80E49CE90197DB
:100A0000F1F781B3877E81BB8DDC789493E0992EDA
:100A1000FF24FA94EE24E39425E0A22E32E0B32ED4
:100A200008E110E048E0C42EC0E4DCE95AE0D52E2D
:100A3000A8954BDB8091C1008823D1F3833009F462
:100A400041C0843009F456C08A3009F468C08B3044
:100A500009F479C0853009F486C0863009F4A5C050
:100A6000803F09F4CBC0843F09F43FC0833F09F4C1
:100A7000F2C0853F09F4F9C0863F09F404C187300C
:100A800009F4D4C0813F09F40CC18C3009F4F3C0DF
:100A90008D3009F4FEC08E3009F457C18F3009F44F
:100AA00024C1843109F42FC1823F09F433C1853157
:100AB00009F494C1813109F478C11092C100909277
:100AC000C200B6CF8091C0009FEF980F923068F4BB
:100AD000813009F483C0959A8091C400826080932C
:100AE000C4008091C50081FDC09A1092C10010928F
:100AF000C2009ECF8091C0009FEF980F9230A8F760
:100B0000813009F487C095988091C4008D7F8093CF
:100B1000C400C0981092C1001092C20089CF809189
:100B2000C000811126C0E092C300C39A909AC19A76
:100B3000959AC09AF092C400F092C5001092C1003C
:100B40001092C20075CF8091C000811134C0109204
:100B5000C300C398C198C0981092C5001092C100FC
:100B60001092C20065CFC29A1092C1001092C200CA
:100B70005FCF9FEF980F923008F0B7CF2091C4005D
:100B800020FF03C0813009F4F4C021FFAECF8230D2
:100B900009F0ABCFC09A8091C50082608093C500F8
:100BA0001092C1001092C20043CFC2981092C100AF
:100BB0001092C2003DCF9FEF980F923008F095CF72
:100BC000813009F487C0C0988091C5008D7F8093E3
:100BD000C5001092C1001092C2002ACF909A809155
:100BE000C40081608093C4008091C50080FF7DCFE8
:100BF000C19A1092C1001092C2001ACF6091B70042
:100C000081E090E043D1E0DCDADC1092C100109288
:100C1000C2000ECF90988091C4008E7F8093C40054
:100C2000C1981092C1001092C20002CF8091C00002
:100C30008A3018F4D092C0008AE09198882339F065
:100C400090E0FE013197F1F79F5F9813FACF919AE8
:100C50001092C100EDCE6091B70081E090E016D116
:100C60001092C1001092C200E3CEA9DC1092C10024
:100C70001092C200DDCEC39AE092C3001092C10070
:100C80001092C200D5CEA0DC1092C1001092C2001A
:100C9000CFCEC3981092C3001092C1001092C20030
:100CA000C7CE64E181E090E0F1D061E082E090E0C5
:100CB000EDD061E083E090E0E9D06FEF80E190E07B
:100CC000E5D060E080E390E0E1D01092C1001092A6
:100CD000C200AECEC1988091C5008E7F8093C500C2
:100CE0001092C1001092C200A3CE8091C0009FEF6D
:100CF000980F923008F44BC0F092C0001092C100DF
:100D0000B092C20095CEF092C0001092C100109235
:100D1000C2008ECEE092C2008091C000811130C02E
:100D2000A092C000E092BF00F092BE00F092BD0021
:100D3000F092BC00F092BB00F092BA00F092B900C1
:100D40001092C2001092C10073CE0FB6F894A8950D
:100D500001BD0FBEC1BC2FEB84ED91E0215080405E
:100D60009040E1F700C000001092C1001092C20054
:100D70005FCEC19A9091C50091609093C50005CF58
:100D8000813001F71092C0001092C200DBCF813099
:100D900009F45AC08091C400869581708093C00088
:100DA0001092C1001092C20043CEE091C000E33027
:100DB000F0F01092C100F092B900F092BA00F092F7
:100DC000BB00F092BC00F092BD00F092BE00F09229
:100DD000BF00F092C000E092C2002ACE8091C00015
:100DE000882359F18093B7001092C200ABCFF0E096
:100DF000EE0FFF1FEE0FFF1FEE0FFF1FE959FF4F12
:100E000087818093C00086818093BF008581809315
:100E1000BE0084818093BD0083818093BC00828169
:100E20008093BB0081818093BA0080818093B90058
:100E30001092C1001092C200FBCDE092C20082CF9E
:100E40008093C300C39ABCCD8091C400817080930D
:100E5000C0001092C1001092C200EACDFB01DC017B
:100E600002C005900D9241505040D8F70895DC0122
:100E700001C06D9341505040E0F70895E199FECFD5
:100E80001FBA8EBBE09A99278DB30895262FE1995A
:100E9000FECF1CBA1FBA8EBB2DBB0FB6F894E29AD8
:0C0EA000E19A0FBE01960895F894FFCF70
:100EAC00FF5A0105000A0002FFFFFFFFFFFFFF04CE
:100EBC00FFFFFFFFFFFFFF03FFFFFFFFFFFFFF0031
:00000001FF
