:100000000C94E9000C9460020C9406010C94060117
:100010000C9406010C9406010C9406010C94060144
:100020000C9406010C9406010C9406010C94060134
:100030000C9406010C9406010C9406010C94060124
:100040000C9406010C9406010C9406010C94060114
:100050000C9406010C9406010C9406010C94060104
:100060000C9406010C9406016E616E00696E6600C8
:1000700000407A10F35A00A0724E18090010A5D45F
:10008000E80000E87648170000E40B54020000CABC
:100090009A3B000000E1F505000080969800000002
:1000A00040420F000000A086010000001027000061
:1000B0000000E803000000006400000000000A00E7
:1000C000000000000100000000002C76D888DC67EA
:1000D0004F0823DFC1DFAE59E1B1B796E5E3E45342
:1000E000C63AE651997696E8E6C28426EB898C9B5F
:1000F00062ED407C6FFCEFBC9C9F40F2BAA56FA5FF
:10010000F490055A2AF75C936B6CF9676DC11BFC80
:10011000E0E40D47FEF520E6B500D0ED902E03009B
:10012000943577050080841E080000204E0A0000E8
:1001300000C80C333333330F986E12831141EF8DA7
:100140002114893BE65516CFFEE6DB18D1844B38E7
:100150001BF77C1D901DA4BBE424203284725E2218
:100160008100C9F124ECA1E53D270902120001013B
:1001700000C0050904000000000000001201100189
:10018000FF000008713116000501010200011A0389
:1001900043006C007500730074006500720020005D
:1001A0004300540052004C00220338003000380055
:1001B0003600200043006F006E00730075006C0075
:1001C000740061006E0063007900040309040100FB
:1001D000FF8E11241FBECFEFD8E0DEBFCDBF11E0F0
:1001E000A0E0B1E0E0E7FCE102C005900D92AA3189
:1001F000B107D9F721E0AAE1B1E001C01D92A03614
:10020000B207E1F70E942D090C94360E0C94000001
:10021000CF93DF9360913601635067FD14C0209146
:1002200033018CE090E0821B9109EC01C65CDE4F4B
:10023000809132018D3209F452C08091310187FDE5
:1002400099C0109236018091010184FF3BC0C0919A
:100250000001CF3FB9F1C93008F46FC088EF8C0FAF
:10026000809300019091250188E8892780932501DA
:10027000C8E08091310187FDA7C020913401309101
:10028000350186FF6EC0A6E2B1E0F9018C2F949192
:100290009D9331968150D9F78FEF8C0F90E00196A6
:1002A000280F391F30933501209334016C2F86E2DB
:1002B00091E00E945C0284E08C0F8C3009F04DC00C
:1002C0008093010194E189B18C7031F49150D9F798
:1002D0001092370110923001DF91CF91089568306C
:1002E00009F0AFCF83EC809325018AE5809301016B
:1002F000109231018881982F907609F046C02A81AA
:1003000010922E01998191114CC08F7119F481E0E6
:1003100080932E0110922F012EE231E082E0309383
:100320003501209334019F81911104C09E8198175B
:1003300008F4892F8093000184CF109200019091DE
:10034000250188E8892780932501C11192CF60E0BB
:1003500086E291E00E945C0284E09FEF90930001AE
:10036000AFCFD901E6E2F1E08C2F9D9191938150BE
:10037000E1F792CFCE010E94AA048F3F09F18823B2
:1003800009F45FCF109200015CCFCE010E94A70359
:100390008F3F49F6988197FD2DC090E890933101E9
:1003A000C9CF953009F1963039F1983089F19930FB
:1003B00099F181E09A3009F080E02EE231E0AFCF90
:1003C0008EE1809301013DCF6C2F86E291E00E9487
:1003D0000C04C82F893008F469CF8FEF8093000197
:1003E0008EE1809301016ECF209337012EE231E040
:1003F00080E095CF8E81D1CF8B818130D9F0823052
:1004000089F08330F9F080E090E4909331018BCF54
:1004100029E331E081E083CF209339012EE231E0FE
:1004200080E07DCF8AE691E090933501809334019E
:1004300082E1EACF8CE791E090933501809334011B
:1004400082E1E2CF211108C08AEC91E0909335015E
:100450008093340184E0D8CF213051F0223099F6D6
:100460008EE891E090933501809334018AE1CCCFFE
:1004700088EA91E0909335018093340182E2C4CF01
:10048000E9E6F0E0808183608083E89A0895A82FF0
:10049000B92F80E090E041E050EA609530E009C07B
:1004A0002D9182279795879510F084279527305EA8
:1004B000C8F36F5FA8F30895EADF8D939D930895C5
:1004C000CF93CFB7CF93C3954B9BE9F74B9B09C015
:1004D0004B9B07C04B9B05C04B9B03C04B9B01C074
:1004E000A1C0DF93C0913301DD27C65CDE4F4B9B7B
:1004F00002C0DF91EBCF2F930F931F9309B12FEF22
:1005000003FB20F94F933F9319B14FEF012703FBF2
:1005100021F93BE031C04E7F012F19B1216028C085
:10052000102F4D7F2260000009B129C04B7F24604D
:10053000012F000019B12BC019B1477F28602AC0D4
:100540004F7E09B120612CC04F7D19B120622FC0B0
:100550004F7B09B1206432C0422709B149934FEF64
:100560000000102713FB20F919B11C70C9F1297F75
:1005700091F2012703FB21F909B1237F89F2315060
:1005800058F1102713FB22F919B1277E79F20127C0
:1005900003FB23F92F7C81F209B1102713FB24F907
:1005A0002F7971F200C019B1012703FB25F92F73D0
:1005B00059F200C009B1102713FB26F9223040F28E
:1005C00000C019B1012703FB27F9243028F64F7723
:1005D000206819B10000F9CF11E01CBB002717C03B
:1005E0003B503195C31BD04011E01CBB0881033C3C
:1005F000E9F00B34D9F0209130011981110F121359
:10060000EDCF093641F10D3211F0013E39F700937B
:1006100038013F914F911F910F912F91DF91CCB3F2
:10062000C0FD51CFCF91CFBFCF9118952091380108
:10063000222379F310913601112311F5343012F190
:100640003093360120933201109133013BE0311B8E
:100650003093330117C00091360101308CF40AE564
:100660003091010134FD10C000930101C5E2D1E0D9
:100670000FC02795A8F45150A9F4220F0000F9CF1C
:100680004AE503C042ED01C0432FC4E1D0E032E0AF
:100690001AB11C605B9A1AB90BB120E41CE05F939D
:1006A000012756E00BB9279520F4515021F4220F71
:1006B000F9CF012756E000003B5A0BB9D0F227953D
:1006C00028F4515029F4220F0000F9CF012756E0F9
:1006D00027950BB920F4515021F4220FF9CF0127AF
:1006E00056E0299133230BB921F6037F109137018E
:1006F000110FC651D0400BB911F01093300111E029
:100700001CBB08601AB1137F402F437F5F9100C06C
:1007100000C00BB91AB94BB97CCF80915D01813013
:1007200059F060E082E090E00E94280E60915F0145
:1007300080E190E00C94280E61E082E090E00E945D
:10074000280E60915F0180E190E00C94280EFC017E
:100750008CE191E090933501809334019181923046
:1007600011F170F4992389F1913039F544E050E0AA
:100770006EEC71E08CE191E00E94600D84E00895E0
:100780009330E9F09830C8F484819581809729F1FD
:100790002681378182E08093200181E0232B09F4B8
:1007A00080E08195089582819381009711F481E022
:1007B00090E0909304018093030180E0089580917C
:1007C000200180931C0181E00895828180931C01A7
:1007D000838180931D0182E0089580915B018823CD
:1007E00049F0828180FD06C082E08093200126814D
:1007F0003781D3CF81E0809320018093020126814D
:100800003781309324012093230180E290E090937C
:10081000220180932101C1CFCF93DF93FC01C62F2A
:1008200080912001813059F0462F50E060E070E067
:10083000CF010E94740D8C2FDF91CF9108956091AC
:100840002301709124012C2F30E06217730708F404
:10085000C62F20912101309122012032310559F714
:10086000CC2349F390911A01AFEFAC0FB0E09D019A
:100870002F5F3F4F2E0F3F1FDFEF55E042E00AC0D2
:10088000408390911A019F5F90931A013196E2176D
:10089000F30731F19923A1F39130E1F09230E1F0C7
:1008A000933051F1943061F1953061F1963071F1EE
:1008B0009730A1F19830B1F1993061F19A30B1F1EE
:1008C0009B30C1F19C30D1F19D30E1F19E30F1F1CE
:1008D000D083D7CF5083D5CF909151019083D1CF82
:1008E000CB0101978A1B9B0B9093240180932301DA
:1008F0008C2FDF91CF910895809152018083C1CFD9
:100900009083BFCF809153018083BBCF80915401EE
:100910008083B7CF809157018083B3CF80915501F9
:100920008083AFCF809156018083ABCF80915801F7
:100930008083A7CF809159018083A3CF80915A01F2
:1009400080839FCF80915B0180839BCF80915C01EE
:10095000808397CFCF93FC01C62F809120018130F7
:1009600051F0462F50E060E070E0CF010E94740D1E
:100970008C2FCF9108954091230150912401862F0F
:1009800090E04817590708F051C0842F20912101A9
:10099000309122012032310561F7909102019130AE
:1009A00009F468C0CC2329F390911A01C1506C2F2F
:1009B00070E09B012F5F3F4F2E0F3F1FB1E0923041
:1009C00020F19230A9F1933009F444C09430E9F059
:1009D000953009F44BC0963009F453C0973009F4B0
:1009E00058C0983009F459C0993009F44EC09A3073
:1009F00009F457C09B3009F458C09C3009F459C021
:100A00009D3019F4A081A0935B0131969F5F909374
:100A10001A01E217F30799F641505109461B570B8B
:100A20005093240140932301CF910895862FAECF98
:100A3000A081A11104C0B08390911A01A1E0A093FC
:100A4000510131969F5F90931A01E217F30709F065
:100A5000B6CFE2CFA081A093520131969F5F9093D1
:100A60001A01E217F30709F0AACFD6CFA081A0930D
:100A70005301CBCF908190931A01CFEFC80F3196DD
:100A800091CFA081A0935401C0CFA081A093570122
:100A9000BCCFA081A0935501B8CFA081A0935601EF
:100AA000B4CFA081A0935801B0CFA081A0935901E9
:100AB000ACCFA081A0935A01A8CFA3B163B161705C
:100AC00070911B01672BA1FB442740F950E0462B96
:100AD000452B09F1409A49B179B169B159B176FB19
:100AE000EE27E0F9F0E065FB222720F930E02E2B1D
:100AF0003F2B54FB882780F990E0822B932B242FE7
:100B0000221F2227221F30911B01232B822B892B8E
:100B100021F4419808954098DECF419A089523B179
:100B200053B1E9B199B149B139B1822F8170252F03
:100B30002270282B4071242B3072232B991F992768
:100B4000991F990F990F990F892F822BE6FB662722
:100B500060F970E0660F771F660F771F862B089588
:100B6000A0E1B0E0E6EBF5E00C94510C7C011B0138
:100B70006A01FC0117821682838181FF44C39E01B2
:100B80002F5F3F4F3901F7019381F10193FD85916B
:100B900093FF81911F01882309F431C3853239F411
:100BA00093FD859193FF81911F01853239F4B7013F
:100BB00090E00E94860D56016501E5CF10E0512CB2
:100BC000912CFFE1F915D8F08B3279F038F48032AE
:100BD00079F08332A1F4F92DF0612EC08D3261F0ED
:100BE000803369F4292D21602DC0392D3260932E78
:100BF000892D8460982E2AC0E92DE86015C097FCE5
:100C00002DC020ED280F2A3088F496FE06C03AE069
:100C1000139F200D1124122F19C08AE0589E200D19
:100C20001124522EE92DE0629E2E10C08E3231F436
:100C300096FCE5C2F92DF0649F2E08C08C3621F495
:100C4000292D2068922E02C0883641F4F10193FDCF
:100C5000859193FF81911F018111B3CF9BEB980F79
:100C6000933020F4992D9061805E07C09BE9980F26
:100C7000933008F066C1992D9F7E96FF16E09F7312
:100C8000992E853619F49064992E08C0863621F481
:100C9000392F3068932E02C01111115097FE07C0F2
:100CA0001C3350F444244394410E27E00BC0183009
:100CB00038F027E017E005C027E09CE3492E02C08A
:100CC000212F412C560184E0A80EB11CF601608151
:100CD000718182819381042DA3010E94880C6C0193
:100CE000F981FC87F0FF02C0F3FF06C091FC06C04B
:100CF00092FE06C000E205C00DE203C00BE201C097
:100D000000E08C858C7019F001115AC29BC297FECD
:100D100010C04C0CFC85F4FF04C08A81813309F4B7
:100D20004A94141474F528E0241578F588E0482EC8
:100D30002CC096FC2AC0812F90E08C159D059CF05C
:100D40003CEFC3163FEFD30674F0892D8068982ED0
:100D50000AC0E2E0F0E0EC0FFD1FE10FF11D808121
:100D6000803319F411501111F4CF97FE0EC04424B2
:100D70004394410E812F90E0C816D9062CF41C191B
:100D800004C04424439401C010E097FE06C01C1424
:100D90001D0434F4C601019605C085E090E002C050
:100DA00081E090E001110196112331F0212F30E014
:100DB0002F5F3F4F820F931F252D30E0821793073F
:100DC00014F4581A01C0512C892D897049F455200A
:100DD00039F0B70180E290E00E94860D5A94F7CF77
:100DE000002329F0B701802F90E00E94860D93FC2C
:100DF00009C0552039F0B70180E390E00E94860DCC
:100E00005A94F7CF97FE4CC04601D7FE02C0812C02
:100E1000912CC60188199909F301E80FF91FFE8783
:100E2000ED87960124193109388B2F87012F10E0A7
:100E30001195019511093FEF8316930629F4B70127
:100E40008EE290E00E94860DC814D9044CF08F8584
:100E500098898815990524F4ED85FE85818101C066
:100E600080E3F1E08F1A91082D853E852F5F3F4F7B
:100E70003E872D87801691062CF0B70190E00E94E6
:100E8000860DD9CFC814D90441F49A81963320F441
:100E9000953319F43C8534FF81E3B70190E04EC0EF
:100EA0008A81813319F09C859F7E9C87B70190E0F1
:100EB0000E94860D111105C094FC18C085E690E0D3
:100EC00017C0B7018EE290E00E94860D1E5F82E09F
:100ED00001E0080FF301E80FF11D8081B70190E0F8
:100EE0000E94860D802F0113F3CFE6CF85E490E0BA
:100EF000B7010E94860DD7FC06C0C114D10441F48D
:100F0000EC85E4FF05C0D194C194D1088DE201C005
:100F10008BE2B70190E00E94860D80E32AE0C216C2
:100F2000D1042CF08F5FFAE0CF1AD108F7CFB701C8
:100F300090E00E94860DB701C601C0960E94860D02
:100F400054C1833631F0833779F0833509F056C0C8
:100F500020C0560132E0A30EB11CF60180818983C6
:100F600001E010E0630112C05601F2E0AF0EB11CC7
:100F7000F601C080D18096FE03C0612F70E002C0F0
:100F80006FEF7FEFC6010E947B0D8C01F92DFF777B
:100F900014C0560122E0A20EB11CF601C080D1801F
:100FA00096FE03C0612F70E002C06FEF7FEFC601B5
:100FB0000E94690D8C01F92DF0689F2EF3FD1AC077
:100FC000852D90E008171907A8F4B70180E290E09A
:100FD0000E94860D5A94F4CFF60197FC859197FEF6
:100FE00081916F01B70190E00E94860D51105A94D3
:100FF000015011090115110579F7F7C0843611F078
:10100000893661F5560197FE09C024E0A20EB11C95
:10101000F60160817181828193810AC0F2E0AF0E96
:10102000B11CF60160817181072E000C880B990BB1
:10103000F92DFF769F2E97FF09C0909580957095AA
:1010400061957F4F8F4F9F4FF0689F2E2AE030E0D1
:10105000A3010E94C20DC82EC6183FC0092D8537B6
:1010600021F40F7E2AE030E01DC0097F8F3691F019
:1010700018F4883559F0C3C0803719F0883711F05B
:10108000BEC0006104FF09C0046007C094FE08C030
:10109000066006C028E030E005C020E130E002C074
:1010A00020E132E0560107FF09C084E0A80EB11C20
:1010B000F601608171818281938108C0F2E0AF0EF8
:1010C000B11CF6016081718180E090E0A3010E9473
:1010D000C20DC82EC6180F77902E96FE0BC0092D94
:1010E0000E7FC11650F494FE0AC092FC08C0092D70
:1010F0000E7E05C0DC2C092D03C0DC2C01C0D12ED6
:1011000004FF0DC0FE01EC0DF11D8081803311F450
:10111000097E09C002FF06C0D394D39404C0802F77
:10112000867809F0D39403FD11C000FF06C01C2D82
:10113000D51480F4150D1D190DC0D51458F4B70140
:1011400080E290E00E94860DD394F7CFD51410F47E
:101150005D1801C0512C04FF10C0B70180E390E07E
:101160000E94860D02FF17C001FD03C088E790E0D2
:1011700002C088E590E0B7010CC0802F867859F056
:1011800001FF02C08BE201C080E207FD8DE2B701E2
:1011900090E00E94860DC11638F4B70180E390E01C
:1011A0000E94860D1150F7CFCA94F301EC0DF11D8A
:1011B0008081B70190E00E94860DC110F5CF15C067
:1011C000F4E0F51560F584E0581A93FE1FC0011194
:1011D00027C02C8523FF2AC008E610E0392D307186
:1011E000932EF8018491811124C0552009F4E4CC98
:1011F000B70180E290E00E94860D5A94F6CFF70185
:101200008681978126C08FEF9FEF23C0B70180E2D0
:1012100090E00E94860D5A945110F8CFD8CF512CEF
:10122000B701802F90E00E94860DD3CF0CE610E02E
:10123000D5CF91108052B70190E00E94860D0F5FCC
:101240001F4FCFCF23E0251510F483E0BDCF512CE5
:10125000C0CF6096E2E10C946D0C99E288E10FB684
:10126000F894A895809360000FBE9093600084B1BD
:101270008C6384B987B18F6387B98AB18AB981E0F9
:1012800090E00E94200E8093510182E090E00E9445
:10129000200E813009F4B6C210925D012B9880E1D6
:1012A00090E00E94200E80935F0180E390E00E9416
:1012B000200E80935E01E5E0F1E080E090E041E007
:1012C00050E005C0019634968830910549F185308B
:1012D0009105C0F720915E0130E0082E02C03595DF
:1012E00027950A94E2F720FFEDCFA8952FEF3EE96E
:1012F00064E2215030406040E1F700C00000A0816E
:10130000B1816C919A01028002C0220F331F0A94AE
:10131000E2F7262B2C930196349688309105B9F686
:101320008BB1837F8BB98AB18C608AB980E49CE9E8
:101330000197F1F78AB1837F8AB90E9440027894BD
:1013400063E0862E0FEF11E070E4D72EE7E8EE2E73
:10135000F8EC9F2EA2E0FA2EB8E0BB2EC8E1AC2E2E
:10136000C0E4DCE98AE0C82E44C0843009F49DC0A2
:101370008A3009F4D7C08B3009F4E1C09BEF980F95
:10138000923008F47AC0803F09F47CC0843F09F4AD
:1013900074C0833F09F428C1853F09F47BC0863FB0
:1013A00009F435C1873009F40EC1813F09F43AC10F
:1013B0008C3009F424C18D3009F430C18E3009F429
:1013C00075C18F3009F44CC1843109F468C1803192
:1013D00009F489C1823F09F48FC1853109F4A7C19D
:1013E00010925B01813109F4ADC180925C010E94D1
:1013F0005D05A8950E94080180915B018823B9F3DF
:10140000833009F0B2CFE0915A018FEF8E0F853013
:10141000A0F5F0E0EE0FFF1FEE0FFF1FEF5FFE4F96
:10142000A081B1812C9181E090E0028002C0880F00
:10143000991F0A94E2F7822B8C9320915A0130E095
:10144000C9010197FC0197FDB5C0F595E795F595A4
:10145000E795F595E795E35AFE4F8770907897FDED
:10146000A4C021E030E0A90102C0440F551F8A95B5
:10147000E2F7CA019181892B818310925B0110925E
:101480005C01B5CF6091510181E090E00E94280E8F
:101490000E948D0360915E0180E390E00E94280E1F
:1014A00010925B0110925C01A2CFE0915A018FEF84
:1014B0008E0F853010F7F0E0EE0FFF1FEE0FFF1FCD
:1014C000EF5FFE4FA081B1812C9181E090E002801E
:1014D00002C0880F991F0A94E2F7809582238C93AB
:1014E00020915A0130E0C9010197FC0197FD69C0C4
:1014F000F595E795F595E795F595E795E35AFE4F50
:101500008770907897FD58C021E030E0A90102C0B3
:10151000440F551F8A95E2F7CA018095918189236E
:101520008183ABCF80915A01811116C010935D0168
:101530002B9A80915F018F6180935F019ECF809194
:101540005A0181111DC010925D012B9880915F019D
:10155000807E80935F0191CF9FEF980F953008F0C8
:101560008CCF21E030E0A90102C0440F551F9A95AD
:10157000E2F7CA0190915F01892B80935F017DCFD3
:101580009FEF980F953008F078CF21E030E0A90167
:1015900002C0440F551F9A95E2F7CA0180959091B9
:1015A0005F01892380935F0168CF0197886F9F6FE8
:1015B000019657CF379649CF0197886F9F6F019655
:1015C000A3CF379695CF90915A019A3018F4C092D4
:1015D0005A019AE080E0FE013197F1F78F5F891799
:1015E000D0F310925B0103CF6091510181E090E054
:1015F0000E94280E10925B0110925C01F8CE2B9A8B
:1016000010935D0110925B0110925C01F0CE0E947C
:101610008D0310925B0110925C01E9CE2B98109221
:101620005D012BCF64E181E090E00E94280E61E033
:1016300082E090E00E94280E61E083E090E00E944A
:10164000280E6FEF80E190E00E94280E60E080E3BA
:1016500090E00E94280E10925B0110925C01C7CEB0
:10166000E0915A018FEF8E0F8530B0F5F0E0EE0F6C
:10167000FF1FEE0FFF1FEF5FFE4FA081B1818C9126
:1016800090E0028002C0959587950A94E2F78170F8
:1016900080935A0110925B0110925C01A8CE0093D6
:1016A0005A0110925B0110925C01A1CE0FB6F89422
:1016B000A895A09260000FBEB09260005FEB64ED51
:1016C00081E0515060408040E1F700C0000010927E
:1016D0005B0110925C018BCE00935A0110925B016A
:1016E000F0925C0184CE80915A0180931B0110928C
:1016F0005B0110925C017BCE10935C0180915A01DA
:10170000811133C0B0925A011093590100935801CE
:101710000093570100935601009355010093540123
:101720000093530110925C0110925B0160CE809196
:101730005A01882391F18093510110925C0110921B
:101740005B0155CE00935301009354010093550162
:1017500000935601009357010093580100935901DB
:1017600000935A0110935C0142CE813009F443C0CA
:101770008230C1F0833009F449C0843009F031CFA0
:101780000E948F05880F90911B01892B80935A012D
:1017900010925C0110925B012ACE10935C011092B2
:1017A0005B0125CE80915901813009F45AC0823005
:1017B00009F017CFD0927C00E0927A0080917C00F3
:1017C000876080937C0080917A00806480937A00A7
:1017D00080917A0086FDFCCFF0925A0180917800CA
:1017E00080935901809179008093580110925C0197
:1017F00010925B01FCCDF0925A0110925C011092A4
:101800005B01F5CD80935D012B9A49CDD0927C0090
:10181000E0927A0090927C0080917A0080648093BC
:101820007A0080917A0086FDFCCF80917A008064F6
:1018300080937A0080917A0086FDFCCFF0925A0165
:1018400080917800809359018091790080935801AC
:1018500010925C01D0927C00E0927A0010925B01C1
:10186000C6CDD0927C00E0927A0080917C00887F87
:10187000866080937C0080917A00806480937A00F7
:1018800080917A0086FDFCCF10935A0180917800F8
:1018900080935901909179009093580110925C01C6
:1018A00086CF2F923F924F925F926F927F928F924C
:1018B0009F92AF92BF92CF92DF92EF92FF920F93DF
:1018C0001F93CF93DF93CDB7DEB7CA1BDB0B0FB6E9
:1018D000F894DEBF0FBECDBF09942A8839884888A6
:1018E0005F846E847D848C849B84AA84B984C8843C
:1018F000DF80EE80FD800C811B81AA81B981CE0F33
:10190000D11D0FB6F894DEBF0FBECDBFED01089517
:10191000283008F027E03327DA01990F311D87FDC1
:10192000916000966105710539F432602E5F3D9338
:1019300030E32A95E1F708959F3F30F08038710534
:10194000610509F03C5F3C5F3D93913008F0806891
:10195000911DDF93CF931F930F93FF92EF92192F57
:10196000987F9695E92F96959695E90FFF27E65370
:10197000FF4F99273327EE24FF24A701E7010590A5
:101980000894079428F4360FE71EF81E491F511DCE
:10199000660F771F881F991F0694A1F7059007947B
:1019A00028F4E70EF81E491F561FC11D770F881F28
:1019B000991F661F0694A1F70590079428F4F80E66
:1019C000491F561FC71FD11D880F991F661F771FFC
:1019D0000694A1F70590079420F4490F561FC71FDE
:1019E000D81F990F661F771F881F0694A9F7849147
:1019F0001095177041F0D695C79557954795F79470
:101A0000E7941A95C1F7E0E7F0E068941590159116
:101A100035916591959105907FE27395E118F10AF2
:101A2000430B560BC90BD009C0F7E10CF11E431F45
:101A3000561FC91FD01D7EF4703311F48A95E6CF6E
:101A4000E894015030F0080F0AF40027021708F458
:101A5000202F2395022F7A3328F079E37D932A955E
:101A6000E9F710C07D932A9589F6069497956795B6
:101A7000379517951794E118F10A430B560BC90BCC
:101A8000D00998F023957E9173957A3308F070E32E
:101A90007C932013B8F77E9170617D9330F083952D
:101AA00071E37D9370E32A95E1F71124EF90FF90A5
:101AB0000F911F91CF91DF91992787FD9095089500
:101AC000FB01DC0102C005900D9241505040D8F757
:101AD0000895FC010590615070400110D8F7809581
:101AE00090958E0F9F1F0895DC0101C06D934150AA
:101AF0005040E0F70895FC016150704001900110E2
:101B0000D8F7809590958E0F9F1F08950F931F9380
:101B1000CF93DF93FB01238121FD03C08FEF9FEF64
:101B20002CC022FF16C0468157812481358142177F
:101B3000530744F4A081B1819D012F5F3F4F318352
:101B400020838C93268137812F5F3F4F37832683F5
:101B500014C08B01EC01FB010084F185E02D099597
:101B6000892BE1F6D80116968D919C9117970196D5
:101B700017969C938E931697CE01DF91CF911F916C
:101B80000F910895FA01AA27283051F1203181F1EF
:101B9000E8946F936E7F6E5F7F4F8F4F9F4FAF4F75
:101BA000B1E03ED0B4E03CD0670F781F891F9A1F88
:101BB000A11D680F791F8A1F911DA11D6A0F711D3C
:101BC000811D911DA11D20D009F468943F912AE048
:101BD000269F11243019305D3193DEF6CF01089530
:101BE000462F4770405D4193B3E00FD0C9F7F6CF61
:101BF000462F4F70405D4A3318F0495D31FD405229
:101C0000419302D0A9F7EACFB4E0A69597958795BE
:101C100077956795BA95C9F700976105710508959D
:101C20009B01AC010A2E0694579547953795279549
:101C3000BA95C9F7620F731F841F951FA01D0895E1
:101C4000F999FECF92BD81BDF89A992780B5089584
:101C5000262FF999FECF1FBA92BD81BD20BD0FB6C8
:101C6000F894FA9AF99A0FBE01960895F894FFCF66
:101C7000FF5A010A0028000200280003002800047F
:0A1C80000028000500250002000006
:00000001FF
