:100000000C94E9000C945A020C9406010C9406011D
:100010000C9406010C9406010C9406010C94060144
:100020000C9406010C9406010C9406010C94060134
:100030000C9406010C9406010C9406010C94060124
:100040000C9406010C9406010C9406010C94060114
:100050000C9406010C9406010C9406010C94060104
:100060000C9406010C9406016E616E00696E6600C8
:1000700009021200010100C005090400000000008F
:10008000000012011001FF0000087131130005018A
:10009000010200011A0343006C0075007300740034
:1000A0006500720020004300540052004C002203FF
:1000B0003800300038003600200043006F006E002A
:1000C000730075006C00740061006E0063007900BD
:1000D000040309040100FF8E00407A10F35A00A0C7
:1000E000724E18090010A5D4E80000E87648170001
:1000F00000E40B54020000CA9A3B000000E1F50541
:10010000000080969800000040420F000000A0868A
:1001100001000000102700000000E80300000000BC
:100120006400000000000A00000000000100000060
:1001300000002C76D888DC674F0823DFC1DFAE597A
:10014000E1B1B796E5E3E453C63AE651997696E80D
:10015000E6C28426EB898C9B62ED407C6FFCEFBC91
:100160009C9F40F2BAA56FA5F490055A2AF75C93BC
:100170006B6CF9676DC11BFCE0E40D47FEF520E6F2
:10018000B500D0ED902E0300943577050080841ED5
:10019000080000204E0A000000C80C333333330F30
:1001A000986E12831141EF8D2114893BE65516CFCD
:1001B000FEE6DB18D1844B381BF77C1D901DA4BBD9
:1001C000E424203284725E228100C9F124ECA1E58E
:1001D0003D2711241FBECFEFD8E0DEBFCDBF11E019
:1001E000A0E0B1E0EEE5FEE102C005900D92A03680
:1001F000B107D9F711E0A0E6B1E001C01D92A83A1D
:10020000B107E1F70E9402090C942D0F0C94000035
:10021000CF93DF9360917D01635067FD14C02091FF
:100220007A018CE090E0821B9109EC01CF57DE4F00
:10023000809179018D3209F457C08091780187FD52
:10024000A0C010927D018091010184FF40C06091A7
:1002500000016F3F09F43BC0693008F473C0685077
:100260006093000190916C0188E8892780936C016C
:1002700068E08091780187FD1CC020917B0130915E
:100280007C0186FF75C0ADE6B1E0F901962F84913F
:100290008D9331969150D9F78FEF860F90E00196AC
:1002A000280F391F30937C0120937B01C4E0C60FD7
:1002B00054C08DE691E00E943504682F893008F41F
:1002C000A8C08FEF80930001CEE1C093010194E1BB
:1002D00089B18C7031F49150D9F710927E0110924F
:1002E0007701DF91CF910895683009F0AACF83ECB0
:1002F00080936C018AE580930101109278018881D6
:10030000982F907609F048C02A8110927501998142
:1003100091114EC08F7119F481E080937501109294
:10032000760125E731E082E030937C0120937B0168
:100330009F81911104C09E81981708F4892F8093A2
:1003400000017FCF1092000190916C0188E889270D
:1003500080936C0161118DCFC4E08DE691E00E9425
:100360005602CC3009F4B1CF8FEF80930001ADCFAE
:10037000D901EDE6F1E0962F8D9181939150E1F74F
:100380008BCFCE010E94D3048F3F09F1882309F45B
:1003900058CF1092000155CFCE010E94B9038F3F74
:1003A00039F6988197FD1DC090E890937801C7CFEA
:1003B000953089F0963009F19830D9F0993099F05C
:1003C00081E09A3009F080E025E731E0ADCF8EE1A1
:1003D0008093010136CF20937E0125E731E080E054
:1003E000A3CF8E81E1CF2093800125E731E080E02B
:1003F0009BCF20E831E081E097CF8B818130F1F015
:100400008230A1F0833041F080E090E49093780155
:100410008FCFC4E0C80FA1CF211118C080ED90E0AC
:1004200090937C0180937B0184E0EFCF80E790E0A4
:1004300090937C0180937B0182E1E7CF82E890E09A
:1004400090937C0180937B0182E1DFCF213051F0DA
:100450002230D1F684E990E090937C0180937B0177
:100460008AE1D3CF8EEA90E090937C0180937B0168
:1004700082E2CBCFE9E6F0E0808183608083E89A76
:100480000895A82FB92F80E090E041E050EA6095F0
:1004900030E009C02D9182279795879510F0842729
:1004A0009527305EC8F36F5FA8F30895EADF8D9358
:1004B0009D930895CF93CFB7CF93C3954B9BE9F707
:1004C0004B9B09C04B9B07C04B9B05C04B9B03C07C
:1004D0004B9B01C0A1C0DF93C0917A01DD27CF57AC
:1004E000DE4F4B9B02C0DF91EBCF2F930F931F93F7
:1004F00009B12FEF03FB20F94F933F9319B14FEF51
:10050000012703FB21F93BE031C04E7F012F19B1D8
:10051000216028C0102F4D7F2260000009B129C042
:100520004B7F2460012F000019B12BC019B1477F08
:1005300028602AC04F7E09B120612CC04F7D19B1BF
:1005400020622FC04F7B09B1206432C0422709B11D
:1005500049934FEF0000102713FB20F919B11C70CD
:10056000C9F1297F91F2012703FB21F909B1237F0A
:1005700089F2315058F1102713FB22F919B1277E67
:1005800079F2012703FB23F92F7C81F209B11027AF
:1005900013FB24F92F7971F200C019B1012703FB75
:1005A00025F92F7359F200C009B1102713FB26F962
:1005B000223040F200C019B1012703FB27F9243093
:1005C00028F64F77206819B10000F9CF11E01CBB65
:1005D000002717C03B503195C31BD04011E01CBB16
:1005E0000881033CE9F00B34D9F02091770119819F
:1005F000110F1213EDCF093641F10D3211F0013E0A
:1006000039F700937F013F914F911F910F912F91E7
:10061000DF91CCB3C0FD51CFCF91CFBFCF91189513
:1006200020917F01222379F310917D01112311F58F
:10063000343012F130937D012093790110917A01C9
:100640003BE0311B30937A0117C000917D010130EE
:100650008CF40AE53091010134FD10C000930101D2
:10066000CCE6D1E00FC02795A8F45150A9F4220F91
:100670000000F9CF4AE503C042ED01C0432FC4E1B9
:10068000D0E032E01AB11C605B9A1AB90BB120E4D9
:100690001CE05F93012756E00BB9279520F45150D9
:1006A00021F4220FF9CF012756E000003B5A0BB985
:1006B000D0F2279528F4515029F4220F0000F9CFE9
:1006C000012756E027950BB920F4515021F4220F51
:1006D000F9CF012756E0299133230BB921F6037F87
:1006E00010917E01110FC651D0400BB911F010933B
:1006F000770111E01CBB08601AB1137F402F437FC4
:100700005F9100C000C00BB91AB94BB97CCF6091A2
:10071000A60180E390E00C941F0F8091A40181302A
:10072000A1F060E082E090E00E941F0F8091A5019F
:100730008130A1F060E083E090E00E941F0F6091A3
:10074000A70180E190E00C941F0F61E082E090E04F
:100750000E941F0F8091A501813061F761E083E065
:1007600090E00E941F0F6091A70180E190E00C943F
:100770001F0FFC0182E691E090937C0180937B0146
:1007800091819230D1F170F4992379F1913029F56A
:1007900044E050E064ED70E082E691E00E945B0E80
:1007A00084E008959330D9F09830B8F4848195812D
:1007B0008097C9F12681378182E08093660181E0CC
:1007C000232B09F480E08195089596958795909361
:1007D000040180930301892BF1F080E0089580915A
:1007E00066018093620181E00895828180936201B5
:1007F00083818093630182E0089582819381909345
:10080000060180930501009701F781E090E0909345
:1008100006018093050181E090E0909304018093AC
:10082000030180E008958091A201882349F082812C
:1008300080FD06C082E08093660126813781BFCFAC
:1008400081E0809366018093020126813781309395
:100850006B0120936A0181818093690180E290E0BD
:100860009093680180936701AACFCF93DF93FC0137
:10087000C62F80916601813059F0462F50E060E02C
:1008800070E0CF010E946F0E8C2FDF91CF91089501
:1008900020916A0130916B01862F90E0281739076B
:1008A00008F4C22F8091670190916801809761F7E9
:1008B000CC2351F390916001AFEFAC0FB0E0AD01EC
:1008C0004F5F5F4F4E0F5F1FDFEF73E065E082E029
:1008D0000AC08083909160019F5F90936001319680
:1008E000E417F50731F19923A1F39130E1F092304B
:1008F000E1F0933051F1943061F1953061F196302F
:10090000B1F19730C1F1983051F1993061F19A30DD
:10091000B1F19B30C1F19C30D1F19D30E1F19E30BD
:10092000F1F1D083D7CF6083D5CF90919801908398
:10093000D1CF215031092A1B3B0B30936B012093FF
:100940006A018C2FDF91CF91089590919901908346
:10095000C1CF7083BFCF90919A019083BBCF90910C
:100960009D019083B7CF90919E019083B3CF9091DA
:100970009B019083AFCF90919C019083ABCF9091DE
:100980009F019083A7CF9091A0019083A3CF9091D6
:10099000A10190839FCF9091A20190839BCF9091D2
:1009A000A301908397CFCF93FC01C62F809166015E
:1009B000813051F0462F50E060E070E0CF010E949E
:1009C0006F0E8C2FCF91089520916A0130916B01A9
:1009D000862F90E02817390708F051C0822F4091E8
:1009E0006701509168014032510561F79091020111
:1009F000913009F470C0CC2329F390916001C1506B
:100A00006C2F70E0AB014F5F5F4F4E0F5F1FB1E087
:100A1000923020F19230A9F1933009F444C094301F
:100A2000E9F0953009F44BC0963009F45BC097307B
:100A300009F45CC0983009F446C0993009F447C005
:100A40009A3009F457C09B3009F458C09C3009F41F
:100A500059C09D3019F4A081A093A20131969F5FE7
:100A600090936001E417F50799F621503109261B90
:100A7000370B30936B0120936A01CF910895862F35
:100A8000AECFA081A11104C0B08390916001A1E01C
:100A9000A093980131969F5F90936001E417F5074A
:100AA00009F0B6CFE2CFA081A093990131969F5F64
:100AB00090936001E417F50709F0AACFD6CFA08183
:100AC000A0939A01CBCFA081A0939D01C7CFA08115
:100AD000A0939E01C3CF908190936001CFEFC80F88
:100AE000319689CFA081A0939B01B8CFA081A0931C
:100AF0009C01B4CFA081A0939F01B0CFA081A0930F
:100B0000A001ACCFA081A093A101A8CFA3E1B0E048
:100B1000ECE8F5E00C944C0D6C014B012A01FC0152
:100B200017821682838181FF43C3AE014F5F5F4FFF
:100B30003A01F6019381F40193FD859193FF819130
:100B40004F01882309F430C3853239F493FD859130
:100B500093FF81914F01853239F4B60190E00E94F4
:100B6000810E52012501E5CF10E0F12C20E020326A
:100B7000A0F48B3269F030F4803259F0833269F49A
:100B800020612CC08D3239F0803339F4216026C0C9
:100B90002260246023C0286021C027FD27C030EDDB
:100BA000380F3A3078F426FF06C0FAE01F9F300D68
:100BB0001124132F13C04AE0F49E300D1124F32E9C
:100BC00020620CC08E3221F426FDEEC2206406C0E5
:100BD0008C3611F4206802C0883641F4F40193FD8C
:100BE000859193FF81914F018111C1CF9BEB980FAC
:100BF000933018F42061805E06C09BE9980F933013
:100C000008F071C12F7E26FF16E02F73322E853635
:100C100019F42064322E08C0863621F4F22FF068D1
:100C20003F2E02C01111115037FE07C01C3350F483
:100C3000EE24E394E10E27E00BC0183038F027E0F3
:100C400017E005C027E04CE3E42E02C0212FE12C81
:100C5000520144E0A40EB11CF201608171818281D5
:100C600093810E2DA3010E94830D2C01098100FFA9
:100C700002C003FF07C031FC08C032FE09C030E2E9
:100C8000232E07C02DE2222E04C09BE2292E01C094
:100C9000212C802F8C7019F0211068C2A8C237FE59
:100CA0000FC0E40C04FF04C08A81813309F4EA9484
:100CB0001E1474F5F8E0FE1578F588E0E82E2CC0D7
:100CC00036FC2AC0812F90E0841595059CF02CEF0E
:100CD00042162FEF520674F0432D4068342E0AC09E
:100CE000E2E0F0E0EC0FFD1FE10FF11D80818033A9
:100CF00019F411501111F4CF37FE0EC0EE24E39415
:100D0000E10E812F90E0481659062CF4141904C006
:100D1000EE24E39401C010E037FE06C0141415045D
:100D200034F4C201019605C085E090E002C081E084
:100D300090E021100196112331F0212F30E02F5F38
:100D40003F4F820F931F2F2D30E08217930714F42B
:100D5000F81A01C0F12C832D897049F4FF2039F075
:100D6000B60180E290E00E94810EFA94F7CF222033
:100D700029F0B601822D90E00E94810E33FC09C05B
:100D8000FF2039F0B60180E390E00E94810EFA94D2
:100D9000F7CF37FE5AC0942D852D57FE02C090E044
:100DA00080E0292E382E20E030E0A2014E195109B2
:100DB0005D874C87A201421953095F874E87612FD7
:100DC00070E044275527461B570B598B488B5FEF24
:100DD0002516350649F4B6018EE290E02A8B3B8B4E
:100DE0000E94810E3B892A89421453046CF04C8581
:100DF0005D854215530544F4EE85FF85E20FF31F30
:100E0000E60DF71D818101C080E351E0251A31080C
:100E10002F5F3F4F48895989241635064CF0B6019B
:100E200090E02A8B3B8B0E94810E2A893B89CFCF91
:100E30002414350439F49A81963318F4953311F457
:100E400004FF81E3B60190E04BC08A81813309F051
:100E50000F7EB60190E00E94810E111105C034FC96
:100E600018C085E690E017C0B6018EE290E00E94BF
:100E7000810E82E0EE24E394E80EF301E80FF11D09
:100E80008081B60190E00E94810E11508E2D91F765
:100E9000E6CF85E490E0B6010E94810E57FC05C0C4
:100EA0004114510439F404FF05C051944194510890
:100EB0008DE201C08BE2B60190E00E94810E80E3DA
:100EC0009AE0491651042CF08F5F5AE0451A5108F8
:100ED000F7CFB60190E00E94810EB601C201C09624
:100EE0000E94810E57C1833631F0833779F0833504
:100EF00009F058C021C05201E2E0AE0EB11CF2016F
:100F00008081898301E010E0230114C05201F2E0E6
:100F1000AF0EB11CF2014080518026FF03C0612F4B
:100F200070E002C06FEF7FEFC2012A8B0E94760E45
:100F30008C012A892F7715C05201F2E0AF0EB11C47
:100F4000F2014080518026FF03C0612F70E002C093
:100F50006FEF7FEFC2012A8B0E94640E8C012A89F9
:100F60002068322E23FD1AC08F2D90E00817190734
:100F7000A8F4B60180E290E00E94810EFA94F4CFCA
:100F8000F20137FC859137FE81912F01B60190E087
:100F90000E94810EF110FA940150110901151105FA
:100FA00079F7F8C0843611F0893659F5520127FFD8
:100FB00009C0F4E0AF0EB11CF20160817181828141
:100FC00093810AC0F2E0AF0EB11CF2016081718121
:100FD000882777FD8095982F2F76322E97FF09C0AE
:100FE00090958095709561957F4F8F4F9F4F2068AA
:100FF000322E2AE030E0A3010E94B90EE82EE61856
:101000003FC0022F853721F40F7E2AE030E01DC05B
:10101000097F8F3691F018F4883559F0C5C08037B4
:1010200019F0883711F0C0C0006104FF09C00460E6
:1010300007C024FF08C0066006C028E030E005C0F5
:1010400020E130E002C020E132E0520107FF09C098
:10105000F4E0AF0EB11CF201608171818281938155
:1010600008C0F2E0AF0EB11CF2016081718180E036
:1010700090E0A3010E94B90EE82EE6180F77302EFB
:1010800036FE0BC0332D3E7FE11650F434FE0AC00D
:1010900032FC08C0332D3E7E05C00E2D332D03C01B
:1010A0000E2D01C0012F34FF0CC0FE01EE0DF11D0D
:1010B0008081803311F4397E08C032FF05C00E5F95
:1010C00004C0832F867809F00F5F33FD13C030FF13
:1010D00006C01E2D0F1518F41F0D101B0F2D0F1518
:1010E00068F4B60180E290E03B8B0E94810E0F5FB6
:1010F0003B89F5CF0F1510F4F01A01C0F12C34FF25
:1011000012C0B60180E390E03B8B0E94810E3B89C8
:1011100032FF17C031FD03C088E790E002C088E5C8
:1011200090E0B6010CC0832F867859F031FF02C0E1
:101130008BE201C080E237FD8DE2B60190E00E94B3
:10114000810EE11638F4B60180E390E00E94810E32
:101150001150F7CFEA94F301EE0DF11D8081B60135
:1011600090E00E94810EE110F5CF14C0F4E0FF156D
:1011700058F584E0F81A33FE1EC0211026C003FF84
:101180002AC008E610E0F32DF0713F2EF80184919B
:10119000811124C0FF2009F4E5CCB60180E290E083
:1011A0000E94810EFA94F6CFF6018681978126C0BF
:1011B0008FEF9FEF23C0B60180E290E00E94810E86
:1011C000FA94F110F8CFD9CFF12CB601822D90E02E
:1011D0000E94810ED4CF0CE610E0D5CF31108052A2
:1011E000B60190E00E94810E0F5F1F4FCFCF23E02A
:1011F0002F1510F483E0BECFF12CC1CF6396E2E14E
:101200000C94680D29E288E190E00FB6F894A89557
:10121000809360000FBE2093600084B18F6384B917
:1012200087B18F6387B98AB1806F8AB92C98299862
:1012300081E090E00E94170F8093980182E090E097
:101240000E94170F813009F4E8C01092A401289879
:1012500083E090E00E94170F8093A501429880E1FF
:1012600090E00E94170F8093A70180E390E00E9416
:10127000170F8093A601A7E0B1E0EBE1F1E080E079
:1012800090E041E050E007C0019634961496883013
:10129000910509F445C085309105B0F72091A6016C
:1012A00030E0082E02C0359527950A94E2F720FF1A
:1012B000EBCF299A2FEF3EE974E221503040704085
:1012C000E1F700C00000CD91DC91119778819A017F
:1012D00012960C90129702C0220F331F0A94E2F765
:1012E000272B28832091A70130E0082E02C03595D6
:1012F00027950A94E2F720FFC7CFC081D18168818A
:101300009A01028002C0220F331F0A94E2F7262BB3
:1013100028830196349614968830910509F0BBCF46
:1013200029988BB1837F8BB98AB18C608AB980E4AC
:101330009CE90197F1F78AB1837F8AB90E943A024A
:101340007894E3E08E2EFF24FA94EE24E394F0E404
:10135000CF2EA7E8DA2EB8EC9B2EC8E1AC2EB12C2C
:10136000C1E0D0E000E41CE9A8950E94080180914A
:10137000A2018823C9F39091A5019111429A83306B
:1013800009F44FC0843009F4A6C08A3009F4F8C0CB
:101390008B3009F42CC1853009F457C1863009F42B
:1013A0007DC1803F09F4A8C1843F09F48EC0833F0A
:1013B00009F4C9C1853F09F4D2C1863F09F4E0C1EF
:1013C000873009F4A9C1813F09F4EBC18C3009F4DD
:1013D000CEC18D3009F4DCC18E3009F438C28F30B3
:1013E00009F4FEC1843109F41CC2803109F421C220
:1013F000823F09F44CC2853109F48AC2863109F46E
:101400007FC2873109F474C2813109F48DC2109210
:10141000A2018092A3014298A7CF8093A401289AA9
:1014200017CFE091A1018FEF8E0F853008F04DC0EE
:10143000F0E0EE0FFF1FEE0FFF1FED5FFE4FA081EC
:10144000B1812C91CE01028002C0880F991F0A94AD
:10145000E2F7822B8C932091A10130E0C901019722
:10146000FC0197FD3EC1F595E795F595E795F59556
:10147000E795AC014770507857FD2CC1EC55FE4FF5
:101480009E01042E01C0220F0A94EAF73281232B19
:101490002283238130E002C0359527954A95E2F7F3
:1014A00020FF13C0880F991F880F991FFC01E55E6C
:1014B000FE4FA081B1812C91CE01028002C0880F25
:1014C000991F0A94E2F7822B8C931092A20110923A
:1014D000A301429849CFE091A1018FEF8E0F853093
:1014E000A0F7F0E0EE0FFF1FEE0FFF1FED5FFE4FC6
:1014F000A081B1819C919E01028002C0220F331F06
:101500000A94E2F7822F809589238C932091A10180
:1015100030E0C9010197FC0197FDECC0F595E79516
:10152000F595E795F595E795EC55FE4F9C012770ED
:10153000307837FDD8C0AE0102C0440F551F2A9540
:10154000E2F7342F3095228123232283880F991FBD
:10155000880F991FFC01E55EFE4FA081B1819C912F
:101560009E01028002C0220F331F0A94E2F7822FED
:10157000809589238C931092A2011092A301A9CF88
:101580008091A101811168C0E092A401289AEBE149
:10159000F1E080E090E04091A7019E01082E01C09B
:1015A000220F0A94EAF7242B2093A7012091A60189
:1015B00030E0082E02C0359527950A94E2F720FF07
:1015C0000CC0A081B1814C919E01028002C0220F0B
:1015D000331F0A94E2F7242B2C930196349685301E
:1015E0009105C9F61092A2011092A30172CF8091C9
:1015F000A10181115AC01092A4012898EBE1F1E0F9
:1016000080E090E09E01082E01C0220F0A94EAF7C4
:1016100020953091A70123232093A701A081B181B8
:101620004C919E01028002C0220F331F0A94E2F700
:10163000209524232C93019634968530910511F73B
:101640001092A2011092A30144CF299A1092A201F4
:101650001092A301429888CE9FEF980F953008F022
:1016600034CF90E001979E01082E01C0220F0A940A
:10167000EAF73091A701232B2093A7012091A6011F
:1016800030E0082E02C0359527950A94E2F720FD38
:1016900009CF1092A2011092A3011BCF299810929A
:1016A000A2011092A30142985FCE9FEF980F953050
:1016B00008F00BCF90E001979E01082E01C0220F89
:1016C0000A94EAF7322F30952091A7012323209323
:1016D000A7013CCF41505109486F5F6F4F5F5F4F8B
:1016E000CDCE3796C0CE21503109286F3F6F2F5F86
:1016F0003F4F21CF379612CF6091980181E090E063
:101700000E941F0F0E948D030E9487031092A20166
:101710001092A301429828CE9091A1019A3020F412
:101720008AE08093A1019AE02C9A992339F080E015
:10173000F8013197F1F78F5F8913FACF2C98109247
:10174000A201429811CE6091980181E090E00E9440
:101750001F0F1092A2011092A301429805CE0E9481
:1017600087031092A2011092A3014298FDCD289AFE
:10177000E092A4011092A2011092A3014298F4CD2C
:101780000E948D031092A2011092A3014298ECCD09
:1017900028981092A4011092A2011092A3014298DD
:1017A000E3CD64E181E090E00E941F0F61E082E000
:1017B00090E00E941F0F61E083E090E00E941F0F05
:1017C0006FEF80E190E00E941F0F60E080E390E007
:1017D0000E941F0F1092A2011092A3014298C4CD43
:1017E000E091A1018FEF8E0F853008F047C0F0E047
:1017F000EE0FFF1FEE0FFF1FED5FFE4FA081B181C7
:101800008C9190E0028002C0959587950A94E2F74A
:1018100081708093A1011092A2011092A3014298BD
:10182000A3CDF092A1011092A2011092A3014298BF
:101830009BCD9091A101913009F446C05D989093A1
:1018400061011092A2011092A30142988DCD88E00F
:101850000FB6F894A895A09260000FBE8093600028
:101860005FEB74ED81E0515070408040E1F700C0C3
:1018700000001092A2011092A3012BCEF092A101C0
:101880001092A20182E08093A30142986DCDE09274
:10189000A3018091A101811119C088E08093A10169
:1018A000E092A001F0929F01F0929E01F0929D01C2
:1018B000F0929C01F0929B01F0929A011092A30188
:1018C0001092A201429850CD5D9AB9CF813009F4AF
:1018D0006CC0823009F443C0833009F48CC084307A
:1018E00079F7809161018093A1011092A301E8CF63
:1018F0001092A5011092A2011092A301429834CD3A
:10190000E092A5011092A2011092A30142982CCD61
:101910008091A101882329F0809398011092A3015E
:10192000CFCFE092A301CCCFE091A101E63008F443
:101930008CC01092A201F0929A01F0929B01F09259
:101940009C01F0929D01F0929E01F0929F01F09215
:10195000A001F092A101E092A301429805CD8091EF
:10196000A001813041F1823009F0AACFC0927C0001
:10197000D0927A0080917C00876080937C00809177
:101980007A00806480937A0080917A0086FDFCCF93
:10199000E092A101809178008093A001809179006C
:1019A00080939F011092A3018BCF82E08093A101CD
:1019B0001092A30185CFC0927C00D0927A008091D2
:1019C0007C00887F866080937C0080917A008064B0
:1019D00080937A0080917A0086FDFCCFE092A1018D
:1019E000809178008093A0019091790090939F015D
:1019F0001092A301B8CFC0927C00D0927A0090924E
:101A00007C0080917A00806480937A0080917A00D3
:101A100086FDFCCF80917A00806480937A0080916B
:101A20007A0086FDFCCF82E08093A101809178004E
:101A30008093A0018091790080939F011092A3016F
:101A4000C0927C00D0927A003BCFF0E0EE0FFF1FF7
:101A5000EE0FFF1FEE0FFF1FE15DFE4F87818093AA
:101A6000A10186818093A001858180939F0184815B
:101A700080939E01838180939D01828180939C014C
:101A8000818180939B01808180939A011092A201B1
:101A90001092A301429868CC2F923F924F925F928E
:101AA0006F927F928F929F92AF92BF92CF92DF926E
:101AB000EF92FF920F931F93CF93DF93CDB7DEB7D3
:101AC000CA1BDB0B0FB6F894DEBF0FBECDBF099467
:101AD0002A88398848885F846E847D848C849B84BE
:101AE000AA84B984C884DF80EE80FD800C811B81CC
:101AF000AA81B981CE0FD11D0FB6F894DEBF0FBEFB
:101B0000CDBFED010895283008F027E03327DA0132
:101B1000990F311D87FD916000966105710539F4BB
:101B200032602E5F3D9330E32A95E1F708959F3FA1
:101B300030F080387105610509F03C5F3C5F3D93F2
:101B4000913008F08068911DDF93CF931F930F931E
:101B5000FF92EF92192F987F9695E92F969596957B
:101B6000E90FFF27EE5CFE4F99273327EE24FF2471
:101B7000A701E70105900894079428F4360FE71EA3
:101B8000F81E491F511D660F771F881F991F069465
:101B9000A1F70590079428F4E70EF81E491F561F79
:101BA000C11D770F881F991F661F0694A1F7059026
:101BB000079428F4F80E491F561FC71FD11D880F20
:101BC000991F661F771F0694A1F70590079420F4CC
:101BD000490F561FC71FD81F990F661F771F881FF1
:101BE0000694A9F784911095177041F0D695C79582
:101BF00057954795F794E7941A95C1F7E8EDF0E00B
:101C000068941590159135916591959105907FE2B5
:101C10007395E118F10A430B560BC90BD009C0F7B5
:101C2000E10CF11E431F561FC91FD01D7EF47033F7
:101C300011F48A95E6CFE894015030F0080F0AF4C9
:101C40000027021708F4202F2395022F7A3328F05B
:101C500079E37D932A95E9F710C07D932A9589F65B
:101C6000069497956795379517951794E118F10A9B
:101C7000430B560BC90BD00998F023957E917395B1
:101C80007A3308F070E37C932013B8F77E9170618B
:101C90007D9330F0839571E37D9370E32A95E1F7AE
:101CA0001124EF90FF900F911F91CF91DF91992711
:101CB00087FD90950895FB01DC0102C005900D920F
:101CC00041505040D8F70895FC0105906150704094
:101CD0000110D8F7809590958E0F9F1F0895DC0115
:101CE00001C06D9341505040E0F70895FC016150F0
:101CF000704001900110D8F7809590958E0F9F1F2E
:101D000008950F931F93CF93DF93FB01238121FD50
:101D100003C08FEF9FEF28C022FF16C04681578176
:101D2000248135814217530744F4A081B1819D017C
:101D30002F5F3F4F318320838C93268137812F5F24
:101D40003F4F3783268310C0EB01092F182F0084E3
:101D5000F185E02D0995892BE1F68E819F81019611
:101D60009F838E83812F902FDF91CF911F910F91B1
:101D70000895FA01AA27283051F1203181F1E89421
:101D80006F936E7F6E5F7F4F8F4F9F4FAF4FB1E06E
:101D90003ED0B4E03CD0670F781F891F9A1FA11D69
:101DA000680F791F8A1F911DA11D6A0F711D811D6A
:101DB000911DA11D20D009F468943F912AE0269F2F
:101DC00011243019305D3193DEF6CF010895462F8E
:101DD0004770405D4193B3E00FD0C9F7F6CF462F6F
:101DE0004F70405D4A3318F0495D31FD40524193D8
:101DF00002D0A9F7EACFB4E0A69597958795779595
:101E00006795BA95C9F700976105710508959B011B
:101E1000AC010A2E06945795479537952795BA95A4
:101E2000C9F7620F731F841F951FA01D0895F999AC
:101E3000FECF92BD81BDF89A992780B50895262FCF
:101E4000F999FECF1FBA92BD81BD20BD0FB6F8949F
:0E1E5000FA9AF99A0FBE01960895F894FFCF02
:101E5E00FF5A0105000A002B0007002B0006002B7D
:101E6E0000040028000500280004002500020025BB
:101E7E0000050028000300280000002800010004CF
:101E8E0001FFFFFFFFFFFF01FFFFFFFFFFFFFF024D
:101E9E00FFFFFFFFFFFFFF03FFFFFFFFFFFFFF043B
:101EAE0002FFFFFFFFFFFF0404FFFFFFFFFFFF0026
:00000001FF
